{
  "contractName": "ContractCP",
  "abi": [
    {
      "constant": true,
      "inputs": [],
      "name": "_status",
      "outputs": [
        {
          "name": "",
          "type": "uint8"
        }
      ],
      "payable": false,
      "stateMutability": "view",
      "type": "function"
    },
    {
      "inputs": [
        {
          "name": "inClinic",
          "type": "address"
        },
        {
          "name": "inPatient",
          "type": "address"
        },
        {
          "name": "inDescription",
          "type": "string"
        },
        {
          "name": "inEstimatedTime",
          "type": "uint256"
        },
        {
          "name": "inAmount",
          "type": "uint256"
        }
      ],
      "payable": true,
      "stateMutability": "payable",
      "type": "constructor"
    },
    {
      "anonymous": false,
      "inputs": [
        {
          "indexed": false,
          "name": "from",
          "type": "address"
        },
        {
          "indexed": false,
          "name": "to",
          "type": "address"
        },
        {
          "indexed": false,
          "name": "amount",
          "type": "uint256"
        }
      ],
      "name": "sent",
      "type": "event"
    },
    {
      "constant": false,
      "inputs": [],
      "name": "clinicAcceptPatient",
      "outputs": [],
      "payable": false,
      "stateMutability": "nonpayable",
      "type": "function"
    },
    {
      "constant": false,
      "inputs": [],
      "name": "patientConfirm",
      "outputs": [],
      "payable": true,
      "stateMutability": "payable",
      "type": "function"
    },
    {
      "constant": false,
      "inputs": [],
      "name": "patientCancel",
      "outputs": [],
      "payable": true,
      "stateMutability": "payable",
      "type": "function"
    },
    {
      "constant": true,
      "inputs": [],
      "name": "currentStatus",
      "outputs": [
        {
          "name": "",
          "type": "uint8"
        }
      ],
      "payable": false,
      "stateMutability": "view",
      "type": "function"
    }
  ],
  "bytecode": "0x60606040526040516109da3803806109da8339810160405280805190602001909190805190602001909190805182019190602001805190602001909190805190602001909190505080670de0b6b3a76400008102341015151561006157600080fd5b336000806101000a81548173ffffffffffffffffffffffffffffffffffffffff021916908373ffffffffffffffffffffffffffffffffffffffff16021790555085600160006101000a81548173ffffffffffffffffffffffffffffffffffffffff021916908373ffffffffffffffffffffffffffffffffffffffff16021790555084600260006101000a81548173ffffffffffffffffffffffffffffffffffffffff021916908373ffffffffffffffffffffffffffffffffffffffff16021790555034600381905550836004908051906020019061014092919061017e565b5082600581905550426006819055506000600760006101000a81548160ff0219169083600381111561016e57fe5b0217905550505050505050610223565b828054600181600116156101000203166002900490600052602060002090601f016020900481019282601f106101bf57805160ff19168380011785556101ed565b828001600101855582156101ed579182015b828111156101ec5782518255916020019190600101906101d1565b5b5090506101fa91906101fe565b5090565b61022091905b8082111561021c576000816000905550600101610204565b5090565b90565b6107a8806102326000396000f30060606040526004361061006d576000357c0100000000000000000000000000000000000000000000000000000000900463ffffffff1680630fb3844c146100725780631a9bf804146100a95780632afca120146100b35780639425a41f146100c8578063ef8a9235146100d2575b600080fd5b341561007d57600080fd5b610085610109565b6040518082600381111561009557fe5b60ff16815260200191505060405180910390f35b6100b161011c565b005b34156100be57600080fd5b6100c661024d565b005b6100d0610303565b005b34156100dd57600080fd5b6100e5610765565b604051808260038111156100f557fe5b60ff16815260200191505060405180910390f35b600760009054906101000a900460ff1681565b600260009054906101000a900473ffffffffffffffffffffffffffffffffffffffff1673ffffffffffffffffffffffffffffffffffffffff163373ffffffffffffffffffffffffffffffffffffffff1614151561017857600080fd5b6000600381111561018557fe5b600760009054906101000a900460ff1660038111156101a057fe5b1415156101ac57600080fd5b600260009054906101000a900473ffffffffffffffffffffffffffffffffffffffff1673ffffffffffffffffffffffffffffffffffffffff166108fc6003549081150290604051600060405180830381858888f19350505050151561021057600080fd5b6003600760006101000a81548160ff0219169083600381111561022f57fe5b02179055503373ffffffffffffffffffffffffffffffffffffffff16ff5b600160009054906101000a900473ffffffffffffffffffffffffffffffffffffffff1673ffffffffffffffffffffffffffffffffffffffff163373ffffffffffffffffffffffffffffffffffffffff161415156102a957600080fd5b600060038111156102b657fe5b600760009054906101000a900460ff1660038111156102d157fe5b1415156102dd57600080fd5b6001600760006101000a81548160ff021916908360038111156102fc57fe5b0217905550565b600080600080600260009054906101000a900473ffffffffffffffffffffffffffffffffffffffff1673ffffffffffffffffffffffffffffffffffffffff163373ffffffffffffffffffffffffffffffffffffffff1614151561036557600080fd5b6001600381111561037257fe5b600760009054906101000a900460ff16600381111561038d57fe5b14151561039957600080fd5b429350600654840392506005548311156104d957600160009054906101000a900473ffffffffffffffffffffffffffffffffffffffff1673ffffffffffffffffffffffffffffffffffffffff166108fc6003549081150290604051600060405180830381858888f19350505050151561041157600080fd5b7f570e6727d8aecbd70b2b62942bafdd52df16512778cd1454a51e2e164871938630600160009054906101000a900473ffffffffffffffffffffffffffffffffffffffff16600354604051808473ffffffffffffffffffffffffffffffffffffffff1673ffffffffffffffffffffffffffffffffffffffff1681526020018373ffffffffffffffffffffffffffffffffffffffff1673ffffffffffffffffffffffffffffffffffffffff168152602001828152602001935050505060405180910390a161073b565b600a6009600354028115156104ea57fe5b049150600160009054906101000a900473ffffffffffffffffffffffffffffffffffffffff1673ffffffffffffffffffffffffffffffffffffffff166108fc839081150290604051600060405180830381858888f19350505050151561054f57600080fd5b7f570e6727d8aecbd70b2b62942bafdd52df16512778cd1454a51e2e164871938630600160009054906101000a900473ffffffffffffffffffffffffffffffffffffffff1684604051808473ffffffffffffffffffffffffffffffffffffffff1673ffffffffffffffffffffffffffffffffffffffff1681526020018373ffffffffffffffffffffffffffffffffffffffff1673ffffffffffffffffffffffffffffffffffffffff168152602001828152602001935050505060405180910390a181600354039050600260009054906101000a900473ffffffffffffffffffffffffffffffffffffffff1673ffffffffffffffffffffffffffffffffffffffff166108fc829081150290604051600060405180830381858888f19350505050151561067957600080fd5b7f570e6727d8aecbd70b2b62942bafdd52df16512778cd1454a51e2e164871938630600160009054906101000a900473ffffffffffffffffffffffffffffffffffffffff1683604051808473ffffffffffffffffffffffffffffffffffffffff1673ffffffffffffffffffffffffffffffffffffffff1681526020018373ffffffffffffffffffffffffffffffffffffffff1673ffffffffffffffffffffffffffffffffffffffff168152602001828152602001935050505060405180910390a15b6002600760006101000a81548160ff0219169083600381111561075a57fe5b021790555050505050565b6000600760009054906101000a900460ff169050905600a165627a7a72305820303e0385971624e06962384fe40695ff39c301a4bdd6ad9c2dbdb3125a2085dd0029",
  "source": "pragma solidity ^0.4.21;\r\n// Local file\r\ncontract ContractCP {\r\n    \r\n    enum ContractStatus {\r\n        NEW,                // When Contract is deployed\r\n        ON_GOING,           // When Patient come to Clinic\r\n        PATIENT_CONFIRMED,  // When Patient confirm that OK.\r\n        CANCELLED           // When Patient cancel the contract\r\n    }\r\n    \r\n    address private _admin;\r\n    address private _clinic;\r\n    address private _patient;\r\n    \r\n    uint private _amount; \t\t\t// wei\r\n    \r\n    string private _description;\r\n    uint private _estimatedTime; \t// in miliseconds\r\n    uint private _createdTime; \t\t// time that contract is created\r\n    \r\n    ContractStatus public _status;\r\n\t\r\n\t// When deploy Contract, attach value = 10 ETH\r\n\t// Parameter\r\n    // \"0x4b0897b0513fdc7c541b6d9d7e929c4e5364d2db\", \"0x14723a09acff6d2a60dcdf7aa4aff308fddc160c\", \"Test\", 10000 (10 seconds), 10 (ETH)\r\n    function ContractCP(address inClinic, address inPatient, string inDescription, uint inEstimatedTime, uint inAmount) public\r\n        payable minimumAmount(inAmount) {\r\n\t\t\r\n\t\t// TODO\r\n\t\t// Require NOT NULL / EMPTY\r\n            \r\n        _admin = msg.sender;\r\n        _clinic = inClinic;\r\n        _patient = inPatient;\r\n        \r\n        _amount = msg.value;\r\n            \r\n        _description = inDescription;\r\n        _estimatedTime = inEstimatedTime;\r\n        _createdTime = block.timestamp;\r\n        \r\n        _status = ContractStatus.NEW;\r\n    }\r\n    \r\n    function clinicAcceptPatient() public{\r\n        require (msg.sender == _clinic);\r\n        require (_status == ContractStatus.NEW);\r\n        \r\n        _status = ContractStatus.ON_GOING;\r\n        \r\n    }\r\n    \r\n    function patientConfirm() payable public{\r\n        require (msg.sender == _patient);\r\n        require (_status == ContractStatus.ON_GOING);\r\n        \r\n        // Check for late?\r\n        uint currentTime = block.timestamp;\r\n        uint diffTime = currentTime - _createdTime;\r\n        \r\n        if(diffTime > _estimatedTime) {\r\n            _clinic.transfer(_amount);\r\n            emit sent(this, _clinic, _amount);\r\n        }\r\n        else {\r\n            uint clinicAmount = _amount * 9 / 10; // 10% for late\r\n            _clinic.transfer(clinicAmount);\r\n            emit sent(this, _clinic, clinicAmount);\r\n            \r\n            uint patienrAmount = _amount - clinicAmount;\r\n            _patient.transfer(patienrAmount);\r\n            emit sent(this, _clinic, patienrAmount);\r\n        }\r\n        \r\n        _status = ContractStatus.PATIENT_CONFIRMED;\r\n    }\r\n    \r\n    function patientCancel() payable public{\r\n        require (msg.sender == _patient);\r\n        require (_status == ContractStatus.NEW);\r\n        \r\n        // Refund full amount to patient if he want cancel\r\n        _patient.transfer(_amount);\r\n         \r\n        _status = ContractStatus.CANCELLED; \r\n        selfdestruct(msg.sender);\r\n    }\r\n    \r\n    \r\n    function currentStatus() public view returns (ContractStatus){\r\n        return _status;\r\n    }\r\n    \r\n    modifier minimumAmount(uint inAmount) {\r\n        // inAmount is ether ==> wei by multiple 1000000000000000000\r\n        require (msg.value >= inAmount * 1000000000000000000);\r\n        _;\r\n    }\r\n    \r\n    event sent(address from, address to, uint amount);\r\n    \r\n}",
  "sourcePath": "E:\\Data\\Blcokchain\\Project\\patient-clinic-example\\contracts\\ContractCP.sol",
  "compiler": {
    "name": "solc",
    "version": "0.4.21+commit.dfe3193c.Emscripten.clang"
  },
  "schemaVersion": "2.0.0",
  "updatedAt": "2018-04-06T01:56:12.640Z"
}