{
  "contractName": "ContractPI",
  "abi": [
    {
      "constant": true,
      "inputs": [],
      "name": "_status",
      "outputs": [
        {
          "name": "",
          "type": "uint8"
        }
      ],
      "payable": false,
      "stateMutability": "view",
      "type": "function"
    },
    {
      "inputs": [
        {
          "name": "inInusrer",
          "type": "address"
        },
        {
          "name": "inPatient",
          "type": "address"
        }
      ],
      "payable": false,
      "stateMutability": "nonpayable",
      "type": "constructor"
    },
    {
      "anonymous": false,
      "inputs": [
        {
          "indexed": false,
          "name": "",
          "type": "address"
        },
        {
          "indexed": false,
          "name": "",
          "type": "uint256"
        },
        {
          "indexed": false,
          "name": "",
          "type": "uint256"
        }
      ],
      "name": "ContractSigned",
      "type": "event"
    },
    {
      "anonymous": false,
      "inputs": [
        {
          "indexed": false,
          "name": "",
          "type": "address"
        },
        {
          "indexed": false,
          "name": "",
          "type": "address"
        },
        {
          "indexed": false,
          "name": "",
          "type": "uint256"
        }
      ],
      "name": "ClaimRequested",
      "type": "event"
    },
    {
      "anonymous": false,
      "inputs": [
        {
          "indexed": false,
          "name": "",
          "type": "address"
        },
        {
          "indexed": false,
          "name": "",
          "type": "address"
        },
        {
          "indexed": false,
          "name": "",
          "type": "uint256"
        }
      ],
      "name": "AcceptClaim",
      "type": "event"
    },
    {
      "constant": false,
      "inputs": [
        {
          "name": "inPackId",
          "type": "uint256"
        },
        {
          "name": "inNumberOfMonths",
          "type": "uint256"
        }
      ],
      "name": "calculateContractValue",
      "outputs": [
        {
          "name": "",
          "type": "uint256"
        }
      ],
      "payable": false,
      "stateMutability": "nonpayable",
      "type": "function"
    },
    {
      "constant": false,
      "inputs": [
        {
          "name": "inPackId",
          "type": "uint256"
        },
        {
          "name": "inNumberOfMonths",
          "type": "uint256"
        },
        {
          "name": "inStartDate",
          "type": "uint256"
        },
        {
          "name": "inContractValue",
          "type": "uint256"
        }
      ],
      "name": "patientConfirm",
      "outputs": [],
      "payable": true,
      "stateMutability": "payable",
      "type": "function"
    },
    {
      "constant": false,
      "inputs": [],
      "name": "patientCancel",
      "outputs": [],
      "payable": false,
      "stateMutability": "nonpayable",
      "type": "function"
    },
    {
      "constant": false,
      "inputs": [],
      "name": "getInsurer",
      "outputs": [
        {
          "name": "",
          "type": "address"
        }
      ],
      "payable": false,
      "stateMutability": "nonpayable",
      "type": "function"
    },
    {
      "constant": false,
      "inputs": [
        {
          "name": "inPatient",
          "type": "address"
        },
        {
          "name": "inCheckItems",
          "type": "string[]"
        },
        {
          "name": "inCheckPrices",
          "type": "uint256[]"
        }
      ],
      "name": "calculateClaimAmount",
      "outputs": [
        {
          "name": "",
          "type": "uint256"
        }
      ],
      "payable": false,
      "stateMutability": "nonpayable",
      "type": "function"
    },
    {
      "constant": false,
      "inputs": [
        {
          "name": "inContractCP",
          "type": "address"
        }
      ],
      "name": "requestForClaim",
      "outputs": [
        {
          "name": "",
          "type": "uint256"
        }
      ],
      "payable": false,
      "stateMutability": "nonpayable",
      "type": "function"
    },
    {
      "constant": false,
      "inputs": [
        {
          "name": "inContractCP",
          "type": "address"
        }
      ],
      "name": "insurerAcceptClaim",
      "outputs": [],
      "payable": true,
      "stateMutability": "payable",
      "type": "function"
    },
    {
      "constant": false,
      "inputs": [],
      "name": "requestForWithdraw",
      "outputs": [],
      "payable": true,
      "stateMutability": "payable",
      "type": "function"
    },
    {
      "constant": true,
      "inputs": [
        {
          "name": "x",
          "type": "bytes32"
        }
      ],
      "name": "bytes32ToString",
      "outputs": [
        {
          "name": "",
          "type": "string"
        }
      ],
      "payable": false,
      "stateMutability": "view",
      "type": "function"
    }
  ],
  "bytecode": "0x606060405234156200001057600080fd5b60405160408062001c3a8339810160405262000036906780000000000000009062000135565b8073ffffffffffffffffffffffffffffffffffffffff163373ffffffffffffffffffffffffffffffffffffffff161415156200007157600080fd5b816000806101000a81548173ffffffffffffffffffffffffffffffffffffffff021916908373ffffffffffffffffffffffffffffffffffffffff16021790555080600160006101000a81548173ffffffffffffffffffffffffffffffffffffffff021916908373ffffffffffffffffffffffffffffffffffffffff1602179055506000600160146101000a81548160ff021916908360038111156200011257fe5b0217905550505062000196565b60006200012d825162000176565b905092915050565b600080604083850312156200014957600080fd5b600062000159858286016200011f565b92505060206200016c858286016200011f565b9150509250929050565b600073ffffffffffffffffffffffffffffffffffffffff82169050919050565b611a9480620001a66000396000f3006060604052600436106100a4576000357c0100000000000000000000000000000000000000000000000000000000900463ffffffff1680630cc86d3d146100a95780630fb3844c146100df5780631a9bf8041461010857806322edc9791461011d57806323bb2e9214610134578063460481441461016a5780634a550d83146101745780635d0c1476146101aa5780639201de55146101d3578063ceff114614610209575b600080fd5b34156100b457600080fd5b6100c960046100c49036906116ea565b610220565b6040516100d691906118b2565b60405180910390f35b34156100ea57600080fd5b6100f2610258565b6040516100ff9190611875565b60405180910390f35b341561011357600080fd5b61011b61026b565b005b610132600461012d903690611619565b610314565b005b341561013f57600080fd5b610154600461014f903690611619565b61054c565b60405161016191906118b2565b60405180910390f35b610172610c93565b005b341561017f57600080fd5b610194600461018f903690611642565b610daf565b6040516101a191906118b2565b60405180910390f35b34156101b557600080fd5b6101bd610ef3565b6040516101ca91906117ec565b60405180910390f35b34156101de57600080fd5b6101f360046101ee9036906116c1565b610f1c565b6040516102009190611890565b60405180910390f35b61021e6004610219903690611726565b611109565b005b600061022a61139b565b610234848461129a565b905080604001511561024c5780602001519150610251565b600091505b5092915050565b600160149054906101000a900460ff1681565b600160009054906101000a900473ffffffffffffffffffffffffffffffffffffffff1673ffffffffffffffffffffffffffffffffffffffff163373ffffffffffffffffffffffffffffffffffffffff161415156102c757600080fd5b600060038111156102d457fe5b600160149054906101000a900460ff1660038111156102ef57fe5b1415156102fb57600080fd5b3373ffffffffffffffffffffffffffffffffffffffff16ff5b6000806000809054906101000a900473ffffffffffffffffffffffffffffffffffffffff1673ffffffffffffffffffffffffffffffffffffffff163373ffffffffffffffffffffffffffffffffffffffff1614151561037257600080fd5b6001600381111561037f57fe5b600160149054906101000a900460ff16600381111561039a57fe5b1415156103a657600080fd5b600c60008473ffffffffffffffffffffffffffffffffffffffff1673ffffffffffffffffffffffffffffffffffffffff16815260200190815260200160002091508160030160009054906101000a900460ff16151561040457600080fd5b600015158260010160149054906101000a900460ff16151514151561042857600080fd5b8160020154341015151561043b57600080fd5b8290508073ffffffffffffffffffffffffffffffffffffffff1663cba2534f620493e0846002015485600201546040518463ffffffff167c01000000000000000000000000000000000000000000000000000000000281526004016104a091906118b2565b6000604051808303818589803b15156104b857600080fd5b88f115156104c557600080fd5b505050505060018260010160146101000a81548160ff0219169083151502179055507ee0370db339f2678ab2fd274bb678633e18f0a739aedf0050ed1e449d4f598383600160009054906101000a900473ffffffffffffffffffffffffffffffffffffffff16846002015460405161053f93929190611807565b60405180910390a1505050565b60008060008060008060006001600381111561056457fe5b600160149054906101000a900460ff16600381111561057f57fe5b14151561058b57600080fd5b426005541015151561059c57600080fd5b879550600160009054906101000a900473ffffffffffffffffffffffffffffffffffffffff1673ffffffffffffffffffffffffffffffffffffffff168673ffffffffffffffffffffffffffffffffffffffff16637b0f9a366040518163ffffffff167c0100000000000000000000000000000000000000000000000000000000028152600401602060405180830381600087803b151561063b57600080fd5b5af1151561064857600080fd5b5050506040518051905073ffffffffffffffffffffffffffffffffffffffff1614151561067457600080fd5b60001515600c60008a73ffffffffffffffffffffffffffffffffffffffff1673ffffffffffffffffffffffffffffffffffffffff16815260200190815260200160002060030160009054906101000a900460ff1615151415156106d657600080fd5b8573ffffffffffffffffffffffffffffffffffffffff16637749cf236040518163ffffffff167c0100000000000000000000000000000000000000000000000000000000028152600401602060405180830381600087803b151561073957600080fd5b5af1151561074657600080fd5b505050604051805190509450600091505b848210156108c8576107ec8673ffffffffffffffffffffffffffffffffffffffff1663a5adc278846040518263ffffffff167c01000000000000000000000000000000000000000000000000000000000281526004016107b791906118b2565b602060405180830381600087803b15156107d057600080fd5b5af115156107dd57600080fd5b50505060405180519050610f1c565b84838154811015156107fa57fe5b906000526020600020900190805190602001906108189291906113bf565b508573ffffffffffffffffffffffffffffffffffffffff1663ced51e17836040518263ffffffff167c010000000000000000000000000000000000000000000000000000000002815260040161086e91906118b2565b602060405180830381600087803b151561088757600080fd5b5af1151561089457600080fd5b5050506040518051905083838154811015156108ac57fe5b9060005260206000209001819055508180600101925050610757565b610a7c8673ffffffffffffffffffffffffffffffffffffffff16637b0f9a366040518163ffffffff167c0100000000000000000000000000000000000000000000000000000000028152600401602060405180830381600087803b151561092e57600080fd5b5af1151561093b57600080fd5b5050506040518051905085805480602002602001604051908101604052809291908181526020016000905b82821015610a2357838290600052602060002090018054600181600116156101000203166002900480601f016020809104026020016040519081016040528092919081815260200182805460018160011615610100020316600290048015610a0f5780601f106109e457610100808354040283529160200191610a0f565b820191906000526020600020905b8154815290600101906020018083116109f257829003601f168201915b505050505081526020019060010190610966565b5050505085805480602002602001604051908101604052809291908181526020018280548015610a7257602002820191906000526020600020905b815481526020019060010190808311610a5e575b5050505050610daf565b90506000811115610c835760a0604051908101604052808973ffffffffffffffffffffffffffffffffffffffff168152602001600160009054906101000a900473ffffffffffffffffffffffffffffffffffffffff1673ffffffffffffffffffffffffffffffffffffffff16815260200160001515815260200182815260200160011515815250600c60008a73ffffffffffffffffffffffffffffffffffffffff1673ffffffffffffffffffffffffffffffffffffffff16815260200190815260200160002060008201518160000160006101000a81548173ffffffffffffffffffffffffffffffffffffffff021916908373ffffffffffffffffffffffffffffffffffffffff16021790555060208201518160010160006101000a81548173ffffffffffffffffffffffffffffffffffffffff021916908373ffffffffffffffffffffffffffffffffffffffff16021790555060408201518160010160146101000a81548160ff0219169083151502179055506060820151816002015560808201518160030160006101000a81548160ff0219169083151502179055509050507f4937cce2b75e8534dd1b00c796a7527bad00a7993dfb8232adeef9166906da0d88600160009054906101000a900473ffffffffffffffffffffffffffffffffffffffff1683604051610c7293929190611807565b60405180910390a160009650610c88565b600196505b505050505050919050565b6000809054906101000a900473ffffffffffffffffffffffffffffffffffffffff1673ffffffffffffffffffffffffffffffffffffffff163373ffffffffffffffffffffffffffffffffffffffff16141515610cee57600080fd5b60016003811115610cfb57fe5b600160149054906101000a900460ff166003811115610d1657fe5b141515610d2257600080fd5b42600554101515610d3257600080fd5b6002600160146101000a81548160ff02191690836003811115610d5157fe5b02179055503373ffffffffffffffffffffffffffffffffffffffff166108fc3073ffffffffffffffffffffffffffffffffffffffff16319081150290604051600060405180830381858888f193505050501515610dad57600080fd5b565b60008060008060006003811115610dc257fe5b600160149054906101000a900460ff166003811115610ddd57fe5b141515610de957600080fd5b4260055410151515610dfa57600080fd5b60009250600091505b8551821015610ee65760076002018683815181101515610e1f57fe5b906020019060200201516040518082805190602001908083835b602083101515610e5e5780518252602082019150602081019050602083039250610e39565b6001836020036101000a038019825116818451168082178552505050505050905001915050908152602001604051809103902090508060020160009054906101000a900460ff1615610ed95760648583815181101515610eba57fe5b90602001906020020151826001015402811515610ed357fe5b04830192505b8180600101925050610e03565b8293505050509392505050565b60008060009054906101000a900473ffffffffffffffffffffffffffffffffffffffff16905090565b610f2461143f565b610f2c611453565b6000806000610f39611453565b6020604051805910610f485750595b9080825280601f01601f1916602001820160405250945060009350600092505b6020831015611026578260080260020a876001900402600102915060007f010000000000000000000000000000000000000000000000000000000000000002827effffffffffffffffffffffffffffffffffffffffffffffffffffffffffffff191614151561101957818585815181101515610fe057fe5b9060200101907effffffffffffffffffffffffffffffffffffffffffffffffffffffffffffff1916908160001a90535083806001019450505b8280600101935050610f68565b836040518059106110345750595b9080825280601f01601f19166020018201604052509050600092505b838310156110fc57848381518110151561106657fe5b9060200101517f010000000000000000000000000000000000000000000000000000000000000090047f01000000000000000000000000000000000000000000000000000000000000000281848151811015156110bf57fe5b9060200101907effffffffffffffffffffffffffffffffffffffffffffffffffffffffffffff1916908160001a9053508280600101935050611050565b8095505050505050919050565b600081670de0b6b3a76400008102341015151561112557600080fd5b600160009054906101000a900473ffffffffffffffffffffffffffffffffffffffff1673ffffffffffffffffffffffffffffffffffffffff163373ffffffffffffffffffffffffffffffffffffffff1614151561118157600080fd5b61118b8686610220565b915060008211151561119c57600080fd5b8234101515156111ab57600080fd5b8183101515156111ba57600080fd5b4284101515156111c957600080fd5b3460038190555084600681905550836004819055506111e785611366565b84016005819055506111f9868661129a565b6007600082015181600001556020820151816001015560408201518160030160006101000a81548160ff02191690831515021790555090505060018060146101000a81548160ff0219169083600381111561125057fe5b02179055507f8a1cce3c534ef82867c448ebe7381749026d5acd85bbff63d3579daaf406c781338760035460405161128a9392919061183e565b60405180910390a1505050505050565b6112a261139b565b600080600b60008681526020019081526020016000209150600090505b818054905081101561135d578382828154811015156112da57fe5b906000526020600020906004020160000154141561135057818181548110151561130057fe5b90600052602060002090600402016060604051908101604052908160008201548152602001600182015481526020016003820160009054906101000a900460ff161515151581525050925061135e565b80806001019150506112bf565b5b505092915050565b600080600080600080601e945060189350603c9250603c91506103e8905080828486888b020202020295505050505050919050565b60606040519081016040528060008152602001600081526020016000151581525090565b828054600181600116156101000203166002900490600052602060002090601f016020900481019282601f1061140057805160ff191683800117855561142e565b8280016001018555821561142e579182015b8281111561142d578251825591602001919060010190611412565b5b50905061143b9190611467565b5090565b602060405190810160405280600081525090565b602060405190810160405280600081525090565b61148991905b8082111561148557600081600090555060010161146d565b5090565b90565b600061149882356119c1565b905092915050565b600082601f83011215156114b357600080fd5b81356114c66114c1826118fa565b6118cd565b9150818183526020840193506020810190508360005b8381101561150c57813586016114f288826115af565b8452602084019350602083019250506001810190506114dc565b5050505092915050565b600082601f830112151561152957600080fd5b813561153c61153782611922565b6118cd565b9150818183526020840193506020810190508385602084028201111561156157600080fd5b60005b8381101561159157816115778882611605565b845260208401935060208301925050600181019050611564565b5050505092915050565b60006115a782356119e1565b905092915050565b600082601f83011215156115c257600080fd5b81356115d56115d08261194a565b6118cd565b915080825260208301602083018583830111156115f157600080fd5b6115fc838284611a07565b50505092915050565b600061161182356119eb565b905092915050565b60006020828403121561162b57600080fd5b60006116398482850161148c565b91505092915050565b60008060006060848603121561165757600080fd5b60006116658682870161148c565b935050602084013567ffffffffffffffff81111561168257600080fd5b61168e868287016114a0565b925050604084013567ffffffffffffffff8111156116ab57600080fd5b6116b786828701611516565b9150509250925092565b6000602082840312156116d357600080fd5b60006116e18482850161159b565b91505092915050565b600080604083850312156116fd57600080fd5b600061170b85828601611605565b925050602061171c85828601611605565b9150509250929050565b6000806000806080858703121561173c57600080fd5b600061174a87828801611605565b945050602061175b87828801611605565b935050604061176c87828801611605565b925050606061177d87828801611605565b91505092959194509250565b61179281611981565b82525050565b6117a1816119f5565b82525050565b60006117b282611976565b8084526117c6816020860160208601611a16565b6117cf81611a49565b602085010191505092915050565b6117e6816119b7565b82525050565b60006020820190506118016000830184611789565b92915050565b600060608201905061181c6000830186611789565b6118296020830185611789565b61183660408301846117dd565b949350505050565b60006060820190506118536000830186611789565b61186060208301856117dd565b61186d60408301846117dd565b949350505050565b600060208201905061188a6000830184611798565b92915050565b600060208201905081810360008301526118aa81846117a7565b905092915050565b60006020820190506118c760008301846117dd565b92915050565b6000604051905081810181811067ffffffffffffffff821117156118f057600080fd5b8060405250919050565b600067ffffffffffffffff82111561191157600080fd5b602082029050602081019050919050565b600067ffffffffffffffff82111561193957600080fd5b602082029050602081019050919050565b600067ffffffffffffffff82111561196157600080fd5b601f19601f8301169050602081019050919050565b600081519050919050565b600073ffffffffffffffffffffffffffffffffffffffff82169050919050565b60006004821015156119af57fe5b819050919050565b6000819050919050565b600073ffffffffffffffffffffffffffffffffffffffff82169050919050565b6000819050919050565b6000819050919050565b6000611a00826119a1565b9050919050565b82818337600083830152505050565b60005b83811015611a34578082015181840152602081019050611a19565b83811115611a43576000848401525b50505050565b6000601f19601f83011690509190505600a265627a7a72305820278e3ba15cf73d49414d5d0e7c5b4f22508d69ca329bdb20c71f84d195fba0786c6578706572696d656e74616cf50037",
  "source": "pragma solidity ^0.4.21;\r\npragma experimental ABIEncoderV2;\r\nimport \"./ContractCP.sol\";\r\n\r\n/**\r\n * This is contract between Insurer and Patient\r\n */\r\ncontract ContractPI {\r\n    \r\n   /**\r\n     * Status of Contract\r\n     * - NEW: when Patient deploy the contract\r\n     */\r\n    enum Status {NEW, VALID, EXPIRED, CANCELLED}\r\n    \r\n    struct Item {\r\n        string name;\r\n        uint percent;\r\n        bool isValid;\r\n    }\r\n    \r\n    struct Option {\r\n        uint period;\r\n        uint price;\r\n        mapping(string => Item) items;\r\n        bool isValid;\r\n    }\r\n    \r\n    struct ClaimRequest {\r\n        address requestedContract;\r\n        address patient;\r\n        bool paid;\r\n        uint amount;\r\n        bool isValid;\r\n    }\r\n    \r\n    address private _insurer;\r\n    address private _patient;\r\n    \r\n    Status public _status;\r\n    \r\n    string private _desc;\r\n    uint private _contractValue;\r\n    uint private _startDate;\r\n    uint private _endDate;\r\n    uint private _period;\r\n    \r\n    Option private _selectedOption;\r\n    mapping(uint => Option[]) _availableOptionsList;\r\n    mapping(address => ClaimRequest) _claimQueue;\r\n    \r\n    function ContractPI(address inInusrer, address inPatient) {\r\n        require(msg.sender == inPatient);\r\n        _insurer = inInusrer;\r\n        _patient = inPatient;\r\n        _status = Status.NEW;\r\n        \r\n        \r\n        // TODO\r\n        // Init _availableOptionsList as avaiable service packs at Insurer\r\n        // Pack 1: 6 month, {Head, Stomache, ..} 50 ETH\r\n        // Pack 2: ...\r\n    }\r\n    \r\n    function getOption(uint inPackId, uint inNumberOfMonths) internal returns (Option) {\r\n        Option[] optionsForPack = _availableOptionsList[inPackId];\r\n        for (uint i = 0; i < optionsForPack.length; i++) {\r\n            if(optionsForPack[i].period == inNumberOfMonths) {\r\n                return optionsForPack[i];\r\n            }\r\n        }\r\n    }\r\n    \r\n    function calculateContractValue(uint inPackId, uint inNumberOfMonths) returns (uint) {\r\n        Option memory matchedOption = getOption(inPackId, inNumberOfMonths);\r\n        if(matchedOption.isValid) {\r\n            return matchedOption.price;\r\n        }\r\n        return 0;\r\n    }\r\n    \r\n    function patientConfirm(uint inPackId, uint inNumberOfMonths, uint inStartDate, uint inContractValue) payable minimumAmount(inContractValue) {\r\n        require(msg.sender == _patient);\r\n        uint totalContractValue = calculateContractValue(inPackId, inNumberOfMonths);\r\n        require(totalContractValue > 0);\r\n        require(msg.value >= inContractValue);\r\n        require(inContractValue >= totalContractValue);\r\n        require(inStartDate >= now);\r\n        \r\n        _contractValue = msg.value;\r\n        _period = inNumberOfMonths;\r\n        _startDate = inStartDate;\r\n        _endDate = inStartDate + monthToMiliseconds(inNumberOfMonths);\r\n        _selectedOption = getOption(inPackId, inNumberOfMonths);\r\n        _status = Status.VALID;\r\n        \r\n        emit ContractSigned(msg.sender, inPackId, _contractValue);\r\n        \r\n    }\r\n    \r\n    function patientCancel() {\r\n        require(msg.sender == _patient);\r\n        require(_status == Status.NEW);\r\n        suicide(msg.sender);\r\n    }\r\n    \r\n    function getInsurer() returns(address) {\r\n        return _insurer;\r\n    }\r\n    \r\n    function calculateClaimAmount(address inPatient, string[] inCheckItems, uint[] inCheckPrices) returns (uint) {\r\n        require(_status == Status.NEW);\r\n        require(_endDate >= now);\r\n        uint sum = 0;\r\n        for(uint i = 0; i < inCheckItems.length; i++) {\r\n            Item matchedItem = _selectedOption.items[inCheckItems[i]];\r\n            if(matchedItem.isValid) {\r\n                sum += matchedItem.percent * inCheckPrices[i] / 100;\r\n            }\r\n        }\r\n        return sum;\r\n    }\r\n    \r\n    function requestForClaim(address inContractCP) returns (uint) {\r\n        require(_status == Status.VALID);\r\n        require(_endDate >= now);\r\n        \r\n        ContractCP cp = ContractCP(inContractCP);\r\n        require(cp.getPatient() == _patient);\r\n        require(_claimQueue[inContractCP].isValid == false);\r\n        \r\n        uint itemCount = cp.getItemCount();\r\n        string[] checkItems;\r\n        uint[] checkPrices;\r\n        for(uint i = 0; i < itemCount; i++) {\r\n            checkItems[i] = bytes32ToString(cp.getCheckItem(i));\r\n            checkPrices[i] = cp.getCheckPrice(i);\r\n        }\r\n        \r\n        uint totalAmount = calculateClaimAmount(cp.getPatient(), checkItems, checkPrices);\r\n        if(totalAmount > 0) {\r\n          _claimQueue[inContractCP] = ClaimRequest(inContractCP, _patient, false, totalAmount, true);\r\n          emit ClaimRequested(inContractCP, _patient, totalAmount);\r\n          return 0;\r\n        }\r\n        return 1;\r\n        \r\n    }\r\n    \r\n    function insurerAcceptClaim(address inContractCP) payable {\r\n        require(msg.sender == _insurer);\r\n        require(_status == Status.VALID);\r\n        ClaimRequest request = _claimQueue[inContractCP];\r\n        require(request.isValid);\r\n        require(request.paid == false);\r\n        require(msg.value >= request.amount);\r\n        ContractCP cp = ContractCP(inContractCP);\r\n        cp.receive.gas(300000).value(request.amount)(request.amount);\r\n        request.paid = true;\r\n        \r\n        emit AcceptClaim(inContractCP, _patient, request.amount);\r\n    }\r\n    \r\n    function requestForWithdraw() payable {\r\n        require(msg.sender == _insurer);\r\n        require(_status == Status.VALID);\r\n        require(_endDate < now);\r\n        _status = Status.EXPIRED;\r\n        msg.sender.transfer(this.balance);\r\n    }\r\n    \r\n    function monthToMiliseconds(uint inMonth) internal returns (uint) {\r\n        uint daysPerMonth = 30;\r\n        uint hoursPerDay = 24;\r\n        uint minsPerHour = 60;\r\n        uint secsPerMin = 60;\r\n        uint milisPerSec = 1000;\r\n        return inMonth * daysPerMonth * hoursPerDay * minsPerHour * secsPerMin * milisPerSec;\r\n    }\r\n    \r\n    \r\n    modifier minimumAmount(uint inEtherAmount) {\r\n        require (msg.value >= inEtherAmount * 1 ether);\r\n        _;\r\n    }\r\n    \r\n    event ContractSigned(address, uint, uint);\r\n    \r\n    event ClaimRequested(address, address, uint);\r\n    \r\n    event AcceptClaim(address, address, uint);\r\n    \r\n   /**\r\n     * Convert bytes32 to string\r\n     * @param x The bytes32 value\r\n     * @return string The resulting string from bytes32\r\n     */\r\n    function bytes32ToString(bytes32 x) constant returns (string) {\r\n        bytes memory bytesString = new bytes(32);\r\n        uint charCount = 0;\r\n        for (uint j = 0; j < 32; j++) {\r\n            byte char = byte(bytes32(uint(x) * 2 ** (8 * j)));\r\n            if (char != 0) {\r\n                bytesString[charCount] = char;\r\n                charCount++;\r\n            }\r\n        }\r\n        bytes memory bytesStringTrimmed = new bytes(charCount);\r\n        for (j = 0; j < charCount; j++) {\r\n            bytesStringTrimmed[j] = bytesString[j];\r\n        }\r\n        return string(bytesStringTrimmed);\r\n    }\r\n    \r\n    \r\n    \r\n    \r\n    \r\n    \r\n    \r\n    \r\n    \r\n    \r\n}",
  "sourcePath": "F:\\Data\\Blcokchain\\Project\\findclinic\\findclinic\\contracts\\ContractPI.sol",
  "compiler": {
    "name": "solc",
    "version": "0.4.21+commit.dfe3193c.Emscripten.clang"
  },
  "schemaVersion": "2.0.0",
  "updatedAt": "2018-04-16T17:37:17.457Z"
}