{
  "contractName": "ContractCP",
  "abi": [
    {
      "constant": true,
      "inputs": [],
      "name": "_status",
      "outputs": [
        {
          "name": "",
          "type": "uint8"
        }
      ],
      "payable": false,
      "stateMutability": "view",
      "type": "function"
    },
    {
      "inputs": [
        {
          "name": "inClinic",
          "type": "address"
        },
        {
          "name": "inPatient",
          "type": "address"
        },
        {
          "name": "inCheckItems",
          "type": "string[]"
        }
      ],
      "payable": false,
      "stateMutability": "nonpayable",
      "type": "constructor"
    },
    {
      "anonymous": false,
      "inputs": [
        {
          "indexed": false,
          "name": "",
          "type": "uint256"
        },
        {
          "indexed": false,
          "name": "",
          "type": "uint256"
        }
      ],
      "name": "InformTotalFee",
      "type": "event"
    },
    {
      "anonymous": false,
      "inputs": [
        {
          "indexed": false,
          "name": "",
          "type": "uint256"
        }
      ],
      "name": "PatientPaid",
      "type": "event"
    },
    {
      "anonymous": false,
      "inputs": [
        {
          "indexed": false,
          "name": "",
          "type": "uint256"
        }
      ],
      "name": "InsurerPaid",
      "type": "event"
    },
    {
      "anonymous": false,
      "inputs": [],
      "name": "ReadyToCheck",
      "type": "event"
    },
    {
      "constant": false,
      "inputs": [
        {
          "name": "inContractPI",
          "type": "address"
        }
      ],
      "name": "clinicAcceptPatient",
      "outputs": [],
      "payable": false,
      "stateMutability": "nonpayable",
      "type": "function"
    },
    {
      "constant": false,
      "inputs": [],
      "name": "calculateFee",
      "outputs": [
        {
          "name": "",
          "type": "uint256"
        },
        {
          "name": "",
          "type": "uint256"
        }
      ],
      "payable": false,
      "stateMutability": "nonpayable",
      "type": "function"
    },
    {
      "constant": false,
      "inputs": [],
      "name": "patientPay",
      "outputs": [],
      "payable": true,
      "stateMutability": "payable",
      "type": "function"
    },
    {
      "constant": false,
      "inputs": [],
      "name": "insurerPay",
      "outputs": [],
      "payable": true,
      "stateMutability": "payable",
      "type": "function"
    },
    {
      "constant": false,
      "inputs": [],
      "name": "checkForPay",
      "outputs": [],
      "payable": false,
      "stateMutability": "nonpayable",
      "type": "function"
    },
    {
      "constant": false,
      "inputs": [],
      "name": "patientConfirm",
      "outputs": [],
      "payable": true,
      "stateMutability": "payable",
      "type": "function"
    },
    {
      "constant": false,
      "inputs": [],
      "name": "patientCancel",
      "outputs": [],
      "payable": false,
      "stateMutability": "nonpayable",
      "type": "function"
    },
    {
      "constant": true,
      "inputs": [],
      "name": "getPatient",
      "outputs": [
        {
          "name": "",
          "type": "address"
        }
      ],
      "payable": false,
      "stateMutability": "view",
      "type": "function"
    },
    {
      "constant": true,
      "inputs": [
        {
          "name": "inIndex",
          "type": "uint256"
        }
      ],
      "name": "getCheckItem",
      "outputs": [
        {
          "name": "",
          "type": "bytes32"
        }
      ],
      "payable": false,
      "stateMutability": "view",
      "type": "function"
    },
    {
      "constant": true,
      "inputs": [
        {
          "name": "inIndex",
          "type": "uint256"
        }
      ],
      "name": "getCheckPrice",
      "outputs": [
        {
          "name": "",
          "type": "uint256"
        }
      ],
      "payable": false,
      "stateMutability": "view",
      "type": "function"
    },
    {
      "constant": true,
      "inputs": [],
      "name": "getItemCount",
      "outputs": [
        {
          "name": "",
          "type": "uint256"
        }
      ],
      "payable": false,
      "stateMutability": "view",
      "type": "function"
    },
    {
      "constant": false,
      "inputs": [
        {
          "name": "inAmount",
          "type": "uint256"
        }
      ],
      "name": "receive",
      "outputs": [],
      "payable": true,
      "stateMutability": "payable",
      "type": "function"
    },
    {
      "constant": false,
      "inputs": [
        {
          "name": "source",
          "type": "string"
        }
      ],
      "name": "stringToBytes32",
      "outputs": [
        {
          "name": "result",
          "type": "bytes32"
        }
      ],
      "payable": false,
      "stateMutability": "nonpayable",
      "type": "function"
    }
  ],
  "bytecode": "0x606060405234156200001057600080fd5b6040516200163038038062001630833981016040526200003a90678000000000000000906200046e565b600080600083511115156200004e57600080fd5b846000806101000a81548173ffffffffffffffffffffffffffffffffffffffff021916908373ffffffffffffffffffffffffffffffffffffffff16021790555083600160006101000a81548173ffffffffffffffffffffffffffffffffffffffff021916908373ffffffffffffffffffffffffffffffffffffffff1602179055506000600460006101000a81548160ff02191690836004811115620000ef57fe5b0217905550600091505b8251821015620002ba57600b83838151811015156200011457fe5b906020019060200201516040518082805190602001908083835b6020831015156200015557805182526020820191506020810190506020830392506200012e565b6001836020036101000a03801982511681845116808217855250505050505090500191505090815260200160405180910390209050600015158160020160009054906101000a900460ff1615151415620001ae57600080fd5b80600c8484815181101515620001c057fe5b906020019060200201516040518082805190602001908083835b602083101515620002015780518252602082019150602081019050602083039250620001da565b6001836020036101000a0380198251168184511680821785525050505050509050019150509081526020016040518091039020600082018160000190805460018160011615610100020316600290046200025d929190620002c5565b50600182015481600101556002820160009054906101000a900460ff168160020160006101000a81548160ff02191690831515021790555090505080600101546006600082825401925050819055508180600101925050620000f9565b5050505050620005b7565b828054600181600116156101000203166002900490600052602060002090601f016020900481019282601f1062000300578054855562000340565b828001600101855582156200034057600052602060002091601f016020900482015b828111156200033f57825482559160010191906001019062000322565b5b5090506200034f919062000353565b5090565b6200037891905b80821115620003745760008160009055506001016200035a565b5090565b90565b600062000389825162000561565b905092915050565b600082601f8301121515620003a557600080fd5b8151620003bc620003b6826200050b565b620004dd565b9150818183526020840193506020810190508360005b83811015620004065781518601620003eb888262000410565b845260208401935060208301925050600181019050620003d2565b5050505092915050565b600082601f83011215156200042457600080fd5b81516200043b620004358262000534565b620004dd565b915080825260208301602083018583830111156200045857600080fd5b6200046583828462000581565b50505092915050565b6000806000606084860312156200048457600080fd5b600062000494868287016200037b565b9350506020620004a7868287016200037b565b925050604084015167ffffffffffffffff811115620004c557600080fd5b620004d38682870162000391565b9150509250925092565b6000604051905081810181811067ffffffffffffffff821117156200050157600080fd5b8060405250919050565b600067ffffffffffffffff8211156200052357600080fd5b602082029050602081019050919050565b600067ffffffffffffffff8211156200054c57600080fd5b601f19601f8301169050602081019050919050565b600073ffffffffffffffffffffffffffffffffffffffff82169050919050565b60005b83811015620005a157808201518184015260208101905062000584565b83811115620005b1576000848401525b50505050565b61106980620005c76000396000f3006060604052600436106100d0576000357c0100000000000000000000000000000000000000000000000000000000900463ffffffff1680630f05f8ec146100d55780630fb3844c146100df5780631a7130fa146101085780631a9bf804146101125780637749cf23146101275780637b0f9a36146101505780639425a41f14610179578063a5adc27814610183578063a724390b146101b9578063bbb1d43a146101ce578063cba2534f146101f0578063ced51e1714610207578063cfb519281461023d578063e6af35f014610273575b600080fd5b6100dd61029d565b005b34156100ea57600080fd5b6100f26103cf565b6040516100ff9190610ed0565b60405180910390f35b6101106103e2565b005b341561011d57600080fd5b610125610593565b005b341561013257600080fd5b61013a61065f565b6040516101479190610eeb565b60405180910390f35b341561015b57600080fd5b61016361066c565b6040516101709190610e7f565b60405180910390f35b610181610696565b005b341561018e57600080fd5b6101a3600461019e903690610e0b565b6107c4565b6040516101b09190610e9a565b60405180910390f35b34156101c457600080fd5b6101cc610888565b005b34156101d957600080fd5b6101ee60046101e9903690610da1565b61095e565b005b6102056004610200903690610e0b565b610a55565b005b341561021257600080fd5b6102276004610222903690610e0b565b610a73565b6040516102349190610eeb565b60405180910390f35b341561024857600080fd5b61025d6004610258903690610dca565b610a97565b60405161026a9190610e9a565b60405180910390f35b341561027e57600080fd5b610286610ac8565b604051610294929190610f06565b60405180910390f35b600160009054906101000a900473ffffffffffffffffffffffffffffffffffffffff1673ffffffffffffffffffffffffffffffffffffffff163373ffffffffffffffffffffffffffffffffffffffff161415156102f957600080fd5b6001600481111561030657fe5b600460009054906101000a900460ff16600481111561032157fe5b14151561032d57600080fd5b600060085411151561033e57600080fd5b60001515600760149054906101000a900460ff16151514151561036057600080fd5b600854341015151561037157600080fd5b6001600760146101000a81548160ff0219169083151502179055507f264ec5a5e75174de18676d5eddf10ee3a72809b018b55e793335e489f3c52a466008546040516103bd9190610eeb565b60405180910390a16103cd610888565b565b600460009054906101000a900460ff1681565b6000600160048111156103f157fe5b600460009054906101000a900460ff16600481111561040c57fe5b14151561041857600080fd5b6000600a5411151561042957600080fd5b60001515600960009054906101000a900460ff16151514151561044b57600080fd5b600760009054906101000a900473ffffffffffffffffffffffffffffffffffffffff1690508073ffffffffffffffffffffffffffffffffffffffff16635d0c14766040518163ffffffff167c0100000000000000000000000000000000000000000000000000000000028152600401602060405180830381600087803b15156104d357600080fd5b5af115156104e057600080fd5b5050506040518051905073ffffffffffffffffffffffffffffffffffffffff163373ffffffffffffffffffffffffffffffffffffffff1614151561052357600080fd5b600a54341015151561053457600080fd5b6001600960006101000a81548160ff0219169083151502179055507fbb9156848db4eba42489ab5289a87bdedb524516d1a00aca8f80254ca8fab1606008546040516105809190610eeb565b60405180910390a1610590610888565b50565b600160009054906101000a900473ffffffffffffffffffffffffffffffffffffffff1673ffffffffffffffffffffffffffffffffffffffff163373ffffffffffffffffffffffffffffffffffffffff161415156105ef57600080fd5b600060048111156105fc57fe5b600460009054906101000a900460ff16600481111561061757fe5b14151561062357600080fd5b60048060006101000a81548160ff0219169083600481111561064157fe5b02179055503373ffffffffffffffffffffffffffffffffffffffff16ff5b6000600280549050905090565b6000600160009054906101000a900473ffffffffffffffffffffffffffffffffffffffff16905090565b600160009054906101000a900473ffffffffffffffffffffffffffffffffffffffff1673ffffffffffffffffffffffffffffffffffffffff163373ffffffffffffffffffffffffffffffffffffffff161415156106f257600080fd5b600260048111156106ff57fe5b600460009054906101000a900460ff16600481111561071a57fe5b14151561072657600080fd5b6000809054906101000a900473ffffffffffffffffffffffffffffffffffffffff1673ffffffffffffffffffffffffffffffffffffffff166108fc3073ffffffffffffffffffffffffffffffffffffffff16319081150290604051600060405180830381858888f19350505050151561079e57600080fd5b6003600460006101000a81548160ff021916908360048111156107bd57fe5b0217905550565b60006108816002838154811015156107d857fe5b90600052602060002090018054600181600116156101000203166002900480601f0160208091040260200160405190810160405280929190818152602001828054600181600116156101000203166002900480156108775780601f1061084c57610100808354040283529160200191610877565b820191906000526020600020905b81548152906001019060200180831161085a57829003601f168201915b5050505050610a97565b9050919050565b6001600481111561089557fe5b600460009054906101000a900460ff1660048111156108b057fe5b1415156108bc57600080fd5b6000600a5414806108d95750600960009054906101000a900460ff165b15156108e457600080fd5b600060085414806109015750600760149054906101000a900460ff165b151561090c57600080fd5b6002600460006101000a81548160ff0219169083600481111561092b57fe5b02179055507fd21fe0e7e6104dd7a16dae7ee3840a34e216bef186aacce48991c731271b7e2f60405160405180910390a1565b6000809054906101000a900473ffffffffffffffffffffffffffffffffffffffff1673ffffffffffffffffffffffffffffffffffffffff163373ffffffffffffffffffffffffffffffffffffffff161415156109b957600080fd5b600060048111156109c657fe5b600460009054906101000a900460ff1660048111156109e157fe5b1415156109ed57600080fd5b80600760006101000a81548173ffffffffffffffffffffffffffffffffffffffff021916908373ffffffffffffffffffffffffffffffffffffffff1602179055506001600460006101000a81548160ff02191690836004811115610a4d57fe5b021790555050565b80670de0b6b3a764000081023410151515610a6f57600080fd5b5050565b6000600382815481101515610a8457fe5b9060005260206000209001549050919050565b6000610aa1610d0f565b829050600081511415610aba5760006001029150610ac2565b602083015191505b50919050565b6000806000806000809054906101000a900473ffffffffffffffffffffffffffffffffffffffff1673ffffffffffffffffffffffffffffffffffffffff163373ffffffffffffffffffffffffffffffffffffffff16141515610b2957600080fd5b60016004811115610b3657fe5b600460009054906101000a900460ff166004811115610b5157fe5b141515610b5d57600080fd5b600760009054906101000a900473ffffffffffffffffffffffffffffffffffffffff1691508173ffffffffffffffffffffffffffffffffffffffff166323bb2e92306040518263ffffffff167c0100000000000000000000000000000000000000000000000000000000028152600401610bd79190610eb5565b602060405180830381600087803b1515610bf057600080fd5b5af11515610bfd57600080fd5b50505060405180519050816000815481101515610c1657fe5b906000526020600020900181905550806000815481101515610c3457fe5b90600052602060002090015460065403816001815481101515610c5357fe5b9060005260206000209001819055507ffde0443d61488fe9f4cf506334711e584adaf98ab54983ad7b658ef41a329368816000815481101515610c9257fe5b906000526020600020900154826001815481101515610cad57fe5b906000526020600020900154604051610cc7929190610f06565b60405180910390a1806000815481101515610cde57fe5b906000526020600020900154816001815481101515610cf957fe5b9060005260206000209001549350935050509091565b602060405190810160405280600081525090565b6000610d2f8235610fd2565b905092915050565b600082601f8301121515610d4a57600080fd5b8135610d5d610d5882610f5c565b610f2f565b91508082526020830160208301858383011115610d7957600080fd5b610d84838284611020565b50505092915050565b6000610d998235610ff2565b905092915050565b600060208284031215610db357600080fd5b6000610dc184828501610d23565b91505092915050565b600060208284031215610ddc57600080fd5b600082013567ffffffffffffffff811115610df657600080fd5b610e0284828501610d37565b91505092915050565b600060208284031215610e1d57600080fd5b6000610e2b84828501610d8d565b91505092915050565b610e3d81610f88565b82525050565b610e4c81610fa8565b82525050565b610e5b81610ffc565b82525050565b610e6a8161100e565b82525050565b610e7981610fc8565b82525050565b6000602082019050610e946000830184610e34565b92915050565b6000602082019050610eaf6000830184610e43565b92915050565b6000602082019050610eca6000830184610e52565b92915050565b6000602082019050610ee56000830184610e61565b92915050565b6000602082019050610f006000830184610e70565b92915050565b6000604082019050610f1b6000830185610e70565b610f286020830184610e70565b9392505050565b6000604051905081810181811067ffffffffffffffff82111715610f5257600080fd5b8060405250919050565b600067ffffffffffffffff821115610f7357600080fd5b601f19601f8301169050602081019050919050565b600073ffffffffffffffffffffffffffffffffffffffff82169050919050565b6000819050919050565b6000600582101515610fc057fe5b819050919050565b6000819050919050565b600073ffffffffffffffffffffffffffffffffffffffff82169050919050565b6000819050919050565b600061100782610f88565b9050919050565b600061101982610fb2565b9050919050565b828183376000838301525050505600a265627a7a723058200266b0e09c75a817720f491c933ac401d3ff1154a08e47e43232dd153f593c966c6578706572696d656e74616cf50037",
  "source": "pragma solidity ^0.4.21;\r\npragma experimental ABIEncoderV2;\r\nimport \"./ContractPI.sol\";\r\n\r\n\r\ncontract ContractCP {\r\n    \r\n    enum Status {NEW, WAITING_FOR_PAID, CHECKING, DONE, CANCELLED}\r\n    \r\n    struct Item {\r\n        string name;\r\n        uint price;\r\n        bool isValid;\r\n    }\r\n    \r\n    address private _clinic;\r\n    address private _patient;\r\n    string[] private _checkItems;\r\n    uint[] private _checkPrices;\r\n    Status public _status;\r\n    string private _desc;\r\n    uint private _totalFee;\r\n    \r\n    address private _contractPI;\r\n    bool private _patientPaid;\r\n    uint private _patientPaidAmount;\r\n    bool private _insurerPaid;\r\n    uint private _insurerPaidAmount;\r\n    \r\n    mapping(string => Item) _availableItems;\r\n    mapping(string => Item) _selectedItem;\r\n    \r\n    function ContractCP(address inClinic, address inPatient, string[] inCheckItems) {\r\n        require(inCheckItems.length > 0);\r\n        _clinic = inClinic;\r\n        _patient = inPatient;\r\n        _status = Status.NEW;\r\n        \r\n        // TODO\r\n        // Init _availableItems as available services at Clinic\r\n        // Stomache, General, Blood, Head, Heart?\r\n        \r\n        for(uint i = 0; i < inCheckItems.length; i++) {\r\n            Item foundItem = _availableItems[inCheckItems[i]];\r\n            if(foundItem.isValid == false) {\r\n                throw;\r\n            }\r\n            _selectedItem[inCheckItems[i]] = foundItem;\r\n            _totalFee += foundItem.price;\r\n        }\r\n    }\r\n    \r\n    function clinicAcceptPatient(address inContractPI) {\r\n        require(msg.sender == _clinic);\r\n        require(_status == Status.NEW);\r\n        _contractPI = inContractPI;\r\n        _status = Status.WAITING_FOR_PAID;\r\n    }\r\n    \r\n    function calculateFee() returns (uint, uint) {\r\n        require(msg.sender == _clinic);\r\n        require(_status == Status.WAITING_FOR_PAID);\r\n        ContractPI pi = ContractPI(_contractPI);\r\n        uint[] pays;\r\n        pays[0] = pi.requestForClaim(this);\r\n        pays[1] = _totalFee - pays[0];\r\n        \r\n        emit InformTotalFee(pays[0], pays[1]);\r\n        \r\n        return (pays[0], pays[1]);\r\n    }\r\n    \r\n    function patientPay() payable {\r\n        require(msg.sender == _patient);\r\n        require(_status == Status.WAITING_FOR_PAID);\r\n        require(_patientPaidAmount > 0);\r\n        require(_patientPaid == false);\r\n        require(msg.value >= _patientPaidAmount);\r\n        _patientPaid = true;\r\n        emit PatientPaid(_patientPaidAmount);\r\n        \r\n        checkForPay();\r\n    }\r\n    \r\n    function insurerPay() payable {\r\n        require(_status == Status.WAITING_FOR_PAID);\r\n        require(_insurerPaidAmount > 0);\r\n        require(_insurerPaid == false);\r\n        ContractPI pi = ContractPI(_contractPI);\r\n        require(msg.sender == pi.getInsurer());\r\n        require(msg.value >= _insurerPaidAmount);\r\n        _insurerPaid = true;\r\n        emit InsurerPaid(_patientPaidAmount);\r\n        \r\n        checkForPay();\r\n    }\r\n    \r\n    function checkForPay() {\r\n        require(_status == Status.WAITING_FOR_PAID);\r\n        require(_insurerPaidAmount == 0 || _insurerPaid);\r\n        require(_patientPaidAmount == 0 || _patientPaid);\r\n        _status = Status.CHECKING;\r\n        emit ReadyToCheck();\r\n    }\r\n    \r\n    function patientConfirm() payable {\r\n        require(msg.sender == _patient);\r\n        require(_status == Status.CHECKING);\r\n        _clinic.transfer(this.balance);\r\n        _status = Status.DONE;\r\n    }\r\n    \r\n    function patientCancel() {\r\n        require(msg.sender == _patient);\r\n        require(_status == Status.NEW);\r\n        _status = Status.CANCELLED;\r\n        suicide(msg.sender);\r\n    }\r\n    \r\n    function getPatient() view external returns (address) {\r\n        return _patient;\r\n    }\r\n    \r\n    function getCheckItem(uint inIndex) view external returns (bytes32) {\r\n        return stringToBytes32(_checkItems[inIndex]);\r\n    }\r\n    \r\n    function getCheckPrice(uint inIndex) view external returns (uint) {\r\n        return _checkPrices[inIndex];\r\n    }\r\n    \r\n    function getItemCount() view external returns (uint) {\r\n        return _checkItems.length;\r\n    }\r\n    \r\n    function receive(uint inAmount) payable minimumAmount(inAmount) {\r\n        \r\n    }\r\n    \r\n    modifier minimumAmount(uint inEtherAmount) {\r\n        require (msg.value >= inEtherAmount * 1 ether);\r\n        _;\r\n    }\r\n    \r\n    event InformTotalFee(uint, uint);\r\n    \r\n    event PatientPaid(uint);\r\n    \r\n    event InsurerPaid(uint);\r\n    \r\n    event ReadyToCheck();\r\n    \r\n    function stringToBytes32(string memory source) returns (bytes32 result) {\r\n        bytes memory tempEmptyStringTest = bytes(source);\r\n        if (tempEmptyStringTest.length == 0) {\r\n            return 0x0;\r\n        }\r\n    \r\n        assembly {\r\n            result := mload(add(source, 32))\r\n        }\r\n    }\r\n    \r\n}",
  "sourcePath": "F:\\Data\\Blcokchain\\Project\\findclinic\\findclinic\\contracts\\ContractCP.sol",
  "compiler": {
    "name": "solc",
    "version": "0.4.21+commit.dfe3193c.Emscripten.clang"
  },
  "schemaVersion": "2.0.0",
  "updatedAt": "2018-04-16T17:37:17.472Z"
}