{
  "contractName": "ContractPI",
  "abi": [
    {
      "constant": true,
      "inputs": [],
      "name": "_status",
      "outputs": [
        {
          "name": "",
          "type": "uint8"
        }
      ],
      "payable": false,
      "stateMutability": "view",
      "type": "function"
    },
    {
      "inputs": [
        {
          "name": "inInusrer",
          "type": "address"
        },
        {
          "name": "inPatient",
          "type": "address"
        }
      ],
      "payable": false,
      "stateMutability": "nonpayable",
      "type": "constructor"
    },
    {
      "anonymous": false,
      "inputs": [
        {
          "indexed": false,
          "name": "",
          "type": "address"
        },
        {
          "indexed": false,
          "name": "",
          "type": "uint256"
        },
        {
          "indexed": false,
          "name": "",
          "type": "uint256"
        }
      ],
      "name": "ContractSigned",
      "type": "event"
    },
    {
      "anonymous": false,
      "inputs": [
        {
          "indexed": false,
          "name": "",
          "type": "address"
        },
        {
          "indexed": false,
          "name": "",
          "type": "address"
        },
        {
          "indexed": false,
          "name": "",
          "type": "uint256"
        }
      ],
      "name": "ClaimRequested",
      "type": "event"
    },
    {
      "anonymous": false,
      "inputs": [
        {
          "indexed": false,
          "name": "",
          "type": "address"
        },
        {
          "indexed": false,
          "name": "",
          "type": "address"
        },
        {
          "indexed": false,
          "name": "",
          "type": "uint256"
        }
      ],
      "name": "AcceptClaim",
      "type": "event"
    },
    {
      "constant": false,
      "inputs": [
        {
          "name": "inPackId",
          "type": "uint256"
        },
        {
          "name": "inNumberOfMonths",
          "type": "uint256"
        }
      ],
      "name": "calculateContractValue",
      "outputs": [
        {
          "name": "",
          "type": "uint256"
        }
      ],
      "payable": false,
      "stateMutability": "nonpayable",
      "type": "function"
    },
    {
      "constant": false,
      "inputs": [
        {
          "name": "inPackId",
          "type": "uint256"
        },
        {
          "name": "inNumberOfMonths",
          "type": "uint256"
        },
        {
          "name": "inStartDate",
          "type": "uint256"
        },
        {
          "name": "inContractValue",
          "type": "uint256"
        }
      ],
      "name": "patientConfirm",
      "outputs": [],
      "payable": true,
      "stateMutability": "payable",
      "type": "function"
    },
    {
      "constant": false,
      "inputs": [],
      "name": "patientCancel",
      "outputs": [],
      "payable": false,
      "stateMutability": "nonpayable",
      "type": "function"
    },
    {
      "constant": false,
      "inputs": [],
      "name": "getInsurer",
      "outputs": [
        {
          "name": "",
          "type": "address"
        }
      ],
      "payable": false,
      "stateMutability": "nonpayable",
      "type": "function"
    },
    {
      "constant": false,
      "inputs": [
        {
          "name": "inPatient",
          "type": "address"
        },
        {
          "name": "inCheckItems",
          "type": "uint256[]"
        },
        {
          "name": "inCheckPrices",
          "type": "uint256[]"
        }
      ],
      "name": "calculateClaimAmount",
      "outputs": [
        {
          "name": "",
          "type": "uint256"
        }
      ],
      "payable": false,
      "stateMutability": "nonpayable",
      "type": "function"
    },
    {
      "constant": false,
      "inputs": [
        {
          "name": "inContractCP",
          "type": "address"
        }
      ],
      "name": "requestForClaim",
      "outputs": [
        {
          "name": "",
          "type": "uint256"
        }
      ],
      "payable": false,
      "stateMutability": "nonpayable",
      "type": "function"
    },
    {
      "constant": false,
      "inputs": [
        {
          "name": "inContractCP",
          "type": "address"
        }
      ],
      "name": "insurerAcceptClaim",
      "outputs": [],
      "payable": true,
      "stateMutability": "payable",
      "type": "function"
    },
    {
      "constant": false,
      "inputs": [],
      "name": "requestForWithdraw",
      "outputs": [],
      "payable": true,
      "stateMutability": "payable",
      "type": "function"
    },
    {
      "constant": true,
      "inputs": [
        {
          "name": "x",
          "type": "bytes32"
        }
      ],
      "name": "bytes32ToString",
      "outputs": [
        {
          "name": "",
          "type": "string"
        }
      ],
      "payable": false,
      "stateMutability": "view",
      "type": "function"
    }
  ],
  "bytecode": "0x6060604052341561000f57600080fd5b6040516040806116c4833981016040528080519060200190919080519060200190919050508073ffffffffffffffffffffffffffffffffffffffff163373ffffffffffffffffffffffffffffffffffffffff1614151561006e57600080fd5b816000806101000a81548173ffffffffffffffffffffffffffffffffffffffff021916908373ffffffffffffffffffffffffffffffffffffffff16021790555080600160006101000a81548173ffffffffffffffffffffffffffffffffffffffff021916908373ffffffffffffffffffffffffffffffffffffffff1602179055506000600160146101000a81548160ff0219169083600381111561010e57fe5b021790555050506115a0806101246000396000f3006060604052600436106100a4576000357c0100000000000000000000000000000000000000000000000000000000900463ffffffff1680630cc86d3d146100a95780630fb3844c146100e95780631a9bf8041461012057806322edc9791461013557806323bb2e921461016357806346048144146101b05780635d0c1476146101ba5780639201de551461020f578063ceff1146146102af578063f41c8a0c146102e2575b600080fd5b34156100b457600080fd5b6100d360048080359060200190919080359060200190919050506103af565b6040518082815260200191505060405180910390f35b34156100f457600080fd5b6100fc6103e7565b6040518082600381111561010c57fe5b60ff16815260200191505060405180910390f35b341561012b57600080fd5b6101336103fa565b005b610161600480803573ffffffffffffffffffffffffffffffffffffffff169060200190919050506104a3565b005b341561016e57600080fd5b61019a600480803573ffffffffffffffffffffffffffffffffffffffff1690602001909190505061073f565b6040518082815260200191505060405180910390f35b6101b8610e40565b005b34156101c557600080fd5b6101cd610f5c565b604051808273ffffffffffffffffffffffffffffffffffffffff1673ffffffffffffffffffffffffffffffffffffffff16815260200191505060405180910390f35b341561021a57600080fd5b610234600480803560001916906020019091905050610f85565b6040518080602001828103825283818151815260200191508051906020019080838360005b83811015610274578082015181840152602081019050610259565b50505050905090810190601f1680156102a15780820380516001836020036101000a031916815260200191505b509250505060405180910390f35b6102e06004808035906020019091908035906020019091908035906020019091908035906020019091905050611172565b005b34156102ed57600080fd5b610399600480803573ffffffffffffffffffffffffffffffffffffffff16906020019091908035906020019082018035906020019080806020026020016040519081016040528093929190818152602001838360200280828437820191505050505050919080359060200190820180359060200190808060200260200160405190810160405280939291908181526020018383602002808284378201915050505050509190505061133b565b6040518082815260200191505060405180910390f35b60006103b9611528565b6103c38484611427565b90508060400151156103db57806020015191506103e0565b600091505b5092915050565b600160149054906101000a900460ff1681565b600160009054906101000a900473ffffffffffffffffffffffffffffffffffffffff1673ffffffffffffffffffffffffffffffffffffffff163373ffffffffffffffffffffffffffffffffffffffff1614151561045657600080fd5b6000600381111561046357fe5b600160149054906101000a900460ff16600381111561047e57fe5b14151561048a57600080fd5b3373ffffffffffffffffffffffffffffffffffffffff16ff5b6000806000809054906101000a900473ffffffffffffffffffffffffffffffffffffffff1673ffffffffffffffffffffffffffffffffffffffff163373ffffffffffffffffffffffffffffffffffffffff1614151561050157600080fd5b6001600381111561050e57fe5b600160149054906101000a900460ff16600381111561052957fe5b14151561053557600080fd5b600c60008473ffffffffffffffffffffffffffffffffffffffff1673ffffffffffffffffffffffffffffffffffffffff16815260200190815260200160002091508160030160009054906101000a900460ff16151561059357600080fd5b600015158260010160149054906101000a900460ff1615151415156105b757600080fd5b816002015434101515156105ca57600080fd5b8290508073ffffffffffffffffffffffffffffffffffffffff1663cba2534f620493e0846002015485600201546040518463ffffffff167c0100000000000000000000000000000000000000000000000000000000028152600401808281526020019150506000604051808303818589803b151561064757600080fd5b88f1151561065457600080fd5b505050505060018260010160146101000a81548160ff0219169083151502179055507ee0370db339f2678ab2fd274bb678633e18f0a739aedf0050ed1e449d4f598383600160009054906101000a900473ffffffffffffffffffffffffffffffffffffffff168460020154604051808473ffffffffffffffffffffffffffffffffffffffff1673ffffffffffffffffffffffffffffffffffffffff1681526020018373ffffffffffffffffffffffffffffffffffffffff1673ffffffffffffffffffffffffffffffffffffffff168152602001828152602001935050505060405180910390a1505050565b60008060008060008060006001600381111561075757fe5b600160149054906101000a900460ff16600381111561077257fe5b14151561077e57600080fd5b426005541015151561078f57600080fd5b879550600160009054906101000a900473ffffffffffffffffffffffffffffffffffffffff1673ffffffffffffffffffffffffffffffffffffffff168673ffffffffffffffffffffffffffffffffffffffff16637b0f9a366040518163ffffffff167c0100000000000000000000000000000000000000000000000000000000028152600401602060405180830381600087803b151561082e57600080fd5b5af1151561083b57600080fd5b5050506040518051905073ffffffffffffffffffffffffffffffffffffffff1614151561086757600080fd5b60001515600c60008a73ffffffffffffffffffffffffffffffffffffffff1673ffffffffffffffffffffffffffffffffffffffff16815260200190815260200160002060030160009054906101000a900460ff1615151415156108c957600080fd5b8573ffffffffffffffffffffffffffffffffffffffff16637749cf236040518163ffffffff167c0100000000000000000000000000000000000000000000000000000000028152600401602060405180830381600087803b151561092c57600080fd5b5af1151561093957600080fd5b505050604051805190509450600091505b84821015610aa3578573ffffffffffffffffffffffffffffffffffffffff1663a5adc278836040518263ffffffff167c010000000000000000000000000000000000000000000000000000000002815260040180828152602001915050602060405180830381600087803b15156109c057600080fd5b5af115156109cd57600080fd5b5050506040518051905084838154811015156109e557fe5b9060005260206000209001819055508573ffffffffffffffffffffffffffffffffffffffff1663ced51e17836040518263ffffffff167c010000000000000000000000000000000000000000000000000000000002815260040180828152602001915050602060405180830381600087803b1515610a6257600080fd5b5af11515610a6f57600080fd5b505050604051805190508383815481101515610a8757fe5b906000526020600020900181905550818060010192505061094a565b610bc58673ffffffffffffffffffffffffffffffffffffffff16637b0f9a366040518163ffffffff167c0100000000000000000000000000000000000000000000000000000000028152600401602060405180830381600087803b1515610b0957600080fd5b5af11515610b1657600080fd5b5050506040518051905085805480602002602001604051908101604052809291908181526020018280548015610b6b57602002820191906000526020600020905b815481526020019060010190808311610b57575b505050505085805480602002602001604051908101604052809291908181526020018280548015610bbb57602002820191906000526020600020905b815481526020019060010190808311610ba7575b505050505061133b565b90506000811115610e305760a0604051908101604052808973ffffffffffffffffffffffffffffffffffffffff168152602001600160009054906101000a900473ffffffffffffffffffffffffffffffffffffffff1673ffffffffffffffffffffffffffffffffffffffff16815260200160001515815260200182815260200160011515815250600c60008a73ffffffffffffffffffffffffffffffffffffffff1673ffffffffffffffffffffffffffffffffffffffff16815260200190815260200160002060008201518160000160006101000a81548173ffffffffffffffffffffffffffffffffffffffff021916908373ffffffffffffffffffffffffffffffffffffffff16021790555060208201518160010160006101000a81548173ffffffffffffffffffffffffffffffffffffffff021916908373ffffffffffffffffffffffffffffffffffffffff16021790555060408201518160010160146101000a81548160ff0219169083151502179055506060820151816002015560808201518160030160006101000a81548160ff0219169083151502179055509050507f4937cce2b75e8534dd1b00c796a7527bad00a7993dfb8232adeef9166906da0d88600160009054906101000a900473ffffffffffffffffffffffffffffffffffffffff1683604051808473ffffffffffffffffffffffffffffffffffffffff1673ffffffffffffffffffffffffffffffffffffffff1681526020018373ffffffffffffffffffffffffffffffffffffffff1673ffffffffffffffffffffffffffffffffffffffff168152602001828152602001935050505060405180910390a160009650610e35565b600196505b505050505050919050565b6000809054906101000a900473ffffffffffffffffffffffffffffffffffffffff1673ffffffffffffffffffffffffffffffffffffffff163373ffffffffffffffffffffffffffffffffffffffff16141515610e9b57600080fd5b60016003811115610ea857fe5b600160149054906101000a900460ff166003811115610ec357fe5b141515610ecf57600080fd5b42600554101515610edf57600080fd5b6002600160146101000a81548160ff02191690836003811115610efe57fe5b02179055503373ffffffffffffffffffffffffffffffffffffffff166108fc3073ffffffffffffffffffffffffffffffffffffffff16319081150290604051600060405180830381858888f193505050501515610f5a57600080fd5b565b60008060009054906101000a900473ffffffffffffffffffffffffffffffffffffffff16905090565b610f8d61154c565b610f95611560565b6000806000610fa2611560565b6020604051805910610fb15750595b9080825280601f01601f1916602001820160405250945060009350600092505b602083101561108f578260080260020a876001900402600102915060007f010000000000000000000000000000000000000000000000000000000000000002827effffffffffffffffffffffffffffffffffffffffffffffffffffffffffffff19161415156110825781858581518110151561104957fe5b9060200101907effffffffffffffffffffffffffffffffffffffffffffffffffffffffffffff1916908160001a90535083806001019450505b8280600101935050610fd1565b8360405180591061109d5750595b9080825280601f01601f19166020018201604052509050600092505b838310156111655784838151811015156110cf57fe5b9060200101517f010000000000000000000000000000000000000000000000000000000000000090047f010000000000000000000000000000000000000000000000000000000000000002818481518110151561112857fe5b9060200101907effffffffffffffffffffffffffffffffffffffffffffffffffffffffffffff1916908160001a90535082806001019350506110b9565b8095505050505050919050565b600081670de0b6b3a76400008102341015151561118e57600080fd5b600160009054906101000a900473ffffffffffffffffffffffffffffffffffffffff1673ffffffffffffffffffffffffffffffffffffffff163373ffffffffffffffffffffffffffffffffffffffff161415156111ea57600080fd5b6111f486866103af565b915060008211151561120557600080fd5b82341015151561121457600080fd5b81831015151561122357600080fd5b42841015151561123257600080fd5b346003819055508460068190555083600481905550611250856114f3565b84016005819055506112628686611427565b6007600082015181600001556020820151816001015560408201518160030160006101000a81548160ff02191690831515021790555090505060018060146101000a81548160ff021916908360038111156112b957fe5b02179055507f8a1cce3c534ef82867c448ebe7381749026d5acd85bbff63d3579daaf406c7813387600354604051808473ffffffffffffffffffffffffffffffffffffffff1673ffffffffffffffffffffffffffffffffffffffff168152602001838152602001828152602001935050505060405180910390a1505050505050565b6000806000806000600381111561134e57fe5b600160149054906101000a900460ff16600381111561136957fe5b14151561137557600080fd5b426005541015151561138657600080fd5b60009250600091505b855182101561141a576007600201600087848151811015156113ad57fe5b90602001906020020151815260200190815260200160002090508060020160009054906101000a900460ff161561140d57606485838151811015156113ee57fe5b9060200190602002015182600101540281151561140757fe5b04830192505b818060010192505061138f565b8293505050509392505050565b61142f611528565b600080600b60008681526020019081526020016000209150600090505b81805490508110156114ea5783828281548110151561146757fe5b90600052602060002090600402016000015414156114dd57818181548110151561148d57fe5b90600052602060002090600402016060604051908101604052908160008201548152602001600182015481526020016003820160009054906101000a900460ff16151515158152505092506114eb565b808060010191505061144c565b5b505092915050565b600080600080600080601e945060189350603c9250603c91506103e8905080828486888b020202020295505050505050919050565b60606040519081016040528060008152602001600081526020016000151581525090565b602060405190810160405280600081525090565b6020604051908101604052806000815250905600a165627a7a72305820d2b15d279f9006caa2df5b4c6ff7a996bfcd2e083bfaa383a67124229cbaeabe0029",
  "source": "pragma solidity ^0.4.21;\r\n//pragma experimental ABIEncoderV2;\r\nimport \"./ContractCP.sol\";\r\n\r\n/**\r\n * This is contract between Insurer and Patient\r\n */\r\ncontract ContractPI {\r\n    \r\n   /**\r\n     * Status of Contract\r\n     * - NEW: when Patient deploy the contract\r\n     */\r\n    enum Status {NEW, VALID, EXPIRED, CANCELLED}\r\n    \r\n    struct Item {\r\n        string name;\r\n        uint percent;\r\n        bool isValid;\r\n    }\r\n    \r\n    struct Option {\r\n        uint period;\r\n        uint price;\r\n        mapping(uint => Item) items;\r\n        bool isValid;\r\n    }\r\n    \r\n    struct ClaimRequest {\r\n        address requestedContract;\r\n        address patient;\r\n        bool paid;\r\n        uint amount;\r\n        bool isValid;\r\n    }\r\n    \r\n    address private _insurer;\r\n    address private _patient;\r\n    \r\n    Status public _status;\r\n    \r\n    string private _desc;\r\n    uint private _contractValue;\r\n    uint private _startDate;\r\n    uint private _endDate;\r\n    uint private _period;\r\n    \r\n    Option private _selectedOption;\r\n    mapping(uint => Option[]) _availableOptionsList;\r\n    mapping(address => ClaimRequest) _claimQueue;\r\n    \r\n    function ContractPI(address inInusrer, address inPatient) {\r\n        require(msg.sender == inPatient);\r\n        _insurer = inInusrer;\r\n        _patient = inPatient;\r\n        _status = Status.NEW;\r\n        \r\n        \r\n        // TODO\r\n        // Init _availableOptionsList as avaiable service packs at Insurer\r\n        // Pack 1: 6 month, {Head, Stomache, ..} 50 ETH\r\n        // Pack 2: ...\r\n    }\r\n    \r\n    function getOption(uint inPackId, uint inNumberOfMonths) internal returns (Option) {\r\n        Option[] optionsForPack = _availableOptionsList[inPackId];\r\n        for (uint i = 0; i < optionsForPack.length; i++) {\r\n            if(optionsForPack[i].period == inNumberOfMonths) {\r\n                return optionsForPack[i];\r\n            }\r\n        }\r\n    }\r\n    \r\n    function calculateContractValue(uint inPackId, uint inNumberOfMonths) returns (uint) {\r\n        Option memory matchedOption = getOption(inPackId, inNumberOfMonths);\r\n        if(matchedOption.isValid) {\r\n            return matchedOption.price;\r\n        }\r\n        return 0;\r\n    }\r\n    \r\n    function patientConfirm(uint inPackId, uint inNumberOfMonths, uint inStartDate, uint inContractValue) payable minimumAmount(inContractValue) {\r\n        require(msg.sender == _patient);\r\n        uint totalContractValue = calculateContractValue(inPackId, inNumberOfMonths);\r\n        require(totalContractValue > 0);\r\n        require(msg.value >= inContractValue);\r\n        require(inContractValue >= totalContractValue);\r\n        require(inStartDate >= now);\r\n        \r\n        _contractValue = msg.value;\r\n        _period = inNumberOfMonths;\r\n        _startDate = inStartDate;\r\n        _endDate = inStartDate + monthToMiliseconds(inNumberOfMonths);\r\n        _selectedOption = getOption(inPackId, inNumberOfMonths);\r\n        _status = Status.VALID;\r\n        \r\n        emit ContractSigned(msg.sender, inPackId, _contractValue);\r\n        \r\n    }\r\n    \r\n    function patientCancel() {\r\n        require(msg.sender == _patient);\r\n        require(_status == Status.NEW);\r\n        suicide(msg.sender);\r\n    }\r\n    \r\n    function getInsurer() returns(address) {\r\n        return _insurer;\r\n    }\r\n    \r\n    function calculateClaimAmount(address inPatient, uint[] inCheckItems, uint[] inCheckPrices) returns (uint) {\r\n        require(_status == Status.NEW);\r\n        require(_endDate >= now);\r\n        uint sum = 0;\r\n        for(uint i = 0; i < inCheckItems.length; i++) {\r\n            Item matchedItem = _selectedOption.items[inCheckItems[i]];\r\n            if(matchedItem.isValid) {\r\n                sum += matchedItem.percent * inCheckPrices[i] / 100;\r\n            }\r\n        }\r\n        return sum;\r\n    }\r\n    \r\n    function requestForClaim(address inContractCP) returns (uint) {\r\n        require(_status == Status.VALID);\r\n        require(_endDate >= now);\r\n        \r\n        ContractCP cp = ContractCP(inContractCP);\r\n        require(cp.getPatient() == _patient);\r\n        require(_claimQueue[inContractCP].isValid == false);\r\n        \r\n        uint itemCount = cp.getItemCount();\r\n        uint[] storage checkItems;\r\n        uint[] storage checkPrices;\r\n        for(uint i = 0; i < itemCount; i++) {\r\n            checkItems[i] = cp.getCheckItem(i);\r\n            checkPrices[i] = cp.getCheckPrice(i);\r\n        }\r\n        \r\n        uint totalAmount = calculateClaimAmount(cp.getPatient(), checkItems, checkPrices);\r\n        if(totalAmount > 0) {\r\n            _claimQueue[inContractCP] = ClaimRequest(inContractCP, _patient, false, totalAmount, true);\r\n            emit ClaimRequested(inContractCP, _patient, totalAmount);\r\n            return 0;\r\n        }\r\n        return 1;\r\n        \r\n    }\r\n    \r\n    function insurerAcceptClaim(address inContractCP) payable {\r\n        require(msg.sender == _insurer);\r\n        require(_status == Status.VALID);\r\n        ClaimRequest request = _claimQueue[inContractCP];\r\n        require(request.isValid);\r\n        require(request.paid == false);\r\n        require(msg.value >= request.amount);\r\n        ContractCP cp = ContractCP(inContractCP);\r\n        cp.receive.gas(300000).value(request.amount)(request.amount);\r\n        request.paid = true;\r\n        \r\n        emit AcceptClaim(inContractCP, _patient, request.amount);\r\n    }\r\n    \r\n    function requestForWithdraw() payable {\r\n        require(msg.sender == _insurer);\r\n        require(_status == Status.VALID);\r\n        require(_endDate < now);\r\n        _status = Status.EXPIRED;\r\n        msg.sender.transfer(this.balance);\r\n    }\r\n    \r\n    function monthToMiliseconds(uint inMonth) internal returns (uint) {\r\n        uint daysPerMonth = 30;\r\n        uint hoursPerDay = 24;\r\n        uint minsPerHour = 60;\r\n        uint secsPerMin = 60;\r\n        uint milisPerSec = 1000;\r\n        return inMonth * daysPerMonth * hoursPerDay * minsPerHour * secsPerMin * milisPerSec;\r\n    }\r\n    \r\n    \r\n    modifier minimumAmount(uint inEtherAmount) {\r\n        require (msg.value >= inEtherAmount * 1 ether);\r\n        _;\r\n    }\r\n    \r\n    event ContractSigned(address, uint, uint);\r\n    \r\n    event ClaimRequested(address, address, uint);\r\n    \r\n    event AcceptClaim(address, address, uint);\r\n    \r\n   /**\r\n     * Convert bytes32 to string\r\n     * @param x The bytes32 value\r\n     * @return string The resulting string from bytes32\r\n     */\r\n    function bytes32ToString(bytes32 x) constant returns (string) {\r\n        bytes memory bytesString = new bytes(32);\r\n        uint charCount = 0;\r\n        for (uint j = 0; j < 32; j++) {\r\n            byte char = byte(bytes32(uint(x) * 2 ** (8 * j)));\r\n            if (char != 0) {\r\n                bytesString[charCount] = char;\r\n                charCount++;\r\n            }\r\n        }\r\n        bytes memory bytesStringTrimmed = new bytes(charCount);\r\n        for (j = 0; j < charCount; j++) {\r\n            bytesStringTrimmed[j] = bytesString[j];\r\n        }\r\n        return string(bytesStringTrimmed);\r\n    }\r\n    \r\n    \r\n    \r\n    \r\n    \r\n    \r\n    \r\n    \r\n    \r\n    \r\n}",
  "sourcePath": "F:\\Data\\Blcokchain\\Project\\findclinic\\findclinic\\contracts\\ContractPI.sol",
  "compiler": {
    "name": "solc",
    "version": "0.4.21+commit.dfe3193c.Emscripten.clang"
  },
  "schemaVersion": "2.0.0",
  "updatedAt": "2018-04-19T21:50:06.707Z"
}