{
  "contractName": "ContractCPList",
  "abi": [
    {
      "anonymous": false,
      "inputs": [
        {
          "indexed": false,
          "name": "message",
          "type": "string"
        }
      ],
      "name": "CreateContractEvent",
      "type": "event"
    },
    {
      "constant": false,
      "inputs": [
        {
          "name": "inClinic",
          "type": "address"
        },
        {
          "name": "inPatient",
          "type": "address"
        },
        {
          "name": "inCheckItems",
          "type": "string"
        }
      ],
      "name": "createContract",
      "outputs": [],
      "payable": false,
      "stateMutability": "nonpayable",
      "type": "function"
    },
    {
      "constant": false,
      "inputs": [
        {
          "name": "inPatient",
          "type": "address"
        }
      ],
      "name": "getPatientContracts",
      "outputs": [
        {
          "name": "",
          "type": "address[]"
        }
      ],
      "payable": false,
      "stateMutability": "nonpayable",
      "type": "function"
    },
    {
      "constant": false,
      "inputs": [
        {
          "name": "inClinic",
          "type": "address"
        }
      ],
      "name": "getClinicContracts",
      "outputs": [
        {
          "name": "",
          "type": "address[]"
        }
      ],
      "payable": false,
      "stateMutability": "nonpayable",
      "type": "function"
    }
  ],
  "bytecode": "0x6060604052341561000f57600080fd5b611e8e8061001e6000396000f3006060604052600436106200005b576000357c0100000000000000000000000000000000000000000000000000000000900463ffffffff1680637c79213e146200006057806392c7fb65146200009d578063a28557d614620000c4575b600080fd5b34156200006c57600080fd5b6200008560046200007f90369062000672565b62000101565b6040516200009491906200094d565b60405180910390f35b3415620000a957600080fd5b620000c26004620000bc9036906200069e565b620001d8565b005b3415620000d057600080fd5b620000e96004620000e390369062000672565b620004ac565b604051620000f891906200094d565b60405180910390f35b6200010b62000582565b600160008373ffffffffffffffffffffffffffffffffffffffff1673ffffffffffffffffffffffffffffffffffffffff168152602001908152602001600020805480602002602001604051908101604052809291908181526020018280548015620001cc57602002820191906000526020600020905b8160009054906101000a900473ffffffffffffffffffffffffffffffffffffffff1673ffffffffffffffffffffffffffffffffffffffff168152602001906001019080831162000181575b50505050509050919050565b60008060007ff06153f4fc44d71e3694c8a01f08df6ab1da2e185c9213230f276f7d3d2d56e26040516200020c90620009d7565b60405180910390a17ff06153f4fc44d71e3694c8a01f08df6ab1da2e185c9213230f276f7d3d2d56e26040516200024390620009b5565b60405180910390a18585856200025862000596565b620002669392919062000909565b604051809103906000f08015156200027d57600080fd5b92507ff06153f4fc44d71e3694c8a01f08df6ab1da2e185c9213230f276f7d3d2d56e2604051620002ae9062000993565b60405180910390a16000808673ffffffffffffffffffffffffffffffffffffffff1673ffffffffffffffffffffffffffffffffffffffff16815260200190815260200160002091507ff06153f4fc44d71e3694c8a01f08df6ab1da2e185c9213230f276f7d3d2d56e2604051620003259062000971565b60405180910390a1818054806001018281620003429190620005a7565b9160005260206000209001600085909190916101000a81548173ffffffffffffffffffffffffffffffffffffffff021916908373ffffffffffffffffffffffffffffffffffffffff160217905550507ff06153f4fc44d71e3694c8a01f08df6ab1da2e185c9213230f276f7d3d2d56e2604051620003c090620009f9565b60405180910390a1600160008773ffffffffffffffffffffffffffffffffffffffff1673ffffffffffffffffffffffffffffffffffffffff16815260200190815260200160002090507ff06153f4fc44d71e3694c8a01f08df6ab1da2e185c9213230f276f7d3d2d56e2604051620004389062000a1b565b60405180910390a1808054806001018281620004559190620005a7565b9160005260206000209001600085909190916101000a81548173ffffffffffffffffffffffffffffffffffffffff021916908373ffffffffffffffffffffffffffffffffffffffff16021790555050505050505050565b620004b662000582565b6000808373ffffffffffffffffffffffffffffffffffffffff1673ffffffffffffffffffffffffffffffffffffffff1681526020019081526020016000208054806020026020016040519081016040528092919081815260200182805480156200057657602002820191906000526020600020905b8160009054906101000a900473ffffffffffffffffffffffffffffffffffffffff1673ffffffffffffffffffffffffffffffffffffffff16815260200190600101908083116200052b575b50505050509050919050565b602060405190810160405280600081525090565b6040516112f68062000b5f83390190565b815481835581811511620005d157818360005260206000209182019101620005d09190620005d6565b5b505050565b620005fb91905b80821115620005f7576000816000905550600101620005dd565b5090565b90565b60006200060c823562000ae8565b905092915050565b600082601f83011215156200062857600080fd5b81356200063f620006398262000a6b565b62000a3d565b915080825260208301602083018583830111156200065c57600080fd5b6200066983828462000b08565b50505092915050565b6000602082840312156200068557600080fd5b60006200069584828501620005fe565b91505092915050565b600080600060608486031215620006b457600080fd5b6000620006c486828701620005fe565b9350506020620006d786828701620005fe565b925050604084013567ffffffffffffffff811115620006f557600080fd5b620007038682870162000614565b9150509250925092565b620007188162000ac8565b82525050565b60006200072b8262000aa5565b8084526020840193506200073f8362000a98565b60005b828110156200077757620007588683516200070d565b620007638262000abb565b915060208601955060018101905062000742565b50849250505092915050565b6000620007908262000ab0565b808452620007a681602086016020860162000b17565b620007b18162000b4d565b602085010191505092915050565b6000600182527f34000000000000000000000000000000000000000000000000000000000000006020830152604082019050919050565b6000600182527f33000000000000000000000000000000000000000000000000000000000000006020830152604082019050919050565b6000600182527f32000000000000000000000000000000000000000000000000000000000000006020830152604082019050919050565b6000600182527f31000000000000000000000000000000000000000000000000000000000000006020830152604082019050919050565b6000600182527f35000000000000000000000000000000000000000000000000000000000000006020830152604082019050919050565b6000600182527f36000000000000000000000000000000000000000000000000000000000000006020830152604082019050919050565b60006060820190506200092060008301866200070d565b6200092f60208301856200070d565b818103604083015262000943818462000783565b9050949350505050565b600060208201905081810360008301526200096981846200071e565b905092915050565b600060208201905081810360008301526200098c81620007bf565b9050919050565b60006020820190508181036000830152620009ae81620007f6565b9050919050565b60006020820190508181036000830152620009d0816200082d565b9050919050565b60006020820190508181036000830152620009f28162000864565b9050919050565b6000602082019050818103600083015262000a14816200089b565b9050919050565b6000602082019050818103600083015262000a3681620008d2565b9050919050565b6000604051905081810181811067ffffffffffffffff8211171562000a6157600080fd5b8060405250919050565b600067ffffffffffffffff82111562000a8357600080fd5b601f19601f8301169050602081019050919050565b6000602082019050919050565b600081519050919050565b600081519050919050565b6000602082019050919050565b600073ffffffffffffffffffffffffffffffffffffffff82169050919050565b600073ffffffffffffffffffffffffffffffffffffffff82169050919050565b82818337600083830152505050565b60005b8381101562000b3757808201518184015260208101905062000b1a565b8381111562000b47576000848401525b50505050565b6000601f19601f83011690509190505600606060405234156200001057600080fd5b604051620012f6380380620012f6833981016040526200003a90678000000000000000906200015d565b826000806101000a81548173ffffffffffffffffffffffffffffffffffffffff021916908373ffffffffffffffffffffffffffffffffffffffff16021790555081600160006101000a81548173ffffffffffffffffffffffffffffffffffffffff021916908373ffffffffffffffffffffffffffffffffffffffff1602179055506000600460006101000a81548160ff02191690836004811115620000db57fe5b02179055505050506200027d565b6000620000f7825162000227565b905092915050565b600082601f83011215156200011357600080fd5b81516200012a6200012482620001fa565b620001cc565b915080825260208301602083018583830111156200014757600080fd5b6200015483828462000247565b50505092915050565b6000806000606084860312156200017357600080fd5b60006200018386828701620000e9565b93505060206200019686828701620000e9565b925050604084015167ffffffffffffffff811115620001b457600080fd5b620001c286828701620000ff565b9150509250925092565b6000604051905081810181811067ffffffffffffffff82111715620001f057600080fd5b8060405250919050565b600067ffffffffffffffff8211156200021257600080fd5b601f19601f8301169050602081019050919050565b600073ffffffffffffffffffffffffffffffffffffffff82169050919050565b60005b83811015620002675780820151818401526020810190506200024a565b8381111562000277576000848401525b50505050565b611069806200028d6000396000f3006060604052600436106100d0576000357c0100000000000000000000000000000000000000000000000000000000900463ffffffff1680630f05f8ec146100d55780630fb3844c146100df5780631a7130fa146101085780631a9bf804146101125780637749cf23146101275780637b0f9a36146101505780639425a41f14610179578063a5adc27814610183578063a724390b146101b9578063bbb1d43a146101ce578063cba2534f146101f0578063ced51e1714610207578063cfb519281461023d578063e6af35f014610273575b600080fd5b6100dd61029d565b005b34156100ea57600080fd5b6100f26103cf565b6040516100ff9190610ed0565b60405180910390f35b6101106103e2565b005b341561011d57600080fd5b610125610593565b005b341561013257600080fd5b61013a61065f565b6040516101479190610eeb565b60405180910390f35b341561015b57600080fd5b61016361066c565b6040516101709190610e7f565b60405180910390f35b610181610696565b005b341561018e57600080fd5b6101a3600461019e903690610e0b565b6107c4565b6040516101b09190610e9a565b60405180910390f35b34156101c457600080fd5b6101cc610888565b005b34156101d957600080fd5b6101ee60046101e9903690610da1565b61095e565b005b6102056004610200903690610e0b565b610a55565b005b341561021257600080fd5b6102276004610222903690610e0b565b610a73565b6040516102349190610eeb565b60405180910390f35b341561024857600080fd5b61025d6004610258903690610dca565b610a97565b60405161026a9190610e9a565b60405180910390f35b341561027e57600080fd5b610286610ac8565b604051610294929190610f06565b60405180910390f35b600160009054906101000a900473ffffffffffffffffffffffffffffffffffffffff1673ffffffffffffffffffffffffffffffffffffffff163373ffffffffffffffffffffffffffffffffffffffff161415156102f957600080fd5b6001600481111561030657fe5b600460009054906101000a900460ff16600481111561032157fe5b14151561032d57600080fd5b600060085411151561033e57600080fd5b60001515600760149054906101000a900460ff16151514151561036057600080fd5b600854341015151561037157600080fd5b6001600760146101000a81548160ff0219169083151502179055507f264ec5a5e75174de18676d5eddf10ee3a72809b018b55e793335e489f3c52a466008546040516103bd9190610eeb565b60405180910390a16103cd610888565b565b600460009054906101000a900460ff1681565b6000600160048111156103f157fe5b600460009054906101000a900460ff16600481111561040c57fe5b14151561041857600080fd5b6000600a5411151561042957600080fd5b60001515600960009054906101000a900460ff16151514151561044b57600080fd5b600760009054906101000a900473ffffffffffffffffffffffffffffffffffffffff1690508073ffffffffffffffffffffffffffffffffffffffff16635d0c14766040518163ffffffff167c0100000000000000000000000000000000000000000000000000000000028152600401602060405180830381600087803b15156104d357600080fd5b5af115156104e057600080fd5b5050506040518051905073ffffffffffffffffffffffffffffffffffffffff163373ffffffffffffffffffffffffffffffffffffffff1614151561052357600080fd5b600a54341015151561053457600080fd5b6001600960006101000a81548160ff0219169083151502179055507fbb9156848db4eba42489ab5289a87bdedb524516d1a00aca8f80254ca8fab1606008546040516105809190610eeb565b60405180910390a1610590610888565b50565b600160009054906101000a900473ffffffffffffffffffffffffffffffffffffffff1673ffffffffffffffffffffffffffffffffffffffff163373ffffffffffffffffffffffffffffffffffffffff161415156105ef57600080fd5b600060048111156105fc57fe5b600460009054906101000a900460ff16600481111561061757fe5b14151561062357600080fd5b60048060006101000a81548160ff0219169083600481111561064157fe5b02179055503373ffffffffffffffffffffffffffffffffffffffff16ff5b6000600280549050905090565b6000600160009054906101000a900473ffffffffffffffffffffffffffffffffffffffff16905090565b600160009054906101000a900473ffffffffffffffffffffffffffffffffffffffff1673ffffffffffffffffffffffffffffffffffffffff163373ffffffffffffffffffffffffffffffffffffffff161415156106f257600080fd5b600260048111156106ff57fe5b600460009054906101000a900460ff16600481111561071a57fe5b14151561072657600080fd5b6000809054906101000a900473ffffffffffffffffffffffffffffffffffffffff1673ffffffffffffffffffffffffffffffffffffffff166108fc3073ffffffffffffffffffffffffffffffffffffffff16319081150290604051600060405180830381858888f19350505050151561079e57600080fd5b6003600460006101000a81548160ff021916908360048111156107bd57fe5b0217905550565b60006108816002838154811015156107d857fe5b90600052602060002090018054600181600116156101000203166002900480601f0160208091040260200160405190810160405280929190818152602001828054600181600116156101000203166002900480156108775780601f1061084c57610100808354040283529160200191610877565b820191906000526020600020905b81548152906001019060200180831161085a57829003601f168201915b5050505050610a97565b9050919050565b6001600481111561089557fe5b600460009054906101000a900460ff1660048111156108b057fe5b1415156108bc57600080fd5b6000600a5414806108d95750600960009054906101000a900460ff165b15156108e457600080fd5b600060085414806109015750600760149054906101000a900460ff165b151561090c57600080fd5b6002600460006101000a81548160ff0219169083600481111561092b57fe5b02179055507fd21fe0e7e6104dd7a16dae7ee3840a34e216bef186aacce48991c731271b7e2f60405160405180910390a1565b6000809054906101000a900473ffffffffffffffffffffffffffffffffffffffff1673ffffffffffffffffffffffffffffffffffffffff163373ffffffffffffffffffffffffffffffffffffffff161415156109b957600080fd5b600060048111156109c657fe5b600460009054906101000a900460ff1660048111156109e157fe5b1415156109ed57600080fd5b80600760006101000a81548173ffffffffffffffffffffffffffffffffffffffff021916908373ffffffffffffffffffffffffffffffffffffffff1602179055506001600460006101000a81548160ff02191690836004811115610a4d57fe5b021790555050565b80670de0b6b3a764000081023410151515610a6f57600080fd5b5050565b6000600382815481101515610a8457fe5b9060005260206000209001549050919050565b6000610aa1610d0f565b829050600081511415610aba5760006001029150610ac2565b602083015191505b50919050565b6000806000806000809054906101000a900473ffffffffffffffffffffffffffffffffffffffff1673ffffffffffffffffffffffffffffffffffffffff163373ffffffffffffffffffffffffffffffffffffffff16141515610b2957600080fd5b60016004811115610b3657fe5b600460009054906101000a900460ff166004811115610b5157fe5b141515610b5d57600080fd5b600760009054906101000a900473ffffffffffffffffffffffffffffffffffffffff1691508173ffffffffffffffffffffffffffffffffffffffff166323bb2e92306040518263ffffffff167c0100000000000000000000000000000000000000000000000000000000028152600401610bd79190610eb5565b602060405180830381600087803b1515610bf057600080fd5b5af11515610bfd57600080fd5b50505060405180519050816000815481101515610c1657fe5b906000526020600020900181905550806000815481101515610c3457fe5b90600052602060002090015460065403816001815481101515610c5357fe5b9060005260206000209001819055507ffde0443d61488fe9f4cf506334711e584adaf98ab54983ad7b658ef41a329368816000815481101515610c9257fe5b906000526020600020900154826001815481101515610cad57fe5b906000526020600020900154604051610cc7929190610f06565b60405180910390a1806000815481101515610cde57fe5b906000526020600020900154816001815481101515610cf957fe5b9060005260206000209001549350935050509091565b602060405190810160405280600081525090565b6000610d2f8235610fd2565b905092915050565b600082601f8301121515610d4a57600080fd5b8135610d5d610d5882610f5c565b610f2f565b91508082526020830160208301858383011115610d7957600080fd5b610d84838284611020565b50505092915050565b6000610d998235610ff2565b905092915050565b600060208284031215610db357600080fd5b6000610dc184828501610d23565b91505092915050565b600060208284031215610ddc57600080fd5b600082013567ffffffffffffffff811115610df657600080fd5b610e0284828501610d37565b91505092915050565b600060208284031215610e1d57600080fd5b6000610e2b84828501610d8d565b91505092915050565b610e3d81610f88565b82525050565b610e4c81610fa8565b82525050565b610e5b81610ffc565b82525050565b610e6a8161100e565b82525050565b610e7981610fc8565b82525050565b6000602082019050610e946000830184610e34565b92915050565b6000602082019050610eaf6000830184610e43565b92915050565b6000602082019050610eca6000830184610e52565b92915050565b6000602082019050610ee56000830184610e61565b92915050565b6000602082019050610f006000830184610e70565b92915050565b6000604082019050610f1b6000830185610e70565b610f286020830184610e70565b9392505050565b6000604051905081810181811067ffffffffffffffff82111715610f5257600080fd5b8060405250919050565b600067ffffffffffffffff821115610f7357600080fd5b601f19601f8301169050602081019050919050565b600073ffffffffffffffffffffffffffffffffffffffff82169050919050565b6000819050919050565b6000600582101515610fc057fe5b819050919050565b6000819050919050565b600073ffffffffffffffffffffffffffffffffffffffff82169050919050565b6000819050919050565b600061100782610f88565b9050919050565b600061101982610fb2565b9050919050565b828183376000838301525050505600a265627a7a72305820d5d2547998f7da30d5ef93dff40fcc354d03be58b777bf24f69d7a01adee35eb6c6578706572696d656e74616cf50037a265627a7a723058202865701c2621cf08c961864feac3608f01693898708424fa0992961ec80491236c6578706572696d656e74616cf50037",
  "source": "pragma solidity ^0.4.21;\r\npragma experimental ABIEncoderV2;\r\nimport \"./ContractCP.sol\";\r\n\r\n/**\r\n * This contract manages all contracts of Patient & Clinic\r\n */\r\ncontract ContractCPList {\r\n    \r\n    mapping(address => address[]) private _patientContractList;\r\n    mapping(address => address[]) private _clinicContractList;\r\n    \r\n    // Duration of implementation, we need to detect when the method is called\r\n    event CreateContractEvent(string message);\r\n\r\n    /**\r\n     * Create a ContractCP and save it to the list of contracts of Patient;\r\n     * @param inClinic address of Clinic account\r\n     * @param inPatient address of Patient account\r\n     * @param inCheckItems list of items that Patient want to check\r\n     */\r\n    function createContract(address inClinic, address inPatient, string inCheckItems) public {\r\n        emit CreateContractEvent(\"1\");\r\n        //require(msg.sender == inPatient);\r\n\r\n        emit CreateContractEvent(\"2\");\r\n        address pi = new ContractCP(inClinic, inPatient, inCheckItems);\r\n\r\n        // Add to Patient contracts list\r\n        emit CreateContractEvent(\"3\");\r\n        address[] currentContractListOfPatient = _patientContractList[inPatient];\r\n\r\n        emit CreateContractEvent(\"4\");\r\n        currentContractListOfPatient.push(pi);\r\n\r\n        // Add to Clinic contracts list\r\n        emit CreateContractEvent(\"5\");\r\n        address[] currentContractListOfClinic = _clinicContractList[inClinic];\r\n\r\n        emit CreateContractEvent(\"6\");\r\n        currentContractListOfClinic.push(pi);\r\n    }\r\n    \r\n    /**\r\n     * Returns list of contracts of a patient\r\n     * @param inPatient address of patient\r\n     * @return address[] list of contract addresses\r\n     */\r\n    function getPatientContracts(address inPatient) returns (address[]) {\r\n        return _patientContractList[inPatient];\r\n    }\r\n    \r\n    /**\r\n     * Returns list of contracts of a clinic\r\n     * @param inClinic address of clinic\r\n     * @return address[] list of contract addresses\r\n     */\r\n    function getClinicContracts(address inClinic) returns (address[]) {\r\n        return _clinicContractList[inClinic];\r\n    }\r\n    \r\n}",
  "sourcePath": "F:\\Data\\Blcokchain\\Project\\findclinic\\findclinic\\contracts\\ContractCPList.sol",
  "compiler": {
    "name": "solc",
    "version": "0.4.21+commit.dfe3193c.Emscripten.clang"
  },
  "schemaVersion": "2.0.0",
  "updatedAt": "2018-04-19T18:31:28.845Z"
}