{
  "contractName": "ContractPIList",
  "abi": [
    {
      "constant": false,
      "inputs": [
        {
          "name": "inInsurer",
          "type": "address"
        },
        {
          "name": "inPatient",
          "type": "address"
        }
      ],
      "name": "createContract",
      "outputs": [],
      "payable": false,
      "stateMutability": "nonpayable",
      "type": "function"
    },
    {
      "constant": true,
      "inputs": [
        {
          "name": "inPatient",
          "type": "address"
        }
      ],
      "name": "getPatientContracts",
      "outputs": [
        {
          "name": "",
          "type": "address[]"
        }
      ],
      "payable": false,
      "stateMutability": "view",
      "type": "function"
    },
    {
      "constant": true,
      "inputs": [
        {
          "name": "inInsurer",
          "type": "address"
        }
      ],
      "name": "getInsurerContracts",
      "outputs": [
        {
          "name": "",
          "type": "address[]"
        }
      ],
      "payable": false,
      "stateMutability": "view",
      "type": "function"
    }
  ],
  "bytecode": "0x6060604052341561000f57600080fd5b6145a18061001e6000396000f3006060604052600436106200005b576000357c0100000000000000000000000000000000000000000000000000000000900463ffffffff1680633c46c43c14620000605780635aa6e3df14620000bb578063a28557d6146200014e575b600080fd5b34156200006c57600080fd5b620000b9600480803573ffffffffffffffffffffffffffffffffffffffff1690602001909190803573ffffffffffffffffffffffffffffffffffffffff16906020019091905050620001e1565b005b3415620000c757600080fd5b620000f5600480803573ffffffffffffffffffffffffffffffffffffffff16906020019091905050620003ff565b6040518080602001828103825283818151815260200191508051906020019060200280838360005b838110156200013a5780820151818401526020810190506200011d565b505050509050019250505060405180910390f35b34156200015a57600080fd5b62000188600480803573ffffffffffffffffffffffffffffffffffffffff16906020019091905050620004d6565b6040518080602001828103825283818151815260200191508051906020019060200280838360005b83811015620001cd578082015181840152602081019050620001b0565b505050509050019250505060405180910390f35b60008060008373ffffffffffffffffffffffffffffffffffffffff163373ffffffffffffffffffffffffffffffffffffffff161415156200022157600080fd5b84846200022d620005ac565b808373ffffffffffffffffffffffffffffffffffffffff1673ffffffffffffffffffffffffffffffffffffffff1681526020018273ffffffffffffffffffffffffffffffffffffffff1673ffffffffffffffffffffffffffffffffffffffff16815260200192505050604051809103906000f0801515620002ad57600080fd5b92506000808573ffffffffffffffffffffffffffffffffffffffff1673ffffffffffffffffffffffffffffffffffffffff1681526020019081526020016000209150818054806001018281620003049190620005bd565b9160005260206000209001600085909190916101000a81548173ffffffffffffffffffffffffffffffffffffffff021916908373ffffffffffffffffffffffffffffffffffffffff16021790555050600160008673ffffffffffffffffffffffffffffffffffffffff1673ffffffffffffffffffffffffffffffffffffffff1681526020019081526020016000209050808054806001018281620003a99190620005bd565b9160005260206000209001600085909190916101000a81548173ffffffffffffffffffffffffffffffffffffffff021916908373ffffffffffffffffffffffffffffffffffffffff160217905550505050505050565b62000409620005ec565b600160008373ffffffffffffffffffffffffffffffffffffffff1673ffffffffffffffffffffffffffffffffffffffff168152602001908152602001600020805480602002602001604051908101604052809291908181526020018280548015620004ca57602002820191906000526020600020905b8160009054906101000a900473ffffffffffffffffffffffffffffffffffffffff1673ffffffffffffffffffffffffffffffffffffffff16815260200190600101908083116200047f575b50505050509050919050565b620004e0620005ec565b6000808373ffffffffffffffffffffffffffffffffffffffff1673ffffffffffffffffffffffffffffffffffffffff168152602001908152602001600020805480602002602001604051908101604052809291908181526020018280548015620005a057602002820191906000526020600020905b8160009054906101000a900473ffffffffffffffffffffffffffffffffffffffff1673ffffffffffffffffffffffffffffffffffffffff168152602001906001019080831162000555575b50505050509050919050565b604051613f4d806200062983390190565b815481835581811511620005e757818360005260206000209182019101620005e6919062000600565b5b505050565b602060405190810160405280600081525090565b6200062591905b808211156200062157600081600090555060010162000607565b5090565b9056006060604052606060405190810160405280600681526020016014815260200160011515815250600d600082015181600001556020820151816001015560408201518160030160006101000a81548160ff0219169083151502179055505050608060405190810160405280600181526020016040805190810160405280600581526020017f4665766572000000000000000000000000000000000000000000000000000000815250815260200160648152602001600115158152506011600082015181600001556020820151816001019080519060200190620000e3929190620026ec565b506040820151816002015560608201518160030160006101000a81548160ff0219169083151502179055505050608060405190810160405280600281526020016040805190810160405280600381526020017f466c75000000000000000000000000000000000000000000000000000000000081525081526020016064815260200160011515815250601560008201518160000155602082015181600101908051906020019062000196929190620026ec565b506040820151816002015560608201518160030160006101000a81548160ff0219169083151502179055505050608060405190810160405280600381526020016040805190810160405280600881526020017f4261636b6163686500000000000000000000000000000000000000000000000081525081526020016050815260200160011515815250601960008201518160000155602082015181600101908051906020019062000249929190620026ec565b506040820151816002015560608201518160030160006101000a81548160ff0219169083151502179055505050608060405190810160405280600481526020016040805190810160405280600c81526020017f53746f6d6163682061636865000000000000000000000000000000000000000081525081526020016050815260200160011515815250601d600082015181600001556020820151816001019080519060200190620002fc929190620026ec565b506040820151816002015560608201518160030160006101000a81548160ff0219169083151502179055505050608060405190810160405280600581526020016040805190810160405280600881526020017f4865616461636865000000000000000000000000000000000000000000000000815250815260200160508152602001600115158152506021600082015181600001556020820151816001019080519060200190620003af929190620026ec565b506040820151816002015560608201518160030160006101000a81548160ff0219169083151502179055505050608060405190810160405280600681526020016040805190810160405280600981526020017f546f6f746861636865000000000000000000000000000000000000000000000081525081526020016032815260200160011515815250602560008201518160000155602082015181600101908051906020019062000462929190620026ec565b506040820151816002015560608201518160030160006101000a81548160ff0219169083151502179055505050606060405190810160405280600c8152602001601e8152602001600115158152506029600082015181600001556020820151816001015560408201518160030160006101000a81548160ff0219169083151502179055505050608060405190810160405280600181526020016040805190810160405280600581526020017f466576657200000000000000000000000000000000000000000000000000000081525081526020016064815260200160011515815250602d6000820151816000015560208201518160010190805190602001906200056e929190620026ec565b506040820151816002015560608201518160030160006101000a81548160ff0219169083151502179055505050608060405190810160405280600281526020016040805190810160405280600381526020017f466c75000000000000000000000000000000000000000000000000000000000081525081526020016064815260200160011515815250603160008201518160000155602082015181600101908051906020019062000621929190620026ec565b506040820151816002015560608201518160030160006101000a81548160ff0219169083151502179055505050608060405190810160405280600381526020016040805190810160405280600881526020017f4261636b61636865000000000000000000000000000000000000000000000000815250815260200160508152602001600115158152506035600082015181600001556020820151816001019080519060200190620006d4929190620026ec565b506040820151816002015560608201518160030160006101000a81548160ff0219169083151502179055505050608060405190810160405280600481526020016040805190810160405280600c81526020017f53746f6d6163682061636865000000000000000000000000000000000000000081525081526020016050815260200160011515815250603960008201518160000155602082015181600101908051906020019062000787929190620026ec565b506040820151816002015560608201518160030160006101000a81548160ff0219169083151502179055505050608060405190810160405280600581526020016040805190810160405280600881526020017f486561646163686500000000000000000000000000000000000000000000000081525081526020016050815260200160011515815250603d6000820151816000015560208201518160010190805190602001906200083a929190620026ec565b506040820151816002015560608201518160030160006101000a81548160ff0219169083151502179055505050608060405190810160405280600681526020016040805190810160405280600981526020017f546f6f7468616368650000000000000000000000000000000000000000000000815250815260200160328152602001600115158152506041600082015181600001556020820151816001019080519060200190620008ed929190620026ec565b506040820151816002015560608201518160030160006101000a81548160ff021916908315150217905550505060606040519081016040528060068152602001601e8152602001600115158152506045600082015181600001556020820151816001015560408201518160030160006101000a81548160ff0219169083151502179055505050608060405190810160405280600181526020016040805190810160405280600581526020017f4665766572000000000000000000000000000000000000000000000000000000815250815260200160648152602001600115158152506049600082015181600001556020820151816001019080519060200190620009f9929190620026ec565b506040820151816002015560608201518160030160006101000a81548160ff0219169083151502179055505050608060405190810160405280600281526020016040805190810160405280600381526020017f466c75000000000000000000000000000000000000000000000000000000000081525081526020016064815260200160011515815250604d60008201518160000155602082015181600101908051906020019062000aac929190620026ec565b506040820151816002015560608201518160030160006101000a81548160ff0219169083151502179055505050608060405190810160405280600381526020016040805190810160405280600881526020017f4261636b6163686500000000000000000000000000000000000000000000000081525081526020016064815260200160011515815250605160008201518160000155602082015181600101908051906020019062000b5f929190620026ec565b506040820151816002015560608201518160030160006101000a81548160ff0219169083151502179055505050608060405190810160405280600481526020016040805190810160405280600c81526020017f53746f6d6163682061636865000000000000000000000000000000000000000081525081526020016064815260200160011515815250605560008201518160000155602082015181600101908051906020019062000c12929190620026ec565b506040820151816002015560608201518160030160006101000a81548160ff0219169083151502179055505050608060405190810160405280600581526020016040805190810160405280600881526020017f486561646163686500000000000000000000000000000000000000000000000081525081526020016064815260200160011515815250605960008201518160000155602082015181600101908051906020019062000cc5929190620026ec565b506040820151816002015560608201518160030160006101000a81548160ff0219169083151502179055505050608060405190810160405280600681526020016040805190810160405280600981526020017f546f6f746861636865000000000000000000000000000000000000000000000081525081526020016050815260200160011515815250605d60008201518160000155602082015181600101908051906020019062000d78929190620026ec565b506040820151816002015560608201518160030160006101000a81548160ff0219169083151502179055505050608060405190810160405280600781526020016040805190810160405280600681526020017f43616e636572000000000000000000000000000000000000000000000000000081525081526020016050815260200160011515815250606160008201518160000155602082015181600101908051906020019062000e2b929190620026ec565b506040820151816002015560608201518160030160006101000a81548160ff0219169083151502179055505050608060405190810160405280600881526020016040805190810160405280601381526020017f47656e6572616c206578616d696e6174696f6e0000000000000000000000000081525081526020016032815260200160011515815250606560008201518160000155602082015181600101908051906020019062000ede929190620026ec565b506040820151816002015560608201518160030160006101000a81548160ff0219169083151502179055505050606060405190810160405280600c815260200160288152602001600115158152506069600082015181600001556020820151816001015560408201518160030160006101000a81548160ff0219169083151502179055505050608060405190810160405280600181526020016040805190810160405280600581526020017f466576657200000000000000000000000000000000000000000000000000000081525081526020016064815260200160011515815250606d60008201518160000155602082015181600101908051906020019062000fea929190620026ec565b506040820151816002015560608201518160030160006101000a81548160ff0219169083151502179055505050608060405190810160405280600281526020016040805190810160405280600381526020017f466c7500000000000000000000000000000000000000000000000000000000008152508152602001606481526020016001151581525060716000820151816000015560208201518160010190805190602001906200109d929190620026ec565b506040820151816002015560608201518160030160006101000a81548160ff0219169083151502179055505050608060405190810160405280600381526020016040805190810160405280600881526020017f4261636b6163686500000000000000000000000000000000000000000000000081525081526020016064815260200160011515815250607560008201518160000155602082015181600101908051906020019062001150929190620026ec565b506040820151816002015560608201518160030160006101000a81548160ff0219169083151502179055505050608060405190810160405280600481526020016040805190810160405280600c81526020017f53746f6d6163682061636865000000000000000000000000000000000000000081525081526020016064815260200160011515815250607960008201518160000155602082015181600101908051906020019062001203929190620026ec565b506040820151816002015560608201518160030160006101000a81548160ff0219169083151502179055505050608060405190810160405280600581526020016040805190810160405280600881526020017f486561646163686500000000000000000000000000000000000000000000000081525081526020016064815260200160011515815250607d600082015181600001556020820151816001019080519060200190620012b6929190620026ec565b506040820151816002015560608201518160030160006101000a81548160ff0219169083151502179055505050608060405190810160405280600681526020016040805190810160405280600981526020017f546f6f746861636865000000000000000000000000000000000000000000000081525081526020016050815260200160011515815250608160008201518160000155602082015181600101908051906020019062001369929190620026ec565b506040820151816002015560608201518160030160006101000a81548160ff0219169083151502179055505050608060405190810160405280600781526020016040805190810160405280600681526020017f43616e63657200000000000000000000000000000000000000000000000000008152508152602001605081526020016001151581525060856000820151816000015560208201518160010190805190602001906200141c929190620026ec565b506040820151816002015560608201518160030160006101000a81548160ff0219169083151502179055505050608060405190810160405280600881526020016040805190810160405280601381526020017f47656e6572616c206578616d696e6174696f6e00000000000000000000000000815250815260200160328152602001600115158152506089600082015181600001556020820151816001019080519060200190620014cf929190620026ec565b506040820151816002015560608201518160030160006101000a81548160ff021916908315150217905550505034156200150857600080fd5b60405160408062003f4d833981016040528080519060200190919080519060200190919050506000808273ffffffffffffffffffffffffffffffffffffffff163373ffffffffffffffffffffffffffffffffffffffff161415156200156c57600080fd5b836000806101000a81548173ffffffffffffffffffffffffffffffffffffffff021916908373ffffffffffffffffffffffffffffffffffffffff16021790555082600160006101000a81548173ffffffffffffffffffffffffffffffffffffffff021916908373ffffffffffffffffffffffffffffffffffffffff1602179055506000600160146101000a81548160ff021916908360038111156200160d57fe5b02179055506011600d60020160006001815260200190815260200160002060008201548160000155600182018160010190805460018160011615610100020316600290046200165e92919062002773565b50600282015481600201556003820160009054906101000a900460ff168160030160006101000a81548160ff0219169083151502179055509050506015600d6002016000600281526020019081526020016000206000820154816000015560018201816001019080546001816001161561010002031660029004620016e592919062002773565b50600282015481600201556003820160009054906101000a900460ff168160030160006101000a81548160ff0219169083151502179055509050506019600d60020160006003815260200190815260200160002060008201548160000155600182018160010190805460018160011615610100020316600290046200176c92919062002773565b50600282015481600201556003820160009054906101000a900460ff168160030160006101000a81548160ff021916908315150217905550905050601d600d6002016000600481526020019081526020016000206000820154816000015560018201816001019080546001816001161561010002031660029004620017f392919062002773565b50600282015481600201556003820160009054906101000a900460ff168160030160006101000a81548160ff0219169083151502179055509050506021600d60020160006005815260200190815260200160002060008201548160000155600182018160010190805460018160011615610100020316600290046200187a92919062002773565b50600282015481600201556003820160009054906101000a900460ff168160030160006101000a81548160ff0219169083151502179055509050506025600d60020160006006815260200190815260200160002060008201548160000155600182018160010190805460018160011615610100020316600290046200190192919062002773565b50600282015481600201556003820160009054906101000a900460ff168160030160006101000a81548160ff021916908315150217905550905050602d602960020160006001815260200190815260200160002060008201548160000155600182018160010190805460018160011615610100020316600290046200198892919062002773565b50600282015481600201556003820160009054906101000a900460ff168160030160006101000a81548160ff02191690831515021790555090505060316029600201600060028152602001908152602001600020600082015481600001556001820181600101908054600181600116156101000203166002900462001a0f92919062002773565b50600282015481600201556003820160009054906101000a900460ff168160030160006101000a81548160ff02191690831515021790555090505060356029600201600060038152602001908152602001600020600082015481600001556001820181600101908054600181600116156101000203166002900462001a9692919062002773565b50600282015481600201556003820160009054906101000a900460ff168160030160006101000a81548160ff02191690831515021790555090505060396029600201600060048152602001908152602001600020600082015481600001556001820181600101908054600181600116156101000203166002900462001b1d92919062002773565b50600282015481600201556003820160009054906101000a900460ff168160030160006101000a81548160ff021916908315150217905550905050603d6029600201600060058152602001908152602001600020600082015481600001556001820181600101908054600181600116156101000203166002900462001ba492919062002773565b50600282015481600201556003820160009054906101000a900460ff168160030160006101000a81548160ff02191690831515021790555090505060416029600201600060068152602001908152602001600020600082015481600001556001820181600101908054600181600116156101000203166002900462001c2b92919062002773565b50600282015481600201556003820160009054906101000a900460ff168160030160006101000a81548160ff02191690831515021790555090505081805480600101828162001c7b919062002801565b91600052602060002090600402016000600d909190915060008201548160000155600182015481600101556003820160009054906101000a900460ff168160030160006101000a81548160ff02191690831515021790555050505081805480600101828162001ceb919062002801565b916000526020600020906004020160006029909190915060008201548160000155600182015481600101556003820160009054906101000a900460ff168160030160006101000a81548160ff02191690831515021790555050505081600b60006001815260200190815260200160002090805462001d6b92919062002836565b5060496045600201600060018152602001908152602001600020600082015481600001556001820181600101908054600181600116156101000203166002900462001db892919062002773565b50600282015481600201556003820160009054906101000a900460ff168160030160006101000a81548160ff021916908315150217905550905050604d6045600201600060028152602001908152602001600020600082015481600001556001820181600101908054600181600116156101000203166002900462001e3f92919062002773565b50600282015481600201556003820160009054906101000a900460ff168160030160006101000a81548160ff02191690831515021790555090505060516045600201600060038152602001908152602001600020600082015481600001556001820181600101908054600181600116156101000203166002900462001ec692919062002773565b50600282015481600201556003820160009054906101000a900460ff168160030160006101000a81548160ff02191690831515021790555090505060556045600201600060048152602001908152602001600020600082015481600001556001820181600101908054600181600116156101000203166002900462001f4d92919062002773565b50600282015481600201556003820160009054906101000a900460ff168160030160006101000a81548160ff02191690831515021790555090505060596045600201600060058152602001908152602001600020600082015481600001556001820181600101908054600181600116156101000203166002900462001fd492919062002773565b50600282015481600201556003820160009054906101000a900460ff168160030160006101000a81548160ff021916908315150217905550905050605d604560020160006006815260200190815260200160002060008201548160000155600182018160010190805460018160011615610100020316600290046200205b92919062002773565b50600282015481600201556003820160009054906101000a900460ff168160030160006101000a81548160ff021916908315150217905550905050606160456002016000600781526020019081526020016000206000820154816000015560018201816001019080546001816001161561010002031660029004620020e292919062002773565b50600282015481600201556003820160009054906101000a900460ff168160030160006101000a81548160ff0219169083151502179055509050506065604560020160006008815260200190815260200160002060008201548160000155600182018160010190805460018160011615610100020316600290046200216992919062002773565b50600282015481600201556003820160009054906101000a900460ff168160030160006101000a81548160ff021916908315150217905550905050606d60696002016000600181526020019081526020016000206000820154816000015560018201816001019080546001816001161561010002031660029004620021f092919062002773565b50600282015481600201556003820160009054906101000a900460ff168160030160006101000a81548160ff0219169083151502179055509050506071606960020160006002815260200190815260200160002060008201548160000155600182018160010190805460018160011615610100020316600290046200227792919062002773565b50600282015481600201556003820160009054906101000a900460ff168160030160006101000a81548160ff021916908315150217905550905050607560696002016000600381526020019081526020016000206000820154816000015560018201816001019080546001816001161561010002031660029004620022fe92919062002773565b50600282015481600201556003820160009054906101000a900460ff168160030160006101000a81548160ff0219169083151502179055509050506079606960020160006004815260200190815260200160002060008201548160000155600182018160010190805460018160011615610100020316600290046200238592919062002773565b50600282015481600201556003820160009054906101000a900460ff168160030160006101000a81548160ff021916908315150217905550905050607d606960020160006005815260200190815260200160002060008201548160000155600182018160010190805460018160011615610100020316600290046200240c92919062002773565b50600282015481600201556003820160009054906101000a900460ff168160030160006101000a81548160ff0219169083151502179055509050506081606960020160006006815260200190815260200160002060008201548160000155600182018160010190805460018160011615610100020316600290046200249392919062002773565b50600282015481600201556003820160009054906101000a900460ff168160030160006101000a81548160ff0219169083151502179055509050506085606960020160006007815260200190815260200160002060008201548160000155600182018160010190805460018160011615610100020316600290046200251a92919062002773565b50600282015481600201556003820160009054906101000a900460ff168160030160006101000a81548160ff021916908315150217905550905050608960696002016000600881526020019081526020016000206000820154816000015560018201816001019080546001816001161561010002031660029004620025a192919062002773565b50600282015481600201556003820160009054906101000a900460ff168160030160006101000a81548160ff021916908315150217905550905050808054806001018281620025f1919062002801565b916000526020600020906004020160006045909190915060008201548160000155600182015481600101556003820160009054906101000a900460ff168160030160006101000a81548160ff02191690831515021790555050505080805480600101828162002661919062002801565b916000526020600020906004020160006069909190915060008201548160000155600182015481600101556003820160009054906101000a900460ff168160030160006101000a81548160ff02191690831515021790555050505080600b600060028152602001908152602001600020908054620026e192919062002836565b505050505062002942565b828054600181600116156101000203166002900490600052602060002090601f016020900481019282601f106200272f57805160ff191683800117855562002760565b8280016001018555821562002760579182015b828111156200275f57825182559160200191906001019062002742565b5b5090506200276f9190620028d4565b5090565b828054600181600116156101000203166002900490600052602060002090601f016020900481019282601f10620027ae5780548555620027ee565b82800160010185558215620027ee57600052602060002091601f016020900482015b82811115620027ed578254825591600101919060010190620027d0565b5b509050620027fd9190620028d4565b5090565b8154818355818115116200283157600402816004028360005260206000209182019101620028309190620028fc565b5b505050565b828054828255906000526020600020906004028101928215620028c15760005260206000209160040282015b82811115620028c057828260008201548160000155600182015481600101556003820160009054906101000a900460ff168160030160006101000a81548160ff02191690831515021790555050509160040191906004019062002862565b5b509050620028d09190620028fc565b5090565b620028f991905b80821115620028f5576000816000905550600101620028db565b5090565b90565b6200293f91905b808211156200293b5760008082016000905560018201600090556003820160006101000a81549060ff02191690555060040162002903565b5090565b90565b6115fb80620029526000396000f3006060604052600436106100a4576000357c0100000000000000000000000000000000000000000000000000000000900463ffffffff1680630cc86d3d146100a95780630fb3844c146100e95780631a9bf8041461012057806322edc9791461013557806323bb2e921461016357806346048144146101b05780635d0c1476146101ba5780639201de551461020f578063ceff1146146102af578063f41c8a0c146102e2575b600080fd5b34156100b457600080fd5b6100d360048080359060200190919080359060200190919050506103af565b6040518082815260200191505060405180910390f35b34156100f457600080fd5b6100fc6103e7565b6040518082600381111561010c57fe5b60ff16815260200191505060405180910390f35b341561012b57600080fd5b6101336103fa565b005b610161600480803573ffffffffffffffffffffffffffffffffffffffff169060200190919050506104a3565b005b341561016e57600080fd5b61019a600480803573ffffffffffffffffffffffffffffffffffffffff1690602001909190505061073f565b6040518082815260200191505060405180910390f35b6101b8610e40565b005b34156101c557600080fd5b6101cd610f5c565b604051808273ffffffffffffffffffffffffffffffffffffffff1673ffffffffffffffffffffffffffffffffffffffff16815260200191505060405180910390f35b341561021a57600080fd5b610234600480803560001916906020019091905050610f85565b6040518080602001828103825283818151815260200191508051906020019080838360005b83811015610274578082015181840152602081019050610259565b50505050905090810190601f1680156102a15780820380516001836020036101000a031916815260200191505b509250505060405180910390f35b6102e06004808035906020019091908035906020019091908035906020019091908035906020019091905050611172565b005b34156102ed57600080fd5b610399600480803573ffffffffffffffffffffffffffffffffffffffff16906020019091908035906020019082018035906020019080806020026020016040519081016040528093929190818152602001838360200280828437820191505050505050919080359060200190820180359060200190808060200260200160405190810160405280939291908181526020018383602002808284378201915050505050509190505061133b565b6040518082815260200191505060405180910390f35b60006103b961156f565b6103c38484611427565b90508060400151156103db57806020015191506103e0565b600091505b5092915050565b600160149054906101000a900460ff1681565b600160009054906101000a900473ffffffffffffffffffffffffffffffffffffffff1673ffffffffffffffffffffffffffffffffffffffff163373ffffffffffffffffffffffffffffffffffffffff1614151561045657600080fd5b6000600381111561046357fe5b600160149054906101000a900460ff16600381111561047e57fe5b14151561048a57600080fd5b3373ffffffffffffffffffffffffffffffffffffffff16ff5b6000806000809054906101000a900473ffffffffffffffffffffffffffffffffffffffff1673ffffffffffffffffffffffffffffffffffffffff163373ffffffffffffffffffffffffffffffffffffffff1614151561050157600080fd5b6001600381111561050e57fe5b600160149054906101000a900460ff16600381111561052957fe5b14151561053557600080fd5b600c60008473ffffffffffffffffffffffffffffffffffffffff1673ffffffffffffffffffffffffffffffffffffffff16815260200190815260200160002091508160030160009054906101000a900460ff16151561059357600080fd5b600015158260010160149054906101000a900460ff1615151415156105b757600080fd5b816002015434101515156105ca57600080fd5b8290508073ffffffffffffffffffffffffffffffffffffffff1663cba2534f620493e0846002015485600201546040518463ffffffff167c0100000000000000000000000000000000000000000000000000000000028152600401808281526020019150506000604051808303818589803b151561064757600080fd5b88f1151561065457600080fd5b505050505060018260010160146101000a81548160ff0219169083151502179055507ee0370db339f2678ab2fd274bb678633e18f0a739aedf0050ed1e449d4f598383600160009054906101000a900473ffffffffffffffffffffffffffffffffffffffff168460020154604051808473ffffffffffffffffffffffffffffffffffffffff1673ffffffffffffffffffffffffffffffffffffffff1681526020018373ffffffffffffffffffffffffffffffffffffffff1673ffffffffffffffffffffffffffffffffffffffff168152602001828152602001935050505060405180910390a1505050565b60008060008060008060006001600381111561075757fe5b600160149054906101000a900460ff16600381111561077257fe5b14151561077e57600080fd5b426005541015151561078f57600080fd5b879550600160009054906101000a900473ffffffffffffffffffffffffffffffffffffffff1673ffffffffffffffffffffffffffffffffffffffff168673ffffffffffffffffffffffffffffffffffffffff16637b0f9a366040518163ffffffff167c0100000000000000000000000000000000000000000000000000000000028152600401602060405180830381600087803b151561082e57600080fd5b5af1151561083b57600080fd5b5050506040518051905073ffffffffffffffffffffffffffffffffffffffff1614151561086757600080fd5b60001515600c60008a73ffffffffffffffffffffffffffffffffffffffff1673ffffffffffffffffffffffffffffffffffffffff16815260200190815260200160002060030160009054906101000a900460ff1615151415156108c957600080fd5b8573ffffffffffffffffffffffffffffffffffffffff16637749cf236040518163ffffffff167c0100000000000000000000000000000000000000000000000000000000028152600401602060405180830381600087803b151561092c57600080fd5b5af1151561093957600080fd5b505050604051805190509450600091505b84821015610aa3578573ffffffffffffffffffffffffffffffffffffffff1663a5adc278836040518263ffffffff167c010000000000000000000000000000000000000000000000000000000002815260040180828152602001915050602060405180830381600087803b15156109c057600080fd5b5af115156109cd57600080fd5b5050506040518051905084838154811015156109e557fe5b9060005260206000209001819055508573ffffffffffffffffffffffffffffffffffffffff1663ced51e17836040518263ffffffff167c010000000000000000000000000000000000000000000000000000000002815260040180828152602001915050602060405180830381600087803b1515610a6257600080fd5b5af11515610a6f57600080fd5b505050604051805190508383815481101515610a8757fe5b906000526020600020900181905550818060010192505061094a565b610bc58673ffffffffffffffffffffffffffffffffffffffff16637b0f9a366040518163ffffffff167c0100000000000000000000000000000000000000000000000000000000028152600401602060405180830381600087803b1515610b0957600080fd5b5af11515610b1657600080fd5b5050506040518051905085805480602002602001604051908101604052809291908181526020018280548015610b6b57602002820191906000526020600020905b815481526020019060010190808311610b57575b505050505085805480602002602001604051908101604052809291908181526020018280548015610bbb57602002820191906000526020600020905b815481526020019060010190808311610ba7575b505050505061133b565b90506000811115610e305760a0604051908101604052808973ffffffffffffffffffffffffffffffffffffffff168152602001600160009054906101000a900473ffffffffffffffffffffffffffffffffffffffff1673ffffffffffffffffffffffffffffffffffffffff16815260200160001515815260200182815260200160011515815250600c60008a73ffffffffffffffffffffffffffffffffffffffff1673ffffffffffffffffffffffffffffffffffffffff16815260200190815260200160002060008201518160000160006101000a81548173ffffffffffffffffffffffffffffffffffffffff021916908373ffffffffffffffffffffffffffffffffffffffff16021790555060208201518160010160006101000a81548173ffffffffffffffffffffffffffffffffffffffff021916908373ffffffffffffffffffffffffffffffffffffffff16021790555060408201518160010160146101000a81548160ff0219169083151502179055506060820151816002015560808201518160030160006101000a81548160ff0219169083151502179055509050507f4937cce2b75e8534dd1b00c796a7527bad00a7993dfb8232adeef9166906da0d88600160009054906101000a900473ffffffffffffffffffffffffffffffffffffffff1683604051808473ffffffffffffffffffffffffffffffffffffffff1673ffffffffffffffffffffffffffffffffffffffff1681526020018373ffffffffffffffffffffffffffffffffffffffff1673ffffffffffffffffffffffffffffffffffffffff168152602001828152602001935050505060405180910390a160009650610e35565b600196505b505050505050919050565b6000809054906101000a900473ffffffffffffffffffffffffffffffffffffffff1673ffffffffffffffffffffffffffffffffffffffff163373ffffffffffffffffffffffffffffffffffffffff16141515610e9b57600080fd5b60016003811115610ea857fe5b600160149054906101000a900460ff166003811115610ec357fe5b141515610ecf57600080fd5b42600554101515610edf57600080fd5b6002600160146101000a81548160ff02191690836003811115610efe57fe5b02179055503373ffffffffffffffffffffffffffffffffffffffff166108fc3073ffffffffffffffffffffffffffffffffffffffff16319081150290604051600060405180830381858888f193505050501515610f5a57600080fd5b565b60008060009054906101000a900473ffffffffffffffffffffffffffffffffffffffff16905090565b610f8d611593565b610f956115a7565b6000806000610fa26115a7565b6020604051805910610fb15750595b9080825280601f01601f1916602001820160405250945060009350600092505b602083101561108f578260080260020a876001900402600102915060007f010000000000000000000000000000000000000000000000000000000000000002827effffffffffffffffffffffffffffffffffffffffffffffffffffffffffffff19161415156110825781858581518110151561104957fe5b9060200101907effffffffffffffffffffffffffffffffffffffffffffffffffffffffffffff1916908160001a90535083806001019450505b8280600101935050610fd1565b8360405180591061109d5750595b9080825280601f01601f19166020018201604052509050600092505b838310156111655784838151811015156110cf57fe5b9060200101517f010000000000000000000000000000000000000000000000000000000000000090047f010000000000000000000000000000000000000000000000000000000000000002818481518110151561112857fe5b9060200101907effffffffffffffffffffffffffffffffffffffffffffffffffffffffffffff1916908160001a90535082806001019350506110b9565b8095505050505050919050565b600081670de0b6b3a76400008102341015151561118e57600080fd5b600160009054906101000a900473ffffffffffffffffffffffffffffffffffffffff1673ffffffffffffffffffffffffffffffffffffffff163373ffffffffffffffffffffffffffffffffffffffff161415156111ea57600080fd5b6111f486866103af565b915060008211151561120557600080fd5b82341015151561121457600080fd5b81831015151561122357600080fd5b42841015151561123257600080fd5b3460038190555084600681905550836004819055506112508561153a565b84016005819055506112628686611427565b6007600082015181600001556020820151816001015560408201518160030160006101000a81548160ff02191690831515021790555090505060018060146101000a81548160ff021916908360038111156112b957fe5b02179055507f8a1cce3c534ef82867c448ebe7381749026d5acd85bbff63d3579daaf406c7813387600354604051808473ffffffffffffffffffffffffffffffffffffffff1673ffffffffffffffffffffffffffffffffffffffff168152602001838152602001828152602001935050505060405180910390a1505050505050565b6000806000806000600381111561134e57fe5b600160149054906101000a900460ff16600381111561136957fe5b14151561137557600080fd5b426005541015151561138657600080fd5b60009250600091505b855182101561141a576007600201600087848151811015156113ad57fe5b90602001906020020151815260200190815260200160002090508060030160009054906101000a900460ff161561140d57606485838151811015156113ee57fe5b9060200190602002015182600201540281151561140757fe5b04830192505b818060010192505061138f565b8293505050509392505050565b61142f61156f565b6114376115bb565b6000600b6000868152602001908152602001600020805480602002602001604051908101604052809291908181526020016000905b828210156114ce57838290600052602060002090600402016060604051908101604052908160008201548152602001600182015481526020016003820160009054906101000a900460ff1615151515815250508152602001906001019061146c565b505050509150600090505b8151811015611531578382828151811015156114f157fe5b9060200190602002015160000151141561152457818181518110151561151357fe5b906020019060200201519250611532565b80806001019150506114d9565b5b505092915050565b600080600080600080601e945060189350603c9250603c91506103e8905080828486888b020202020295505050505050919050565b60606040519081016040528060008152602001600081526020016000151581525090565b602060405190810160405280600081525090565b602060405190810160405280600081525090565b6020604051908101604052806000815250905600a165627a7a72305820f18667ac476338e3b5b44b2d5c050302463a772717431b292ba00f00c31d697a0029a165627a7a723058201ed46638d2510ddf7991ba8d4da7bba3bebd4d2f8830eb69831b4b55c25894c90029",
  "source": "pragma solidity ^0.4.21;\r\nimport \"./ContractPI.sol\";\r\n\r\n/**\r\n * This contract manages all contracts of Patient & Insurer\r\n */\r\ncontract ContractPIList {\r\n    \r\n    mapping(address => address[]) private _patientContractList;\r\n    mapping(address => address[]) private _insurerContractList;\r\n    \r\n    /**\r\n     * Create a ContractPI and save it to the list of contracts of Patient;\r\n     * @param inInsurer address of Insurer account\r\n     * @param inPatient address of Patient account\r\n     */\r\n    function createContract(address inInsurer, address inPatient) public {\r\n        require(msg.sender == inPatient);\r\n        address pi = new ContractPI(inInsurer, inPatient);\r\n        // Add to Patient contracts list\r\n        address[] storage currentContractListOfPatient = _patientContractList[inPatient];\r\n        currentContractListOfPatient.push(pi);\r\n        // Add to Insurer contracts list\r\n        address[] storage currentContractListOfInsurer = _insurerContractList[inInsurer];\r\n        currentContractListOfInsurer.push(pi);\r\n    }\r\n    \r\n    /**\r\n     * Returns list of contracts of a patient\r\n     * @param inPatient address of patient\r\n     * @return address[] list of contract addresses\r\n     */\r\n    function getPatientContracts(address inPatient) public view returns (address[]) {\r\n        return _patientContractList[inPatient];\r\n    }\r\n    \r\n    /**\r\n     * Returns list of contracts of a insurer\r\n     * @param inInsurer address of insurer\r\n     * @return address[] list of contract addresses\r\n     */\r\n    function getInsurerContracts(address inInsurer) public view returns (address[]) {\r\n        return _insurerContractList[inInsurer];\r\n    }\r\n    \r\n}",
  "sourcePath": "F:\\Data\\Blcokchain\\Project\\findclinic\\findclinic\\contracts\\ContractPIList.sol",
  "compiler": {
    "name": "solc",
    "version": "0.4.21+commit.dfe3193c.Emscripten.clang"
  },
  "schemaVersion": "2.0.0",
  "updatedAt": "2018-04-26T17:38:27.698Z"
}