{
  "contractName": "ContractPIList",
  "abi": [
    {
      "constant": false,
      "inputs": [
        {
          "name": "inInsurer",
          "type": "address"
        },
        {
          "name": "inPatient",
          "type": "address"
        }
      ],
      "name": "createContract",
      "outputs": [],
      "payable": false,
      "stateMutability": "nonpayable",
      "type": "function"
    },
    {
      "constant": false,
      "inputs": [
        {
          "name": "inPatient",
          "type": "address"
        }
      ],
      "name": "getPatientContracts",
      "outputs": [
        {
          "name": "",
          "type": "address[]"
        }
      ],
      "payable": false,
      "stateMutability": "nonpayable",
      "type": "function"
    },
    {
      "constant": false,
      "inputs": [
        {
          "name": "inInsurer",
          "type": "address"
        }
      ],
      "name": "getInsurerContracts",
      "outputs": [
        {
          "name": "",
          "type": "address[]"
        }
      ],
      "payable": false,
      "stateMutability": "nonpayable",
      "type": "function"
    }
  ],
  "bytecode": "0x6060604052341561000f57600080fd5b611cf08061001e6000396000f300606060405260043610610057576000357c0100000000000000000000000000000000000000000000000000000000900463ffffffff1680633c46c43c1461005c5780635aa6e3df146100b4578063a28557d614610142575b600080fd5b341561006757600080fd5b6100b2600480803573ffffffffffffffffffffffffffffffffffffffff1690602001909190803573ffffffffffffffffffffffffffffffffffffffff169060200190919050506101d0565b005b34156100bf57600080fd5b6100eb600480803573ffffffffffffffffffffffffffffffffffffffff169060200190919050506103e6565b6040518080602001828103825283818151815260200191508051906020019060200280838360005b8381101561012e578082015181840152602081019050610113565b505050509050019250505060405180910390f35b341561014d57600080fd5b610179600480803573ffffffffffffffffffffffffffffffffffffffff169060200190919050506104b9565b6040518080602001828103825283818151815260200191508051906020019060200280838360005b838110156101bc5780820151818401526020810190506101a1565b505050509050019250505060405180910390f35b60008060008373ffffffffffffffffffffffffffffffffffffffff163373ffffffffffffffffffffffffffffffffffffffff1614151561020f57600080fd5b848461021961058b565b808373ffffffffffffffffffffffffffffffffffffffff1673ffffffffffffffffffffffffffffffffffffffff1681526020018273ffffffffffffffffffffffffffffffffffffffff1673ffffffffffffffffffffffffffffffffffffffff16815260200192505050604051809103906000f080151561029857600080fd5b92506000808573ffffffffffffffffffffffffffffffffffffffff1673ffffffffffffffffffffffffffffffffffffffff16815260200190815260200160002091508180548060010182816102ed919061059b565b9160005260206000209001600085909190916101000a81548173ffffffffffffffffffffffffffffffffffffffff021916908373ffffffffffffffffffffffffffffffffffffffff16021790555050600160008673ffffffffffffffffffffffffffffffffffffffff1673ffffffffffffffffffffffffffffffffffffffff1681526020019081526020016000209050808054806001018281610390919061059b565b9160005260206000209001600085909190916101000a81548173ffffffffffffffffffffffffffffffffffffffff021916908373ffffffffffffffffffffffffffffffffffffffff160217905550505050505050565b6103ee6105c7565b600160008373ffffffffffffffffffffffffffffffffffffffff1673ffffffffffffffffffffffffffffffffffffffff1681526020019081526020016000208054806020026020016040519081016040528092919081815260200182805480156104ad57602002820191906000526020600020905b8160009054906101000a900473ffffffffffffffffffffffffffffffffffffffff1673ffffffffffffffffffffffffffffffffffffffff1681526020019060010190808311610463575b50505050509050919050565b6104c16105c7565b6000808373ffffffffffffffffffffffffffffffffffffffff1673ffffffffffffffffffffffffffffffffffffffff16815260200190815260200160002080548060200260200160405190810160405280929190818152602001828054801561057f57602002820191906000526020600020905b8160009054906101000a900473ffffffffffffffffffffffffffffffffffffffff1673ffffffffffffffffffffffffffffffffffffffff1681526020019060010190808311610535575b50505050509050919050565b6040516116c48061060183390190565b8154818355818115116105c2578183600052602060002091820191016105c191906105db565b5b505050565b602060405190810160405280600081525090565b6105fd91905b808211156105f95760008160009055506001016105e1565b5090565b9056006060604052341561000f57600080fd5b6040516040806116c4833981016040528080519060200190919080519060200190919050508073ffffffffffffffffffffffffffffffffffffffff163373ffffffffffffffffffffffffffffffffffffffff1614151561006e57600080fd5b816000806101000a81548173ffffffffffffffffffffffffffffffffffffffff021916908373ffffffffffffffffffffffffffffffffffffffff16021790555080600160006101000a81548173ffffffffffffffffffffffffffffffffffffffff021916908373ffffffffffffffffffffffffffffffffffffffff1602179055506000600160146101000a81548160ff0219169083600381111561010e57fe5b021790555050506115a0806101246000396000f3006060604052600436106100a4576000357c0100000000000000000000000000000000000000000000000000000000900463ffffffff1680630cc86d3d146100a95780630fb3844c146100e95780631a9bf8041461012057806322edc9791461013557806323bb2e921461016357806346048144146101b05780635d0c1476146101ba5780639201de551461020f578063ceff1146146102af578063f41c8a0c146102e2575b600080fd5b34156100b457600080fd5b6100d360048080359060200190919080359060200190919050506103af565b6040518082815260200191505060405180910390f35b34156100f457600080fd5b6100fc6103e7565b6040518082600381111561010c57fe5b60ff16815260200191505060405180910390f35b341561012b57600080fd5b6101336103fa565b005b610161600480803573ffffffffffffffffffffffffffffffffffffffff169060200190919050506104a3565b005b341561016e57600080fd5b61019a600480803573ffffffffffffffffffffffffffffffffffffffff1690602001909190505061073f565b6040518082815260200191505060405180910390f35b6101b8610e40565b005b34156101c557600080fd5b6101cd610f5c565b604051808273ffffffffffffffffffffffffffffffffffffffff1673ffffffffffffffffffffffffffffffffffffffff16815260200191505060405180910390f35b341561021a57600080fd5b610234600480803560001916906020019091905050610f85565b6040518080602001828103825283818151815260200191508051906020019080838360005b83811015610274578082015181840152602081019050610259565b50505050905090810190601f1680156102a15780820380516001836020036101000a031916815260200191505b509250505060405180910390f35b6102e06004808035906020019091908035906020019091908035906020019091908035906020019091905050611172565b005b34156102ed57600080fd5b610399600480803573ffffffffffffffffffffffffffffffffffffffff16906020019091908035906020019082018035906020019080806020026020016040519081016040528093929190818152602001838360200280828437820191505050505050919080359060200190820180359060200190808060200260200160405190810160405280939291908181526020018383602002808284378201915050505050509190505061133b565b6040518082815260200191505060405180910390f35b60006103b9611528565b6103c38484611427565b90508060400151156103db57806020015191506103e0565b600091505b5092915050565b600160149054906101000a900460ff1681565b600160009054906101000a900473ffffffffffffffffffffffffffffffffffffffff1673ffffffffffffffffffffffffffffffffffffffff163373ffffffffffffffffffffffffffffffffffffffff1614151561045657600080fd5b6000600381111561046357fe5b600160149054906101000a900460ff16600381111561047e57fe5b14151561048a57600080fd5b3373ffffffffffffffffffffffffffffffffffffffff16ff5b6000806000809054906101000a900473ffffffffffffffffffffffffffffffffffffffff1673ffffffffffffffffffffffffffffffffffffffff163373ffffffffffffffffffffffffffffffffffffffff1614151561050157600080fd5b6001600381111561050e57fe5b600160149054906101000a900460ff16600381111561052957fe5b14151561053557600080fd5b600c60008473ffffffffffffffffffffffffffffffffffffffff1673ffffffffffffffffffffffffffffffffffffffff16815260200190815260200160002091508160030160009054906101000a900460ff16151561059357600080fd5b600015158260010160149054906101000a900460ff1615151415156105b757600080fd5b816002015434101515156105ca57600080fd5b8290508073ffffffffffffffffffffffffffffffffffffffff1663cba2534f620493e0846002015485600201546040518463ffffffff167c0100000000000000000000000000000000000000000000000000000000028152600401808281526020019150506000604051808303818589803b151561064757600080fd5b88f1151561065457600080fd5b505050505060018260010160146101000a81548160ff0219169083151502179055507ee0370db339f2678ab2fd274bb678633e18f0a739aedf0050ed1e449d4f598383600160009054906101000a900473ffffffffffffffffffffffffffffffffffffffff168460020154604051808473ffffffffffffffffffffffffffffffffffffffff1673ffffffffffffffffffffffffffffffffffffffff1681526020018373ffffffffffffffffffffffffffffffffffffffff1673ffffffffffffffffffffffffffffffffffffffff168152602001828152602001935050505060405180910390a1505050565b60008060008060008060006001600381111561075757fe5b600160149054906101000a900460ff16600381111561077257fe5b14151561077e57600080fd5b426005541015151561078f57600080fd5b879550600160009054906101000a900473ffffffffffffffffffffffffffffffffffffffff1673ffffffffffffffffffffffffffffffffffffffff168673ffffffffffffffffffffffffffffffffffffffff16637b0f9a366040518163ffffffff167c0100000000000000000000000000000000000000000000000000000000028152600401602060405180830381600087803b151561082e57600080fd5b5af1151561083b57600080fd5b5050506040518051905073ffffffffffffffffffffffffffffffffffffffff1614151561086757600080fd5b60001515600c60008a73ffffffffffffffffffffffffffffffffffffffff1673ffffffffffffffffffffffffffffffffffffffff16815260200190815260200160002060030160009054906101000a900460ff1615151415156108c957600080fd5b8573ffffffffffffffffffffffffffffffffffffffff16637749cf236040518163ffffffff167c0100000000000000000000000000000000000000000000000000000000028152600401602060405180830381600087803b151561092c57600080fd5b5af1151561093957600080fd5b505050604051805190509450600091505b84821015610aa3578573ffffffffffffffffffffffffffffffffffffffff1663a5adc278836040518263ffffffff167c010000000000000000000000000000000000000000000000000000000002815260040180828152602001915050602060405180830381600087803b15156109c057600080fd5b5af115156109cd57600080fd5b5050506040518051905084838154811015156109e557fe5b9060005260206000209001819055508573ffffffffffffffffffffffffffffffffffffffff1663ced51e17836040518263ffffffff167c010000000000000000000000000000000000000000000000000000000002815260040180828152602001915050602060405180830381600087803b1515610a6257600080fd5b5af11515610a6f57600080fd5b505050604051805190508383815481101515610a8757fe5b906000526020600020900181905550818060010192505061094a565b610bc58673ffffffffffffffffffffffffffffffffffffffff16637b0f9a366040518163ffffffff167c0100000000000000000000000000000000000000000000000000000000028152600401602060405180830381600087803b1515610b0957600080fd5b5af11515610b1657600080fd5b5050506040518051905085805480602002602001604051908101604052809291908181526020018280548015610b6b57602002820191906000526020600020905b815481526020019060010190808311610b57575b505050505085805480602002602001604051908101604052809291908181526020018280548015610bbb57602002820191906000526020600020905b815481526020019060010190808311610ba7575b505050505061133b565b90506000811115610e305760a0604051908101604052808973ffffffffffffffffffffffffffffffffffffffff168152602001600160009054906101000a900473ffffffffffffffffffffffffffffffffffffffff1673ffffffffffffffffffffffffffffffffffffffff16815260200160001515815260200182815260200160011515815250600c60008a73ffffffffffffffffffffffffffffffffffffffff1673ffffffffffffffffffffffffffffffffffffffff16815260200190815260200160002060008201518160000160006101000a81548173ffffffffffffffffffffffffffffffffffffffff021916908373ffffffffffffffffffffffffffffffffffffffff16021790555060208201518160010160006101000a81548173ffffffffffffffffffffffffffffffffffffffff021916908373ffffffffffffffffffffffffffffffffffffffff16021790555060408201518160010160146101000a81548160ff0219169083151502179055506060820151816002015560808201518160030160006101000a81548160ff0219169083151502179055509050507f4937cce2b75e8534dd1b00c796a7527bad00a7993dfb8232adeef9166906da0d88600160009054906101000a900473ffffffffffffffffffffffffffffffffffffffff1683604051808473ffffffffffffffffffffffffffffffffffffffff1673ffffffffffffffffffffffffffffffffffffffff1681526020018373ffffffffffffffffffffffffffffffffffffffff1673ffffffffffffffffffffffffffffffffffffffff168152602001828152602001935050505060405180910390a160009650610e35565b600196505b505050505050919050565b6000809054906101000a900473ffffffffffffffffffffffffffffffffffffffff1673ffffffffffffffffffffffffffffffffffffffff163373ffffffffffffffffffffffffffffffffffffffff16141515610e9b57600080fd5b60016003811115610ea857fe5b600160149054906101000a900460ff166003811115610ec357fe5b141515610ecf57600080fd5b42600554101515610edf57600080fd5b6002600160146101000a81548160ff02191690836003811115610efe57fe5b02179055503373ffffffffffffffffffffffffffffffffffffffff166108fc3073ffffffffffffffffffffffffffffffffffffffff16319081150290604051600060405180830381858888f193505050501515610f5a57600080fd5b565b60008060009054906101000a900473ffffffffffffffffffffffffffffffffffffffff16905090565b610f8d61154c565b610f95611560565b6000806000610fa2611560565b6020604051805910610fb15750595b9080825280601f01601f1916602001820160405250945060009350600092505b602083101561108f578260080260020a876001900402600102915060007f010000000000000000000000000000000000000000000000000000000000000002827effffffffffffffffffffffffffffffffffffffffffffffffffffffffffffff19161415156110825781858581518110151561104957fe5b9060200101907effffffffffffffffffffffffffffffffffffffffffffffffffffffffffffff1916908160001a90535083806001019450505b8280600101935050610fd1565b8360405180591061109d5750595b9080825280601f01601f19166020018201604052509050600092505b838310156111655784838151811015156110cf57fe5b9060200101517f010000000000000000000000000000000000000000000000000000000000000090047f010000000000000000000000000000000000000000000000000000000000000002818481518110151561112857fe5b9060200101907effffffffffffffffffffffffffffffffffffffffffffffffffffffffffffff1916908160001a90535082806001019350506110b9565b8095505050505050919050565b600081670de0b6b3a76400008102341015151561118e57600080fd5b600160009054906101000a900473ffffffffffffffffffffffffffffffffffffffff1673ffffffffffffffffffffffffffffffffffffffff163373ffffffffffffffffffffffffffffffffffffffff161415156111ea57600080fd5b6111f486866103af565b915060008211151561120557600080fd5b82341015151561121457600080fd5b81831015151561122357600080fd5b42841015151561123257600080fd5b346003819055508460068190555083600481905550611250856114f3565b84016005819055506112628686611427565b6007600082015181600001556020820151816001015560408201518160030160006101000a81548160ff02191690831515021790555090505060018060146101000a81548160ff021916908360038111156112b957fe5b02179055507f8a1cce3c534ef82867c448ebe7381749026d5acd85bbff63d3579daaf406c7813387600354604051808473ffffffffffffffffffffffffffffffffffffffff1673ffffffffffffffffffffffffffffffffffffffff168152602001838152602001828152602001935050505060405180910390a1505050505050565b6000806000806000600381111561134e57fe5b600160149054906101000a900460ff16600381111561136957fe5b14151561137557600080fd5b426005541015151561138657600080fd5b60009250600091505b855182101561141a576007600201600087848151811015156113ad57fe5b90602001906020020151815260200190815260200160002090508060020160009054906101000a900460ff161561140d57606485838151811015156113ee57fe5b9060200190602002015182600101540281151561140757fe5b04830192505b818060010192505061138f565b8293505050509392505050565b61142f611528565b600080600b60008681526020019081526020016000209150600090505b81805490508110156114ea5783828281548110151561146757fe5b90600052602060002090600402016000015414156114dd57818181548110151561148d57fe5b90600052602060002090600402016060604051908101604052908160008201548152602001600182015481526020016003820160009054906101000a900460ff16151515158152505092506114eb565b808060010191505061144c565b5b505092915050565b600080600080600080601e945060189350603c9250603c91506103e8905080828486888b020202020295505050505050919050565b60606040519081016040528060008152602001600081526020016000151581525090565b602060405190810160405280600081525090565b6020604051908101604052806000815250905600a165627a7a72305820d2b15d279f9006caa2df5b4c6ff7a996bfcd2e083bfaa383a67124229cbaeabe0029a165627a7a72305820483dc7129c274c14b10a43685e3a8e171f74cf6cd654c66f77570127be4590b40029",
  "source": "pragma solidity ^0.4.21;\r\nimport \"./ContractPI.sol\";\r\n\r\n/**\r\n * This contract manages all contracts of Patient & Insurer\r\n */\r\ncontract ContractPIList {\r\n    \r\n    mapping(address => address[]) private _patientContractList;\r\n    mapping(address => address[]) private _insurerContractList;\r\n    \r\n    /**\r\n     * Create a ContractPI and save it to the list of contracts of Patient;\r\n     * @param inInsurer address of Insurer account\r\n     * @param inPatient address of Patient account\r\n     */\r\n    function createContract(address inInsurer, address inPatient) {\r\n        require(msg.sender == inPatient);\r\n        address pi = new ContractPI(inInsurer, inPatient);\r\n        // Add to Patient contracts list\r\n        address[] currentContractListOfPatient = _patientContractList[inPatient];\r\n        currentContractListOfPatient.push(pi);\r\n        // Add to Insurer contracts list\r\n        address[] currentContractListOfInsurer = _insurerContractList[inInsurer];\r\n        currentContractListOfInsurer.push(pi);\r\n    }\r\n    \r\n    /**\r\n     * Returns list of contracts of a patient\r\n     * @param inPatient address of patient\r\n     * @return address[] list of contract addresses\r\n     */\r\n    function getPatientContracts(address inPatient) returns (address[]) {\r\n        return _patientContractList[inPatient];\r\n    }\r\n    \r\n    /**\r\n     * Returns list of contracts of a insurer\r\n     * @param inInsurer address of insurer\r\n     * @return address[] list of contract addresses\r\n     */\r\n    function getInsurerContracts(address inInsurer) returns (address[]) {\r\n        return _insurerContractList[inInsurer];\r\n    }\r\n    \r\n}",
  "sourcePath": "F:\\Data\\Blcokchain\\Project\\findclinic\\findclinic\\contracts\\ContractPIList.sol",
  "compiler": {
    "name": "solc",
    "version": "0.4.21+commit.dfe3193c.Emscripten.clang"
  },
  "schemaVersion": "2.0.0",
  "updatedAt": "2018-04-19T21:50:19.945Z"
}