{
  "contractName": "ContractCP",
  "abi": [
    {
      "constant": true,
      "inputs": [],
      "name": "_status",
      "outputs": [
        {
          "name": "",
          "type": "uint8"
        }
      ],
      "payable": false,
      "stateMutability": "view",
      "type": "function"
    },
    {
      "inputs": [
        {
          "name": "inClinic",
          "type": "address"
        },
        {
          "name": "inPatient",
          "type": "address"
        },
        {
          "name": "inCheckItems",
          "type": "uint256[]"
        }
      ],
      "payable": false,
      "stateMutability": "nonpayable",
      "type": "constructor"
    },
    {
      "anonymous": false,
      "inputs": [
        {
          "indexed": false,
          "name": "",
          "type": "uint256"
        },
        {
          "indexed": false,
          "name": "",
          "type": "uint256"
        }
      ],
      "name": "InformTotalFee",
      "type": "event"
    },
    {
      "anonymous": false,
      "inputs": [
        {
          "indexed": false,
          "name": "",
          "type": "uint256"
        }
      ],
      "name": "PatientPaid",
      "type": "event"
    },
    {
      "anonymous": false,
      "inputs": [
        {
          "indexed": false,
          "name": "",
          "type": "uint256"
        }
      ],
      "name": "InsurerPaid",
      "type": "event"
    },
    {
      "anonymous": false,
      "inputs": [],
      "name": "ReadyToCheck",
      "type": "event"
    },
    {
      "constant": false,
      "inputs": [
        {
          "name": "inContractPI",
          "type": "address"
        }
      ],
      "name": "clinicAcceptPatient",
      "outputs": [],
      "payable": false,
      "stateMutability": "nonpayable",
      "type": "function"
    },
    {
      "constant": false,
      "inputs": [],
      "name": "calculateFee",
      "outputs": [
        {
          "name": "",
          "type": "uint256"
        },
        {
          "name": "",
          "type": "uint256"
        }
      ],
      "payable": false,
      "stateMutability": "nonpayable",
      "type": "function"
    },
    {
      "constant": false,
      "inputs": [],
      "name": "patientPay",
      "outputs": [],
      "payable": true,
      "stateMutability": "payable",
      "type": "function"
    },
    {
      "constant": false,
      "inputs": [],
      "name": "insurerPay",
      "outputs": [],
      "payable": true,
      "stateMutability": "payable",
      "type": "function"
    },
    {
      "constant": false,
      "inputs": [],
      "name": "checkForPay",
      "outputs": [],
      "payable": false,
      "stateMutability": "nonpayable",
      "type": "function"
    },
    {
      "constant": false,
      "inputs": [],
      "name": "patientConfirm",
      "outputs": [],
      "payable": true,
      "stateMutability": "payable",
      "type": "function"
    },
    {
      "constant": false,
      "inputs": [],
      "name": "patientCancel",
      "outputs": [],
      "payable": false,
      "stateMutability": "nonpayable",
      "type": "function"
    },
    {
      "constant": true,
      "inputs": [],
      "name": "getPatient",
      "outputs": [
        {
          "name": "",
          "type": "address"
        }
      ],
      "payable": false,
      "stateMutability": "view",
      "type": "function"
    },
    {
      "constant": true,
      "inputs": [
        {
          "name": "inIndex",
          "type": "uint256"
        }
      ],
      "name": "getCheckItem",
      "outputs": [
        {
          "name": "",
          "type": "uint256"
        }
      ],
      "payable": false,
      "stateMutability": "view",
      "type": "function"
    },
    {
      "constant": true,
      "inputs": [
        {
          "name": "inIndex",
          "type": "uint256"
        }
      ],
      "name": "getCheckPrice",
      "outputs": [
        {
          "name": "",
          "type": "uint256"
        }
      ],
      "payable": false,
      "stateMutability": "view",
      "type": "function"
    },
    {
      "constant": true,
      "inputs": [],
      "name": "getItemCount",
      "outputs": [
        {
          "name": "",
          "type": "uint256"
        }
      ],
      "payable": false,
      "stateMutability": "view",
      "type": "function"
    },
    {
      "constant": false,
      "inputs": [
        {
          "name": "inAmount",
          "type": "uint256"
        }
      ],
      "name": "receive",
      "outputs": [],
      "payable": true,
      "stateMutability": "payable",
      "type": "function"
    },
    {
      "constant": true,
      "inputs": [
        {
          "name": "source",
          "type": "string"
        }
      ],
      "name": "stringToBytes32",
      "outputs": [
        {
          "name": "result",
          "type": "bytes32"
        }
      ],
      "payable": false,
      "stateMutability": "pure",
      "type": "function"
    }
  ],
  "bytecode": "0x606060405234156200001057600080fd5b6040516200180438038062001804833981016040528080519060200190919080519060200190919080518201919050506200004a620008c1565b62000054620008c1565b6200005e620008c1565b62000068620008c1565b62000072620008c1565b6200007c620008c1565b62000086620008c1565b62000090620008c1565b60008060008b51111515620000a457600080fd5b8c6000806101000a81548173ffffffffffffffffffffffffffffffffffffffff021916908373ffffffffffffffffffffffffffffffffffffffff1602179055508b600160006101000a81548173ffffffffffffffffffffffffffffffffffffffff021916908373ffffffffffffffffffffffffffffffffffffffff1602179055506000600460006101000a81548160ff021916908360048111156200014557fe5b0217905550608060405190810160405280600181526020016040805190810160405280600581526020017f466576657200000000000000000000000000000000000000000000000000000081525081526020016001815260200160011515815250995089600b600060018152602001908152602001600020600082015181600001556020820151816001019080519060200190620001e5929190620008f4565b506040820151816002015560608201518160030160006101000a81548160ff021916908315150217905550905050608060405190810160405280600281526020016040805190810160405280600381526020017f466c75000000000000000000000000000000000000000000000000000000000081525081526020016001815260200160011515815250985088600b600060028152602001908152602001600020600082015181600001556020820151816001019080519060200190620002ae929190620008f4565b506040820151816002015560608201518160030160006101000a81548160ff021916908315150217905550905050608060405190810160405280600381526020016040805190810160405280600881526020017f4261636b6163686500000000000000000000000000000000000000000000000081525081526020016002815260200160011515815250975087600b60006003815260200190815260200160002060008201518160000155602082015181600101908051906020019062000377929190620008f4565b506040820151816002015560608201518160030160006101000a81548160ff021916908315150217905550905050608060405190810160405280600481526020016040805190810160405280600c81526020017f53746f6d6163682061636865000000000000000000000000000000000000000081525081526020016002815260200160011515815250965086600b60006004815260200190815260200160002060008201518160000155602082015181600101908051906020019062000440929190620008f4565b506040820151816002015560608201518160030160006101000a81548160ff021916908315150217905550905050608060405190810160405280600581526020016040805190810160405280600881526020017f486561646163686500000000000000000000000000000000000000000000000081525081526020016003815260200160011515815250955085600b60006005815260200190815260200160002060008201518160000155602082015181600101908051906020019062000509929190620008f4565b506040820151816002015560608201518160030160006101000a81548160ff021916908315150217905550905050608060405190810160405280600681526020016040805190810160405280600981526020017f546f6f746861636865000000000000000000000000000000000000000000000081525081526020016003815260200160011515815250945084600b600060068152602001908152602001600020600082015181600001556020820151816001019080519060200190620005d2929190620008f4565b506040820151816002015560608201518160030160006101000a81548160ff021916908315150217905550905050608060405190810160405280600781526020016040805190810160405280600681526020017f43616e63657200000000000000000000000000000000000000000000000000008152508152602001600a815260200160011515815250935083600b6000600781526020019081526020016000206000820151816000015560208201518160010190805190602001906200069b929190620008f4565b506040820151816002015560608201518160030160006101000a81548160ff021916908315150217905550905050608060405190810160405280600881526020016040805190810160405280601381526020017f47656e6572616c206578616d696e6174696f6e0000000000000000000000000081525081526020016005815260200160011515815250925082600b60006008815260200190815260200160002060008201518160000155602082015181600101908051906020019062000764929190620008f4565b506040820151816002015560608201518160030160006101000a81548160ff021916908315150217905550905050600091505b8a51821015620008ae57600b60008c84815181101515620007b457fe5b9060200190602002015181526020019081526020016000209050600015158160030160009054906101000a900460ff1615151415620007f257600080fd5b80600c60008d858151811015156200080657fe5b9060200190602002015181526020019081526020016000206000820154816000015560018201816001019080546001816001161561010002031660029004620008519291906200097b565b50600282015481600201556003820160009054906101000a900460ff168160030160006101000a81548160ff0219169083151502179055509050508060020154600660008282540192505081905550818060010192505062000797565b5050505050505050505050505062000a45565b60806040519081016040528060008152602001620008de62000a09565b8152602001600081526020016000151581525090565b828054600181600116156101000203166002900490600052602060002090601f016020900481019282601f106200093757805160ff191683800117855562000968565b8280016001018555821562000968579182015b82811115620009675782518255916020019190600101906200094a565b5b50905062000977919062000a1d565b5090565b828054600181600116156101000203166002900490600052602060002090601f016020900481019282601f10620009b65780548555620009f6565b82800160010185558215620009f657600052602060002091601f016020900482015b82811115620009f5578254825591600101919060010190620009d8565b5b50905062000a05919062000a1d565b5090565b602060405190810160405280600081525090565b62000a4291905b8082111562000a3e57600081600090555060010162000a24565b5090565b90565b610daf8062000a556000396000f3006060604052600436106100d0576000357c0100000000000000000000000000000000000000000000000000000000900463ffffffff1680630f05f8ec146100d55780630fb3844c146100df5780631a7130fa146101165780631a9bf804146101205780637749cf23146101355780637b0f9a361461015e5780639425a41f146101b3578063a5adc278146101bd578063a724390b146101f4578063bbb1d43a14610209578063cba2534f14610242578063ced51e171461025a578063cfb5192814610291578063e6af35f01461030a575b600080fd5b6100dd61033a565b005b34156100ea57600080fd5b6100f261046c565b6040518082600481111561010257fe5b60ff16815260200191505060405180910390f35b61011e61047f565b005b341561012b57600080fd5b610133610630565b005b341561014057600080fd5b6101486106fc565b6040518082815260200191505060405180910390f35b341561016957600080fd5b610171610709565b604051808273ffffffffffffffffffffffffffffffffffffffff1673ffffffffffffffffffffffffffffffffffffffff16815260200191505060405180910390f35b6101bb610733565b005b34156101c857600080fd5b6101de6004808035906020019091905050610861565b6040518082815260200191505060405180910390f35b34156101ff57600080fd5b610207610885565b005b341561021457600080fd5b610240600480803573ffffffffffffffffffffffffffffffffffffffff1690602001909190505061095b565b005b6102586004808035906020019091905050610a52565b005b341561026557600080fd5b61027b6004808035906020019091905050610a70565b6040518082815260200191505060405180910390f35b341561029c57600080fd5b6102ec600480803590602001908201803590602001908080601f01602080910402602001604051908101604052809392919081815260200183838082843782019150505050505091905050610a94565b60405180826000191660001916815260200191505060405180910390f35b341561031557600080fd5b61031d610ac5565b604051808381526020018281526020019250505060405180910390f35b600160009054906101000a900473ffffffffffffffffffffffffffffffffffffffff1673ffffffffffffffffffffffffffffffffffffffff163373ffffffffffffffffffffffffffffffffffffffff1614151561039657600080fd5b600160048111156103a357fe5b600460009054906101000a900460ff1660048111156103be57fe5b1415156103ca57600080fd5b60006008541115156103db57600080fd5b60001515600760149054906101000a900460ff1615151415156103fd57600080fd5b600854341015151561040e57600080fd5b6001600760146101000a81548160ff0219169083151502179055507f264ec5a5e75174de18676d5eddf10ee3a72809b018b55e793335e489f3c52a466008546040518082815260200191505060405180910390a161046a610885565b565b600460009054906101000a900460ff1681565b60006001600481111561048e57fe5b600460009054906101000a900460ff1660048111156104a957fe5b1415156104b557600080fd5b6000600a541115156104c657600080fd5b60001515600960009054906101000a900460ff1615151415156104e857600080fd5b600760009054906101000a900473ffffffffffffffffffffffffffffffffffffffff1690508073ffffffffffffffffffffffffffffffffffffffff16635d0c14766040518163ffffffff167c0100000000000000000000000000000000000000000000000000000000028152600401602060405180830381600087803b151561057057600080fd5b5af1151561057d57600080fd5b5050506040518051905073ffffffffffffffffffffffffffffffffffffffff163373ffffffffffffffffffffffffffffffffffffffff161415156105c057600080fd5b600a5434101515156105d157600080fd5b6001600960006101000a81548160ff0219169083151502179055507fbb9156848db4eba42489ab5289a87bdedb524516d1a00aca8f80254ca8fab1606008546040518082815260200191505060405180910390a161062d610885565b50565b600160009054906101000a900473ffffffffffffffffffffffffffffffffffffffff1673ffffffffffffffffffffffffffffffffffffffff163373ffffffffffffffffffffffffffffffffffffffff1614151561068c57600080fd5b6000600481111561069957fe5b600460009054906101000a900460ff1660048111156106b457fe5b1415156106c057600080fd5b60048060006101000a81548160ff021916908360048111156106de57fe5b02179055503373ffffffffffffffffffffffffffffffffffffffff16ff5b6000600280549050905090565b6000600160009054906101000a900473ffffffffffffffffffffffffffffffffffffffff16905090565b600160009054906101000a900473ffffffffffffffffffffffffffffffffffffffff1673ffffffffffffffffffffffffffffffffffffffff163373ffffffffffffffffffffffffffffffffffffffff1614151561078f57600080fd5b6002600481111561079c57fe5b600460009054906101000a900460ff1660048111156107b757fe5b1415156107c357600080fd5b6000809054906101000a900473ffffffffffffffffffffffffffffffffffffffff1673ffffffffffffffffffffffffffffffffffffffff166108fc3073ffffffffffffffffffffffffffffffffffffffff16319081150290604051600060405180830381858888f19350505050151561083b57600080fd5b6003600460006101000a81548160ff0219169083600481111561085a57fe5b0217905550565b600060028281548110151561087257fe5b9060005260206000209001549050919050565b6001600481111561089257fe5b600460009054906101000a900460ff1660048111156108ad57fe5b1415156108b957600080fd5b6000600a5414806108d65750600960009054906101000a900460ff165b15156108e157600080fd5b600060085414806108fe5750600760149054906101000a900460ff165b151561090957600080fd5b6002600460006101000a81548160ff0219169083600481111561092857fe5b02179055507fd21fe0e7e6104dd7a16dae7ee3840a34e216bef186aacce48991c731271b7e2f60405160405180910390a1565b6000809054906101000a900473ffffffffffffffffffffffffffffffffffffffff1673ffffffffffffffffffffffffffffffffffffffff163373ffffffffffffffffffffffffffffffffffffffff161415156109b657600080fd5b600060048111156109c357fe5b600460009054906101000a900460ff1660048111156109de57fe5b1415156109ea57600080fd5b80600760006101000a81548173ffffffffffffffffffffffffffffffffffffffff021916908373ffffffffffffffffffffffffffffffffffffffff1602179055506001600460006101000a81548160ff02191690836004811115610a4a57fe5b021790555050565b80670de0b6b3a764000081023410151515610a6c57600080fd5b5050565b6000600382815481101515610a8157fe5b9060005260206000209001549050919050565b6000610a9e610d5b565b829050600081511415610ab75760006001029150610abf565b602083015191505b50919050565b6000806000610ad2610d6f565b6000809054906101000a900473ffffffffffffffffffffffffffffffffffffffff1673ffffffffffffffffffffffffffffffffffffffff163373ffffffffffffffffffffffffffffffffffffffff16141515610b2d57600080fd5b60016004811115610b3a57fe5b600460009054906101000a900460ff166004811115610b5557fe5b141515610b6157600080fd5b600760009054906101000a900473ffffffffffffffffffffffffffffffffffffffff1691506002604051805910610b955750595b908082528060200260200182016040525090508173ffffffffffffffffffffffffffffffffffffffff166323bb2e92306040518263ffffffff167c0100000000000000000000000000000000000000000000000000000000028152600401808273ffffffffffffffffffffffffffffffffffffffff1673ffffffffffffffffffffffffffffffffffffffff168152602001915050602060405180830381600087803b1515610c4257600080fd5b5af11515610c4f57600080fd5b50505060405180519050816000815181101515610c6857fe5b9060200190602002018181525050806000815181101515610c8557fe5b9060200190602002015160065403816001815181101515610ca257fe5b90602001906020020181815250507ffde0443d61488fe9f4cf506334711e584adaf98ab54983ad7b658ef41a329368816000815181101515610ce057fe5b90602001906020020151826001815181101515610cf957fe5b90602001906020020151604051808381526020018281526020019250505060405180910390a1806000815181101515610d2e57fe5b90602001906020020151816001815181101515610d4757fe5b906020019060200201519350935050509091565b602060405190810160405280600081525090565b6020604051908101604052806000815250905600a165627a7a72305820db1575402f52c9529a1f838c45b6aa8b77953abfc21dd8413cd795c39e1caadb0029",
  "source": "pragma solidity ^0.4.21;\r\nimport \"./ContractPI.sol\";\r\n\r\n\r\ncontract ContractCP {\r\n    \r\n    enum Status {NEW, WAITING_FOR_PAID, CHECKING, DONE, CANCELLED}\r\n    \r\n    struct Item {\r\n        uint id;\r\n        string name;\r\n        uint price;\r\n        bool isValid;\r\n    }\r\n    \r\n    address private _clinic;\r\n    address private _patient;\r\n    uint[] private _checkItems;\r\n    uint[] private _checkPrices;\r\n    Status public _status;\r\n    string private _desc;\r\n    uint private _totalFee;\r\n    \r\n    address private _contractPI;\r\n    bool private _patientPaid;\r\n    uint private _patientPaidAmount;\r\n    bool private _insurerPaid;\r\n    uint private _insurerPaidAmount;\r\n    \r\n    mapping(uint => Item) _availableItems;\r\n    mapping(uint => Item) _selectedItem;\r\n    \r\n    function ContractCP(address inClinic, address inPatient, uint[] inCheckItems) public {\r\n        require(inCheckItems.length > 0);\r\n        _clinic = inClinic;\r\n        _patient = inPatient;\r\n        _status = Status.NEW;\r\n        \r\n        {\r\n            Item memory item1 = Item(1, \"Fever\", 1, true);\r\n            _availableItems[1] = item1;\r\n        }\r\n        {\r\n            Item memory item2 = Item(2, \"Flu\", 1, true);\r\n            _availableItems[2] = item2;\r\n        }\r\n        {\r\n            Item memory item3 = Item(3, \"Backache\", 2, true);\r\n            _availableItems[3] = item3;\r\n        }\r\n\t\t{\r\n            Item memory item4 = Item(4, \"Stomach ache\", 2, true);\r\n            _availableItems[4] = item4;\r\n        }\r\n\t\t{\r\n            Item memory item5 = Item(5, \"Headache\", 3, true);\r\n            _availableItems[5] = item5;\r\n        }\r\n\t\t{\r\n            Item memory item6 = Item(6, \"Toothache\", 3, true);\r\n            _availableItems[6] = item6;\r\n        }\r\n\t\t{\r\n            Item memory item7 = Item(7, \"Cancer\", 10, true);\r\n            _availableItems[7] = item7;\r\n        }\r\n\t\t{\r\n            Item memory item8 = Item(8, \"General examination\", 5, true);\r\n            _availableItems[8] = item8;\r\n        }\r\n        \r\n        for(uint i = 0; i < inCheckItems.length; i++) {\r\n            // Variable is declared as a storage pointer.\r\n            // Use an explicit \"storage\" keyword to silence this warning.\r\n            Item storage foundItem = _availableItems[inCheckItems[i]];\r\n            if(foundItem.isValid == false) {\r\n                revert();\r\n            }\r\n            _selectedItem[inCheckItems[i]] = foundItem;\r\n            _totalFee += foundItem.price;\r\n        }\r\n    }\r\n    \r\n    function clinicAcceptPatient(address inContractPI) public {\r\n        require(msg.sender == _clinic);\r\n        require(_status == Status.NEW);\r\n        _contractPI = inContractPI;\r\n        _status = Status.WAITING_FOR_PAID;\r\n    }\r\n    \r\n    function calculateFee() public returns (uint, uint){\r\n        require(msg.sender == _clinic);\r\n        require(_status == Status.WAITING_FOR_PAID);\r\n        ContractPI pi = ContractPI(_contractPI);\r\n        // Intial as memory array 2 items in memory\r\n        uint[] memory pays = new uint[](2); \r\n        pays[0] = pi.requestForClaim(this);\r\n        pays[1] = _totalFee - pays[0];\r\n        \r\n        emit InformTotalFee(pays[0], pays[1]);\r\n        \r\n        return (pays[0], pays[1]);\r\n    }\r\n    \r\n    function patientPay() public payable {\r\n        require(msg.sender == _patient);\r\n        require(_status == Status.WAITING_FOR_PAID);\r\n        require(_patientPaidAmount > 0);\r\n        require(_patientPaid == false);\r\n        require(msg.value >= _patientPaidAmount);\r\n        _patientPaid = true;\r\n        emit PatientPaid(_patientPaidAmount);\r\n        \r\n        checkForPay();\r\n    }\r\n    \r\n    function insurerPay() public payable {\r\n        require(_status == Status.WAITING_FOR_PAID);\r\n        require(_insurerPaidAmount > 0);\r\n        require(_insurerPaid == false);\r\n        ContractPI pi = ContractPI(_contractPI);\r\n        require(msg.sender == pi.getInsurer());\r\n        require(msg.value >= _insurerPaidAmount);\r\n        _insurerPaid = true;\r\n        emit InsurerPaid(_patientPaidAmount);\r\n        \r\n        checkForPay();\r\n    }\r\n    \r\n    function checkForPay() public {\r\n        require(_status == Status.WAITING_FOR_PAID);\r\n        require(_insurerPaidAmount == 0 || _insurerPaid);\r\n        require(_patientPaidAmount == 0 || _patientPaid);\r\n        _status = Status.CHECKING;\r\n        emit ReadyToCheck();\r\n    }\r\n    \r\n    function patientConfirm() public payable {\r\n        require(msg.sender == _patient);\r\n        require(_status == Status.CHECKING);\r\n        // Using contract member \"balance\" inherited from the address type is deprecated.\r\n        // Convert the contract to \"address\" type to access the member,\r\n        // for example use \"address(contract).balance\" instead.\r\n        //_clinic.transfer(this.balance);\r\n        _clinic.transfer(address(this).balance);\r\n        _status = Status.DONE;\r\n    }\r\n    \r\n    function patientCancel() public{\r\n        require(msg.sender == _patient);\r\n        require(_status == Status.NEW);\r\n        _status = Status.CANCELLED;\r\n        // deprecated-suicide: 'suicide' is deprecated. Use 'selfdestruct' instead.\r\n        selfdestruct(msg.sender);\r\n    }\r\n    \r\n    function getPatient() view external returns (address) {\r\n        return _patient;\r\n    }\r\n    \r\n    function getCheckItem(uint inIndex) view external returns (uint) {\r\n        return _checkItems[inIndex];\r\n    }\r\n    \r\n    function getCheckPrice(uint inIndex) view external returns (uint) {\r\n        return _checkPrices[inIndex];\r\n    }\r\n    \r\n    function getItemCount() view external returns (uint) {\r\n        return _checkItems.length;\r\n    }\r\n    \r\n    function receive(uint inAmount) public payable minimumAmount(inAmount) {\r\n        // Just for checking the minimum amount\r\n    }\r\n    \r\n    modifier minimumAmount(uint inEtherAmount) {\r\n        require (msg.value >= inEtherAmount * 1 ether);\r\n        _;\r\n    }\r\n    \r\n    event InformTotalFee(uint, uint);\r\n    \r\n    event PatientPaid(uint);\r\n    \r\n    event InsurerPaid(uint);\r\n    \r\n    event ReadyToCheck();\r\n    \r\n    function stringToBytes32(string memory source) public pure returns (bytes32 result) {\r\n        bytes memory tempEmptyStringTest = bytes(source);\r\n        if (tempEmptyStringTest.length == 0) {\r\n            return 0x0;\r\n        }\r\n    \r\n        assembly {\r\n            result := mload(add(source, 32))\r\n        }\r\n    }\r\n    \r\n}",
  "sourcePath": "F:\\Data\\Blcokchain\\Project\\findclinic\\findclinic\\contracts\\ContractCP.sol",
  "compiler": {
    "name": "solc",
    "version": "0.4.21+commit.dfe3193c.Emscripten.clang"
  },
  "schemaVersion": "2.0.0",
  "updatedAt": "2018-04-26T17:38:27.672Z"
}