{
  "contractName": "ContractPI",
  "abi": [
    {
      "constant": true,
      "inputs": [],
      "name": "_status",
      "outputs": [
        {
          "name": "",
          "type": "uint8"
        }
      ],
      "payable": false,
      "stateMutability": "view",
      "type": "function"
    },
    {
      "inputs": [
        {
          "name": "inInusrer",
          "type": "address"
        },
        {
          "name": "inPatient",
          "type": "address"
        }
      ],
      "payable": false,
      "stateMutability": "nonpayable",
      "type": "constructor"
    },
    {
      "anonymous": false,
      "inputs": [
        {
          "indexed": false,
          "name": "",
          "type": "address"
        },
        {
          "indexed": false,
          "name": "",
          "type": "uint256"
        },
        {
          "indexed": false,
          "name": "",
          "type": "uint256"
        }
      ],
      "name": "ContractSigned",
      "type": "event"
    },
    {
      "anonymous": false,
      "inputs": [
        {
          "indexed": false,
          "name": "",
          "type": "address"
        },
        {
          "indexed": false,
          "name": "",
          "type": "address"
        },
        {
          "indexed": false,
          "name": "",
          "type": "uint256"
        }
      ],
      "name": "ClaimRequested",
      "type": "event"
    },
    {
      "anonymous": false,
      "inputs": [
        {
          "indexed": false,
          "name": "",
          "type": "address"
        },
        {
          "indexed": false,
          "name": "",
          "type": "address"
        },
        {
          "indexed": false,
          "name": "",
          "type": "uint256"
        }
      ],
      "name": "AcceptClaim",
      "type": "event"
    },
    {
      "constant": false,
      "inputs": [
        {
          "name": "inPackId",
          "type": "uint256"
        },
        {
          "name": "inNumberOfMonths",
          "type": "uint256"
        }
      ],
      "name": "calculateContractValue",
      "outputs": [
        {
          "name": "",
          "type": "uint256"
        }
      ],
      "payable": false,
      "stateMutability": "nonpayable",
      "type": "function"
    },
    {
      "constant": false,
      "inputs": [
        {
          "name": "inPackId",
          "type": "uint256"
        },
        {
          "name": "inNumberOfMonths",
          "type": "uint256"
        },
        {
          "name": "inStartDate",
          "type": "uint256"
        },
        {
          "name": "inContractValue",
          "type": "uint256"
        }
      ],
      "name": "patientConfirm",
      "outputs": [],
      "payable": true,
      "stateMutability": "payable",
      "type": "function"
    },
    {
      "constant": false,
      "inputs": [],
      "name": "patientCancel",
      "outputs": [],
      "payable": false,
      "stateMutability": "nonpayable",
      "type": "function"
    },
    {
      "constant": false,
      "inputs": [],
      "name": "getInsurer",
      "outputs": [
        {
          "name": "",
          "type": "address"
        }
      ],
      "payable": false,
      "stateMutability": "nonpayable",
      "type": "function"
    },
    {
      "constant": false,
      "inputs": [
        {
          "name": "inPatient",
          "type": "address"
        },
        {
          "name": "inCheckItems",
          "type": "uint256[]"
        },
        {
          "name": "inCheckPrices",
          "type": "uint256[]"
        }
      ],
      "name": "calculateClaimAmount",
      "outputs": [
        {
          "name": "",
          "type": "uint256"
        }
      ],
      "payable": false,
      "stateMutability": "nonpayable",
      "type": "function"
    },
    {
      "constant": false,
      "inputs": [
        {
          "name": "inContractCP",
          "type": "address"
        }
      ],
      "name": "requestForClaim",
      "outputs": [
        {
          "name": "",
          "type": "uint256"
        }
      ],
      "payable": false,
      "stateMutability": "nonpayable",
      "type": "function"
    },
    {
      "constant": false,
      "inputs": [
        {
          "name": "inContractCP",
          "type": "address"
        }
      ],
      "name": "insurerAcceptClaim",
      "outputs": [],
      "payable": true,
      "stateMutability": "payable",
      "type": "function"
    },
    {
      "constant": false,
      "inputs": [],
      "name": "requestForWithdraw",
      "outputs": [],
      "payable": true,
      "stateMutability": "payable",
      "type": "function"
    }
  ],
  "bytecode": "0x6060604052341561000f57600080fd5b604051604080611404833981016040528080519060200190919080519060200190919050508073ffffffffffffffffffffffffffffffffffffffff163373ffffffffffffffffffffffffffffffffffffffff1614151561006e57600080fd5b816000806101000a81548173ffffffffffffffffffffffffffffffffffffffff021916908373ffffffffffffffffffffffffffffffffffffffff16021790555080600160006101000a81548173ffffffffffffffffffffffffffffffffffffffff021916908373ffffffffffffffffffffffffffffffffffffffff1602179055506000600160146101000a81548160ff0219169083600381111561010e57fe5b021790555050506112e0806101246000396000f300606060405260043610610099576000357c0100000000000000000000000000000000000000000000000000000000900463ffffffff1680630cc86d3d1461009e5780630fb3844c146100de5780631a9bf8041461011557806322edc9791461012a57806323bb2e921461015857806346048144146101a55780635d0c1476146101af578063ceff114614610204578063f41c8a0c14610237575b600080fd5b34156100a957600080fd5b6100c86004808035906020019091908035906020019091905050610304565b6040518082815260200191505060405180910390f35b34156100e957600080fd5b6100f161033c565b6040518082600381111561010157fe5b60ff16815260200191505060405180910390f35b341561012057600080fd5b61012861034f565b005b610156600480803573ffffffffffffffffffffffffffffffffffffffff169060200190919050506103f8565b005b341561016357600080fd5b61018f600480803573ffffffffffffffffffffffffffffffffffffffff16906020019091905050610694565b6040518082815260200191505060405180910390f35b6101ad610d95565b005b34156101ba57600080fd5b6101c2610eb1565b604051808273ffffffffffffffffffffffffffffffffffffffff1673ffffffffffffffffffffffffffffffffffffffff16815260200191505060405180910390f35b6102356004808035906020019091908035906020019091908035906020019091908035906020019091905050610eda565b005b341561024257600080fd5b6102ee600480803573ffffffffffffffffffffffffffffffffffffffff1690602001909190803590602001908201803590602001908080602002602001604051908101604052809392919081815260200183836020028082843782019150505050505091908035906020019082018035906020019080806020026020016040519081016040528093929190818152602001838360200280828437820191505050505050919050506110a3565b6040518082815260200191505060405180910390f35b600061030e611290565b610318848461118f565b90508060400151156103305780602001519150610335565b600091505b5092915050565b600160149054906101000a900460ff1681565b600160009054906101000a900473ffffffffffffffffffffffffffffffffffffffff1673ffffffffffffffffffffffffffffffffffffffff163373ffffffffffffffffffffffffffffffffffffffff161415156103ab57600080fd5b600060038111156103b857fe5b600160149054906101000a900460ff1660038111156103d357fe5b1415156103df57600080fd5b3373ffffffffffffffffffffffffffffffffffffffff16ff5b6000806000809054906101000a900473ffffffffffffffffffffffffffffffffffffffff1673ffffffffffffffffffffffffffffffffffffffff163373ffffffffffffffffffffffffffffffffffffffff1614151561045657600080fd5b6001600381111561046357fe5b600160149054906101000a900460ff16600381111561047e57fe5b14151561048a57600080fd5b600c60008473ffffffffffffffffffffffffffffffffffffffff1673ffffffffffffffffffffffffffffffffffffffff16815260200190815260200160002091508160030160009054906101000a900460ff1615156104e857600080fd5b600015158260010160149054906101000a900460ff16151514151561050c57600080fd5b8160020154341015151561051f57600080fd5b8290508073ffffffffffffffffffffffffffffffffffffffff1663cba2534f620493e0846002015485600201546040518463ffffffff167c0100000000000000000000000000000000000000000000000000000000028152600401808281526020019150506000604051808303818589803b151561059c57600080fd5b88f115156105a957600080fd5b505050505060018260010160146101000a81548160ff0219169083151502179055507ee0370db339f2678ab2fd274bb678633e18f0a739aedf0050ed1e449d4f598383600160009054906101000a900473ffffffffffffffffffffffffffffffffffffffff168460020154604051808473ffffffffffffffffffffffffffffffffffffffff1673ffffffffffffffffffffffffffffffffffffffff1681526020018373ffffffffffffffffffffffffffffffffffffffff1673ffffffffffffffffffffffffffffffffffffffff168152602001828152602001935050505060405180910390a1505050565b6000806000806000806000600160038111156106ac57fe5b600160149054906101000a900460ff1660038111156106c757fe5b1415156106d357600080fd5b42600554101515156106e457600080fd5b879550600160009054906101000a900473ffffffffffffffffffffffffffffffffffffffff1673ffffffffffffffffffffffffffffffffffffffff168673ffffffffffffffffffffffffffffffffffffffff16637b0f9a366040518163ffffffff167c0100000000000000000000000000000000000000000000000000000000028152600401602060405180830381600087803b151561078357600080fd5b5af1151561079057600080fd5b5050506040518051905073ffffffffffffffffffffffffffffffffffffffff161415156107bc57600080fd5b60001515600c60008a73ffffffffffffffffffffffffffffffffffffffff1673ffffffffffffffffffffffffffffffffffffffff16815260200190815260200160002060030160009054906101000a900460ff16151514151561081e57600080fd5b8573ffffffffffffffffffffffffffffffffffffffff16637749cf236040518163ffffffff167c0100000000000000000000000000000000000000000000000000000000028152600401602060405180830381600087803b151561088157600080fd5b5af1151561088e57600080fd5b505050604051805190509450600091505b848210156109f8578573ffffffffffffffffffffffffffffffffffffffff1663a5adc278836040518263ffffffff167c010000000000000000000000000000000000000000000000000000000002815260040180828152602001915050602060405180830381600087803b151561091557600080fd5b5af1151561092257600080fd5b50505060405180519050848381548110151561093a57fe5b9060005260206000209001819055508573ffffffffffffffffffffffffffffffffffffffff1663ced51e17836040518263ffffffff167c010000000000000000000000000000000000000000000000000000000002815260040180828152602001915050602060405180830381600087803b15156109b757600080fd5b5af115156109c457600080fd5b5050506040518051905083838154811015156109dc57fe5b906000526020600020900181905550818060010192505061089f565b610b1a8673ffffffffffffffffffffffffffffffffffffffff16637b0f9a366040518163ffffffff167c0100000000000000000000000000000000000000000000000000000000028152600401602060405180830381600087803b1515610a5e57600080fd5b5af11515610a6b57600080fd5b5050506040518051905085805480602002602001604051908101604052809291908181526020018280548015610ac057602002820191906000526020600020905b815481526020019060010190808311610aac575b505050505085805480602002602001604051908101604052809291908181526020018280548015610b1057602002820191906000526020600020905b815481526020019060010190808311610afc575b50505050506110a3565b90506000811115610d855760a0604051908101604052808973ffffffffffffffffffffffffffffffffffffffff168152602001600160009054906101000a900473ffffffffffffffffffffffffffffffffffffffff1673ffffffffffffffffffffffffffffffffffffffff16815260200160001515815260200182815260200160011515815250600c60008a73ffffffffffffffffffffffffffffffffffffffff1673ffffffffffffffffffffffffffffffffffffffff16815260200190815260200160002060008201518160000160006101000a81548173ffffffffffffffffffffffffffffffffffffffff021916908373ffffffffffffffffffffffffffffffffffffffff16021790555060208201518160010160006101000a81548173ffffffffffffffffffffffffffffffffffffffff021916908373ffffffffffffffffffffffffffffffffffffffff16021790555060408201518160010160146101000a81548160ff0219169083151502179055506060820151816002015560808201518160030160006101000a81548160ff0219169083151502179055509050507f4937cce2b75e8534dd1b00c796a7527bad00a7993dfb8232adeef9166906da0d88600160009054906101000a900473ffffffffffffffffffffffffffffffffffffffff1683604051808473ffffffffffffffffffffffffffffffffffffffff1673ffffffffffffffffffffffffffffffffffffffff1681526020018373ffffffffffffffffffffffffffffffffffffffff1673ffffffffffffffffffffffffffffffffffffffff168152602001828152602001935050505060405180910390a160009650610d8a565b600196505b505050505050919050565b6000809054906101000a900473ffffffffffffffffffffffffffffffffffffffff1673ffffffffffffffffffffffffffffffffffffffff163373ffffffffffffffffffffffffffffffffffffffff16141515610df057600080fd5b60016003811115610dfd57fe5b600160149054906101000a900460ff166003811115610e1857fe5b141515610e2457600080fd5b42600554101515610e3457600080fd5b6002600160146101000a81548160ff02191690836003811115610e5357fe5b02179055503373ffffffffffffffffffffffffffffffffffffffff166108fc3073ffffffffffffffffffffffffffffffffffffffff16319081150290604051600060405180830381858888f193505050501515610eaf57600080fd5b565b60008060009054906101000a900473ffffffffffffffffffffffffffffffffffffffff16905090565b600081670de0b6b3a764000081023410151515610ef657600080fd5b600160009054906101000a900473ffffffffffffffffffffffffffffffffffffffff1673ffffffffffffffffffffffffffffffffffffffff163373ffffffffffffffffffffffffffffffffffffffff16141515610f5257600080fd5b610f5c8686610304565b9150600082111515610f6d57600080fd5b823410151515610f7c57600080fd5b818310151515610f8b57600080fd5b428410151515610f9a57600080fd5b346003819055508460068190555083600481905550610fb88561125b565b8401600581905550610fca868661118f565b6007600082015181600001556020820151816001015560408201518160030160006101000a81548160ff02191690831515021790555090505060018060146101000a81548160ff0219169083600381111561102157fe5b02179055507f8a1cce3c534ef82867c448ebe7381749026d5acd85bbff63d3579daaf406c7813387600354604051808473ffffffffffffffffffffffffffffffffffffffff1673ffffffffffffffffffffffffffffffffffffffff168152602001838152602001828152602001935050505060405180910390a1505050505050565b600080600080600060038111156110b657fe5b600160149054906101000a900460ff1660038111156110d157fe5b1415156110dd57600080fd5b42600554101515156110ee57600080fd5b60009250600091505b85518210156111825760076002016000878481518110151561111557fe5b90602001906020020151815260200190815260200160002090508060020160009054906101000a900460ff1615611175576064858381518110151561115657fe5b9060200190602002015182600101540281151561116f57fe5b04830192505b81806001019250506110f7565b8293505050509392505050565b611197611290565b600080600b60008681526020019081526020016000209150600090505b8180549050811015611252578382828154811015156111cf57fe5b90600052602060002090600402016000015414156112455781818154811015156111f557fe5b90600052602060002090600402016060604051908101604052908160008201548152602001600182015481526020016003820160009054906101000a900460ff1615151515815250509250611253565b80806001019150506111b4565b5b505092915050565b600080600080600080601e945060189350603c9250603c91506103e8905080828486888b020202020295505050505050919050565b606060405190810160405280600081526020016000815260200160001515815250905600a165627a7a7230582087ed12b2ec0e3d58cd06e5c29ee3a315eb29201efae9b6045c4a7e124e4247640029",
  "source": "pragma solidity ^0.4.21;\r\n//pragma experimental ABIEncoderV2;\r\nimport \"./ContractCP.sol\";\r\n\r\n/**\r\n * This is contract between Insurer and Patient\r\n */\r\ncontract ContractPI {\r\n    \r\n   /**\r\n     * Status of Contract\r\n     * - NEW: when Patient deploy the contract\r\n     */\r\n    enum Status {NEW, VALID, EXPIRED, CANCELLED}\r\n    \r\n    struct Item {\r\n        string name;\r\n        uint percent;\r\n        bool isValid;\r\n    }\r\n    \r\n    struct Option {\r\n        uint period;\r\n        uint price;\r\n        mapping(uint => Item) items;\r\n        bool isValid;\r\n    }\r\n    \r\n    struct ClaimRequest {\r\n        address requestedContract;\r\n        address patient;\r\n        bool paid;\r\n        uint amount;\r\n        bool isValid;\r\n    }\r\n    \r\n    address private _insurer;\r\n    address private _patient;\r\n    \r\n    Status public _status;\r\n    \r\n    string private _desc;\r\n    uint private _contractValue;\r\n    uint private _startDate;\r\n    uint private _endDate;\r\n    uint private _period;\r\n    \r\n    Option private _selectedOption;\r\n    mapping(uint => Option[]) _availableOptionsList;\r\n    mapping(address => ClaimRequest) _claimQueue;\r\n    \r\n    function ContractPI(address inInusrer, address inPatient) {\r\n        require(msg.sender == inPatient);\r\n        _insurer = inInusrer;\r\n        _patient = inPatient;\r\n        _status = Status.NEW;\r\n        \r\n        \r\n        // TODO\r\n        // Init _availableOptionsList as avaiable service packs at Insurer\r\n        // Pack 1: 6 month, {Head, Stomache, ..} 50 ETH\r\n        // Pack 2: ...\r\n    }\r\n    \r\n    function getOption(uint inPackId, uint inNumberOfMonths) internal returns (Option) {\r\n        Option[] optionsForPack = _availableOptionsList[inPackId];\r\n        for (uint i = 0; i < optionsForPack.length; i++) {\r\n            if(optionsForPack[i].period == inNumberOfMonths) {\r\n                return optionsForPack[i];\r\n            }\r\n        }\r\n    }\r\n    \r\n    function calculateContractValue(uint inPackId, uint inNumberOfMonths) returns (uint) {\r\n        Option memory matchedOption = getOption(inPackId, inNumberOfMonths);\r\n        if(matchedOption.isValid) {\r\n            return matchedOption.price;\r\n        }\r\n        return 0;\r\n    }\r\n    \r\n    function patientConfirm(uint inPackId, uint inNumberOfMonths, uint inStartDate, uint inContractValue) payable minimumAmount(inContractValue) {\r\n        require(msg.sender == _patient);\r\n        uint totalContractValue = calculateContractValue(inPackId, inNumberOfMonths);\r\n        require(totalContractValue > 0);\r\n        require(msg.value >= inContractValue);\r\n        require(inContractValue >= totalContractValue);\r\n        require(inStartDate >= now);\r\n        \r\n        _contractValue = msg.value;\r\n        _period = inNumberOfMonths;\r\n        _startDate = inStartDate;\r\n        _endDate = inStartDate + monthToMiliseconds(inNumberOfMonths);\r\n        _selectedOption = getOption(inPackId, inNumberOfMonths);\r\n        _status = Status.VALID;\r\n        \r\n        emit ContractSigned(msg.sender, inPackId, _contractValue);\r\n        \r\n    }\r\n    \r\n    function patientCancel() {\r\n        require(msg.sender == _patient);\r\n        require(_status == Status.NEW);\r\n        suicide(msg.sender);\r\n    }\r\n    \r\n    function getInsurer() returns(address) {\r\n        return _insurer;\r\n    }\r\n    \r\n    function calculateClaimAmount(address inPatient, uint[] inCheckItems, uint[] inCheckPrices) returns (uint) {\r\n        require(_status == Status.NEW);\r\n        require(_endDate >= now);\r\n        uint sum = 0;\r\n        for(uint i = 0; i < inCheckItems.length; i++) {\r\n            Item matchedItem = _selectedOption.items[inCheckItems[i]];\r\n            if(matchedItem.isValid) {\r\n                sum += matchedItem.percent * inCheckPrices[i] / 100;\r\n            }\r\n        }\r\n        return sum;\r\n    }\r\n    \r\n    function requestForClaim(address inContractCP) returns (uint) {\r\n        require(_status == Status.VALID);\r\n        require(_endDate >= now);\r\n        \r\n        ContractCP cp = ContractCP(inContractCP);\r\n        require(cp.getPatient() == _patient);\r\n        require(_claimQueue[inContractCP].isValid == false);\r\n        \r\n        uint itemCount = cp.getItemCount();\r\n        uint[] storage checkItems;\r\n        uint[] storage checkPrices;\r\n        for(uint i = 0; i < itemCount; i++) {\r\n            checkItems[i] = cp.getCheckItem(i);\r\n            checkPrices[i] = cp.getCheckPrice(i);\r\n        }\r\n        \r\n        uint totalAmount = calculateClaimAmount(cp.getPatient(), checkItems, checkPrices);\r\n        if(totalAmount > 0) {\r\n            _claimQueue[inContractCP] = ClaimRequest(inContractCP, _patient, false, totalAmount, true);\r\n            emit ClaimRequested(inContractCP, _patient, totalAmount);\r\n            return 0;\r\n        }\r\n        return 1;\r\n        \r\n    }\r\n    \r\n    function insurerAcceptClaim(address inContractCP) payable {\r\n        require(msg.sender == _insurer);\r\n        require(_status == Status.VALID);\r\n        ClaimRequest request = _claimQueue[inContractCP];\r\n        require(request.isValid);\r\n        require(request.paid == false);\r\n        require(msg.value >= request.amount);\r\n        ContractCP cp = ContractCP(inContractCP);\r\n        cp.receive.gas(300000).value(request.amount)(request.amount);\r\n        request.paid = true;\r\n        \r\n        emit AcceptClaim(inContractCP, _patient, request.amount);\r\n    }\r\n    \r\n    function requestForWithdraw() payable {\r\n        require(msg.sender == _insurer);\r\n        require(_status == Status.VALID);\r\n        require(_endDate < now);\r\n        _status = Status.EXPIRED;\r\n        msg.sender.transfer(this.balance);\r\n    }\r\n    \r\n    function monthToMiliseconds(uint inMonth) internal returns (uint) {\r\n        uint daysPerMonth = 30;\r\n        uint hoursPerDay = 24;\r\n        uint minsPerHour = 60;\r\n        uint secsPerMin = 60;\r\n        uint milisPerSec = 1000;\r\n        return inMonth * daysPerMonth * hoursPerDay * minsPerHour * secsPerMin * milisPerSec;\r\n    }\r\n    \r\n    \r\n    modifier minimumAmount(uint inEtherAmount) {\r\n        require (msg.value >= inEtherAmount * 1 ether);\r\n        _;\r\n    }\r\n    \r\n    event ContractSigned(address, uint, uint);\r\n    \r\n    event ClaimRequested(address, address, uint);\r\n    \r\n    event AcceptClaim(address, address, uint);\r\n    \r\n//    /**\r\n//      * Convert bytes32 to string\r\n//      * @param x The bytes32 value\r\n//      * @return string The resulting string from bytes32\r\n//      */\r\n//     function bytes32ToString(bytes32 x) constant returns (string) {\r\n//         bytes memory bytesString = new bytes(32);\r\n//         uint charCount = 0;\r\n//         for (uint j = 0; j < 32; j++) {\r\n//             byte char = byte(bytes32(uint(x) * 2 ** (8 * j)));\r\n//             if (char != 0) {\r\n//                 bytesString[charCount] = char;\r\n//                 charCount++;\r\n//             }\r\n//         }\r\n//         bytes memory bytesStringTrimmed = new bytes(charCount);\r\n//         for (j = 0; j < charCount; j++) {\r\n//             bytesStringTrimmed[j] = bytesString[j];\r\n//         }\r\n//         return string(bytesStringTrimmed);\r\n//     }\r\n    \r\n    \r\n    \r\n    \r\n    \r\n    \r\n    \r\n    \r\n    \r\n    \r\n}",
  "sourcePath": "F:\\Data\\Blcokchain\\Project\\findclinic\\findclinic\\contracts\\ContractPI.sol",
  "compiler": {
    "name": "solc",
    "version": "0.4.21+commit.dfe3193c.Emscripten.clang"
  },
  "schemaVersion": "2.0.0",
  "updatedAt": "2018-04-26T15:15:33.811Z"
}