{
  "contractName": "ContractCPList",
  "abi": [
    {
      "constant": false,
      "inputs": [
        {
          "name": "inClinic",
          "type": "address"
        },
        {
          "name": "inPatient",
          "type": "address"
        },
        {
          "name": "inCheckItems",
          "type": "uint256[]"
        }
      ],
      "name": "createContract",
      "outputs": [],
      "payable": false,
      "stateMutability": "nonpayable",
      "type": "function"
    },
    {
      "constant": true,
      "inputs": [
        {
          "name": "inPatient",
          "type": "address"
        }
      ],
      "name": "getPatientContracts",
      "outputs": [
        {
          "name": "",
          "type": "address[]"
        }
      ],
      "payable": false,
      "stateMutability": "view",
      "type": "function"
    },
    {
      "constant": true,
      "inputs": [
        {
          "name": "inClinic",
          "type": "address"
        }
      ],
      "name": "getClinicContracts",
      "outputs": [
        {
          "name": "",
          "type": "address[]"
        }
      ],
      "payable": false,
      "stateMutability": "view",
      "type": "function"
    }
  ],
  "bytecode": "0x6060604052341561000f57600080fd5b6128938061001e6000396000f3006060604052600436106200005b576000357c0100000000000000000000000000000000000000000000000000000000900463ffffffff1680636dea6b1a14620000605780637c79213e14620000fb578063a28557d6146200018e575b600080fd5b34156200006c57600080fd5b620000f9600480803573ffffffffffffffffffffffffffffffffffffffff1690602001909190803573ffffffffffffffffffffffffffffffffffffffff169060200190919080359060200190820180359060200190808060200260200160405190810160405280939291908181526020018383602002808284378201915050505050509190505062000221565b005b34156200010757600080fd5b62000135600480803573ffffffffffffffffffffffffffffffffffffffff1690602001909190505062000450565b6040518080602001828103825283818151815260200191508051906020019060200280838360005b838110156200017a5780820151818401526020810190506200015d565b505050509050019250505060405180910390f35b34156200019a57600080fd5b620001c8600480803573ffffffffffffffffffffffffffffffffffffffff1690602001909190505062000527565b6040518080602001828103825283818151815260200191508051906020019060200280838360005b838110156200020d578082015181840152602081019050620001f0565b505050509050019250505060405180910390f35b600080600085858562000233620005fd565b808473ffffffffffffffffffffffffffffffffffffffff1673ffffffffffffffffffffffffffffffffffffffff1681526020018373ffffffffffffffffffffffffffffffffffffffff1673ffffffffffffffffffffffffffffffffffffffff16815260200180602001828103825283818151815260200191508051906020019060200280838360005b83811015620002d9578082015181840152602081019050620002bc565b50505050905001945050505050604051809103906000f0801515620002fd57600080fd5b92506000808673ffffffffffffffffffffffffffffffffffffffff1673ffffffffffffffffffffffffffffffffffffffff16815260200190815260200160002091508180548060010182816200035491906200060e565b9160005260206000209001600085909190916101000a81548173ffffffffffffffffffffffffffffffffffffffff021916908373ffffffffffffffffffffffffffffffffffffffff16021790555050600160008773ffffffffffffffffffffffffffffffffffffffff1673ffffffffffffffffffffffffffffffffffffffff1681526020019081526020016000209050808054806001018281620003f991906200060e565b9160005260206000209001600085909190916101000a81548173ffffffffffffffffffffffffffffffffffffffff021916908373ffffffffffffffffffffffffffffffffffffffff16021790555050505050505050565b6200045a6200063d565b600160008373ffffffffffffffffffffffffffffffffffffffff1673ffffffffffffffffffffffffffffffffffffffff1681526020019081526020016000208054806020026020016040519081016040528092919081815260200182805480156200051b57602002820191906000526020600020905b8160009054906101000a900473ffffffffffffffffffffffffffffffffffffffff1673ffffffffffffffffffffffffffffffffffffffff1681526020019060010190808311620004d0575b50505050509050919050565b620005316200063d565b6000808373ffffffffffffffffffffffffffffffffffffffff1673ffffffffffffffffffffffffffffffffffffffff168152602001908152602001600020805480602002602001604051908101604052809291908181526020018280548015620005f157602002820191906000526020600020905b8160009054906101000a900473ffffffffffffffffffffffffffffffffffffffff1673ffffffffffffffffffffffffffffffffffffffff1681526020019060010190808311620005a6575b50505050509050919050565b6040516121ee806200067a83390190565b815481835581811511620006385781836000526020600020918201910162000637919062000651565b5b505050565b602060405190810160405280600081525090565b6200067691905b808211156200067257600081600090555060010162000658565b5090565b905600606060405234156200001057600080fd5b604051620021ee380380620021ee833981016040526200003a906780000000000000009062000b3a565b600080600083511115156200004e57600080fd5b846000806101000a81548173ffffffffffffffffffffffffffffffffffffffff021916908373ffffffffffffffffffffffffffffffffffffffff16021790555083600160006101000a81548173ffffffffffffffffffffffffffffffffffffffff021916908373ffffffffffffffffffffffffffffffffffffffff1602179055506000600460006101000a81548160ff02191690836004811115620000ef57fe5b0217905550620001126200022f6401000000000262000dd6176401000000009004565b600091505b82518210156200022457600b600084848151811015156200013457fe5b9060200190602002015181526020019081526020016000209050600015158160020160009054906101000a900460ff16151514156200017257600080fd5b80600c600085858151811015156200018657fe5b90602001906020020151815260200190815260200160002060008201816000019080546001816001161561010002031660029004620001c792919062000942565b50600182015481600101556002820160009054906101000a900460ff168160020160006101000a81548160ff0219169083151502179055509050508060010154600660008282540192505081905550818060010192505062000117565b505050505062000c2a565b6060604051908101604052806040805190810160405280600781526020017f6974656d2030310000000000000000000000000000000000000000000000000081525081526020016001815260200160011515815250600b60008081526020019081526020016000206000820151816000019080519060200190620002b5929190620009d0565b506020820151816001015560408201518160020160006101000a81548160ff0219169083151502179055509050506060604051908101604052806040805190810160405280600781526020017f6974656d2030320000000000000000000000000000000000000000000000000081525081526020016002815260200160011515815250600b60006001815260200190815260200160002060008201518160000190805190602001906200036a929190620009d0565b506020820151816001015560408201518160020160006101000a81548160ff0219169083151502179055509050506060604051908101604052806040805190810160405280600781526020017f6974656d2030330000000000000000000000000000000000000000000000000081525081526020016003815260200160011515815250600b60006002815260200190815260200160002060008201518160000190805190602001906200041f929190620009d0565b506020820151816001015560408201518160020160006101000a81548160ff0219169083151502179055509050506060604051908101604052806040805190810160405280600781526020017f6974656d2030340000000000000000000000000000000000000000000000000081525081526020016004815260200160011515815250600b6000600381526020019081526020016000206000820151816000019080519060200190620004d4929190620009d0565b506020820151816001015560408201518160020160006101000a81548160ff0219169083151502179055509050506060604051908101604052806040805190810160405280600781526020017f6974656d2030350000000000000000000000000000000000000000000000000081525081526020016005815260200160011515815250600b600060048152602001908152602001600020600082015181600001908051906020019062000589929190620009d0565b506020820151816001015560408201518160020160006101000a81548160ff0219169083151502179055509050506060604051908101604052806040805190810160405280600781526020017f6974656d2030360000000000000000000000000000000000000000000000000081525081526020016006815260200160011515815250600b60006005815260200190815260200160002060008201518160000190805190602001906200063e929190620009d0565b506020820151816001015560408201518160020160006101000a81548160ff0219169083151502179055509050506060604051908101604052806040805190810160405280600781526020017f6974656d2030370000000000000000000000000000000000000000000000000081525081526020016007815260200160011515815250600b6000600681526020019081526020016000206000820151816000019080519060200190620006f3929190620009d0565b506020820151816001015560408201518160020160006101000a81548160ff0219169083151502179055509050506060604051908101604052806040805190810160405280600781526020017f6974656d2030380000000000000000000000000000000000000000000000000081525081526020016008815260200160011515815250600b6000600781526020019081526020016000206000820151816000019080519060200190620007a8929190620009d0565b506020820151816001015560408201518160020160006101000a81548160ff0219169083151502179055509050506060604051908101604052806040805190810160405280600781526020017f6974656d2030390000000000000000000000000000000000000000000000000081525081526020016009815260200160011515815250600b60006008815260200190815260200160002060008201518160000190805190602001906200085d929190620009d0565b506020820151816001015560408201518160020160006101000a81548160ff0219169083151502179055509050506060604051908101604052806040805190810160405280600781526020017f6974656d2031300000000000000000000000000000000000000000000000000081525081526020016009815260200160001515815250600b600060098152602001908152602001600020600082015181600001908051906020019062000912929190620009d0565b506020820151816001015560408201518160020160006101000a81548160ff021916908315150217905550905050565b828054600181600116156101000203166002900490600052602060002090601f016020900481019282601f106200097d5780548555620009bd565b82800160010185558215620009bd57600052602060002091601f016020900482015b82811115620009bc5782548255916001019190600101906200099f565b5b509050620009cc919062000a57565b5090565b828054600181600116156101000203166002900490600052602060002090601f016020900481019282601f1062000a1357805160ff191683800117855562000a44565b8280016001018555821562000a44579182015b8281111562000a4357825182559160200191906001019062000a26565b5b50905062000a53919062000a57565b5090565b62000a7c91905b8082111562000a7857600081600090555060010162000a5e565b5090565b90565b600062000a8d825162000c00565b905092915050565b600082601f830112151562000aa957600080fd5b815162000ac062000aba8262000bd7565b62000ba9565b9150818183526020840193506020810190508385602084028201111562000ae657600080fd5b60005b8381101562000b1a578162000aff888262000b24565b84526020840193506020830192505060018101905062000ae9565b5050505092915050565b600062000b32825162000c20565b905092915050565b60008060006060848603121562000b5057600080fd5b600062000b608682870162000a7f565b935050602062000b738682870162000a7f565b925050604084015167ffffffffffffffff81111562000b9157600080fd5b62000b9f8682870162000a95565b9150509250925092565b6000604051905081810181811067ffffffffffffffff8211171562000bcd57600080fd5b8060405250919050565b600067ffffffffffffffff82111562000bef57600080fd5b602082029050602081019050919050565b600073ffffffffffffffffffffffffffffffffffffffff82169050919050565b6000819050919050565b6115b48062000c3a6000396000f3006060604052600436106100c5576000357c0100000000000000000000000000000000000000000000000000000000900463ffffffff1680630f05f8ec146100ca5780630fb3844c146100d45780631a7130fa146100fd5780631a9bf804146101075780637749cf231461011c5780637b0f9a36146101455780639425a41f1461016e578063a5adc27814610178578063a724390b146101ae578063bbb1d43a146101c3578063cba2534f146101e5578063ced51e17146101fc578063e6af35f014610232575b600080fd5b6100d261025c565b005b34156100df57600080fd5b6100e761038e565b6040516100f49190610ce9565b60405180910390f35b6101056103a1565b005b341561011257600080fd5b61011a610552565b005b341561012757600080fd5b61012f61061e565b60405161013c9190610d04565b60405180910390f35b341561015057600080fd5b61015861062b565b6040516101659190610cb3565b60405180910390f35b610176610655565b005b341561018357600080fd5b6101986004610193903690610c4e565b610783565b6040516101a59190610d04565b60405180910390f35b34156101b957600080fd5b6101c16107a7565b005b34156101ce57600080fd5b6101e360046101de903690610c25565b61087d565b005b6101fa60046101f5903690610c4e565b610974565b005b341561020757600080fd5b61021c6004610217903690610c4e565b610992565b6040516102299190610d04565b60405180910390f35b341561023d57600080fd5b6102456109b6565b604051610253929190610d1f565b60405180910390f35b600160009054906101000a900473ffffffffffffffffffffffffffffffffffffffff1673ffffffffffffffffffffffffffffffffffffffff163373ffffffffffffffffffffffffffffffffffffffff161415156102b857600080fd5b600160048111156102c557fe5b600460009054906101000a900460ff1660048111156102e057fe5b1415156102ec57600080fd5b60006008541115156102fd57600080fd5b60001515600760149054906101000a900460ff16151514151561031f57600080fd5b600854341015151561033057600080fd5b6001600760146101000a81548160ff0219169083151502179055507f264ec5a5e75174de18676d5eddf10ee3a72809b018b55e793335e489f3c52a4660085460405161037c9190610d04565b60405180910390a161038c6107a7565b565b600460009054906101000a900460ff1681565b6000600160048111156103b057fe5b600460009054906101000a900460ff1660048111156103cb57fe5b1415156103d757600080fd5b6000600a541115156103e857600080fd5b60001515600960009054906101000a900460ff16151514151561040a57600080fd5b600760009054906101000a900473ffffffffffffffffffffffffffffffffffffffff1690508073ffffffffffffffffffffffffffffffffffffffff16635d0c14766040518163ffffffff167c0100000000000000000000000000000000000000000000000000000000028152600401602060405180830381600087803b151561049257600080fd5b5af1151561049f57600080fd5b5050506040518051905073ffffffffffffffffffffffffffffffffffffffff163373ffffffffffffffffffffffffffffffffffffffff161415156104e257600080fd5b600a5434101515156104f357600080fd5b6001600960006101000a81548160ff0219169083151502179055507fbb9156848db4eba42489ab5289a87bdedb524516d1a00aca8f80254ca8fab16060085460405161053f9190610d04565b60405180910390a161054f6107a7565b50565b600160009054906101000a900473ffffffffffffffffffffffffffffffffffffffff1673ffffffffffffffffffffffffffffffffffffffff163373ffffffffffffffffffffffffffffffffffffffff161415156105ae57600080fd5b600060048111156105bb57fe5b600460009054906101000a900460ff1660048111156105d657fe5b1415156105e257600080fd5b60048060006101000a81548160ff0219169083600481111561060057fe5b02179055503373ffffffffffffffffffffffffffffffffffffffff16ff5b6000600280549050905090565b6000600160009054906101000a900473ffffffffffffffffffffffffffffffffffffffff16905090565b600160009054906101000a900473ffffffffffffffffffffffffffffffffffffffff1673ffffffffffffffffffffffffffffffffffffffff163373ffffffffffffffffffffffffffffffffffffffff161415156106b157600080fd5b600260048111156106be57fe5b600460009054906101000a900460ff1660048111156106d957fe5b1415156106e557600080fd5b6000809054906101000a900473ffffffffffffffffffffffffffffffffffffffff1673ffffffffffffffffffffffffffffffffffffffff166108fc3073ffffffffffffffffffffffffffffffffffffffff16319081150290604051600060405180830381858888f19350505050151561075d57600080fd5b6003600460006101000a81548160ff0219169083600481111561077c57fe5b0217905550565b600060028281548110151561079457fe5b9060005260206000209001549050919050565b600160048111156107b457fe5b600460009054906101000a900460ff1660048111156107cf57fe5b1415156107db57600080fd5b6000600a5414806107f85750600960009054906101000a900460ff165b151561080357600080fd5b600060085414806108205750600760149054906101000a900460ff165b151561082b57600080fd5b6002600460006101000a81548160ff0219169083600481111561084a57fe5b02179055507fd21fe0e7e6104dd7a16dae7ee3840a34e216bef186aacce48991c731271b7e2f60405160405180910390a1565b6000809054906101000a900473ffffffffffffffffffffffffffffffffffffffff1673ffffffffffffffffffffffffffffffffffffffff163373ffffffffffffffffffffffffffffffffffffffff161415156108d857600080fd5b600060048111156108e557fe5b600460009054906101000a900460ff16600481111561090057fe5b14151561090c57600080fd5b80600760006101000a81548173ffffffffffffffffffffffffffffffffffffffff021916908373ffffffffffffffffffffffffffffffffffffffff1602179055506001600460006101000a81548160ff0219169083600481111561096c57fe5b021790555050565b80670de0b6b3a76400008102341015151561098e57600080fd5b5050565b60006003828154811015156109a357fe5b9060005260206000209001549050919050565b6000806000806000809054906101000a900473ffffffffffffffffffffffffffffffffffffffff1673ffffffffffffffffffffffffffffffffffffffff163373ffffffffffffffffffffffffffffffffffffffff16141515610a1757600080fd5b60016004811115610a2457fe5b600460009054906101000a900460ff166004811115610a3f57fe5b141515610a4b57600080fd5b600760009054906101000a900473ffffffffffffffffffffffffffffffffffffffff1691508173ffffffffffffffffffffffffffffffffffffffff166323bb2e92306040518263ffffffff167c0100000000000000000000000000000000000000000000000000000000028152600401610ac59190610cce565b602060405180830381600087803b1515610ade57600080fd5b5af11515610aeb57600080fd5b50505060405180519050816000815481101515610b0457fe5b906000526020600020900181905550806000815481101515610b2257fe5b90600052602060002090015460065403816001815481101515610b4157fe5b9060005260206000209001819055507ffde0443d61488fe9f4cf506334711e584adaf98ab54983ad7b658ef41a329368816000815481101515610b8057fe5b906000526020600020900154826001815481101515610b9b57fe5b906000526020600020900154604051610bb5929190610d1f565b60405180910390a1806000815481101515610bcc57fe5b906000526020600020900154816001815481101515610be757fe5b9060005260206000209001549350935050509091565b6000610c098235610d88565b905092915050565b6000610c1d8235610da8565b905092915050565b600060208284031215610c3757600080fd5b6000610c4584828501610bfd565b91505092915050565b600060208284031215610c6057600080fd5b6000610c6e84828501610c11565b91505092915050565b610c8081610d48565b82525050565b610c8f81610db2565b82525050565b610c9e81610dc4565b82525050565b610cad81610d7e565b82525050565b6000602082019050610cc86000830184610c77565b92915050565b6000602082019050610ce36000830184610c86565b92915050565b6000602082019050610cfe6000830184610c95565b92915050565b6000602082019050610d196000830184610ca4565b92915050565b6000604082019050610d346000830185610ca4565b610d416020830184610ca4565b9392505050565b600073ffffffffffffffffffffffffffffffffffffffff82169050919050565b6000600582101515610d7657fe5b819050919050565b6000819050919050565b600073ffffffffffffffffffffffffffffffffffffffff82169050919050565b6000819050919050565b6000610dbd82610d48565b9050919050565b6000610dcf82610d68565b9050919050565b6060604051908101604052806040805190810160405280600781526020017f6974656d2030310000000000000000000000000000000000000000000000000081525081526020016001815260200160011515815250600b60008081526020019081526020016000206000820151816000019080519060200190610e5a9291906114d5565b506020820151816001015560408201518160020160006101000a81548160ff0219169083151502179055509050506060604051908101604052806040805190810160405280600781526020017f6974656d2030320000000000000000000000000000000000000000000000000081525081526020016002815260200160011515815250600b6000600181526020019081526020016000206000820151816000019080519060200190610f0d9291906114d5565b506020820151816001015560408201518160020160006101000a81548160ff0219169083151502179055509050506060604051908101604052806040805190810160405280600781526020017f6974656d2030330000000000000000000000000000000000000000000000000081525081526020016003815260200160011515815250600b6000600281526020019081526020016000206000820151816000019080519060200190610fc09291906114d5565b506020820151816001015560408201518160020160006101000a81548160ff0219169083151502179055509050506060604051908101604052806040805190810160405280600781526020017f6974656d2030340000000000000000000000000000000000000000000000000081525081526020016004815260200160011515815250600b60006003815260200190815260200160002060008201518160000190805190602001906110739291906114d5565b506020820151816001015560408201518160020160006101000a81548160ff0219169083151502179055509050506060604051908101604052806040805190810160405280600781526020017f6974656d2030350000000000000000000000000000000000000000000000000081525081526020016005815260200160011515815250600b60006004815260200190815260200160002060008201518160000190805190602001906111269291906114d5565b506020820151816001015560408201518160020160006101000a81548160ff0219169083151502179055509050506060604051908101604052806040805190810160405280600781526020017f6974656d2030360000000000000000000000000000000000000000000000000081525081526020016006815260200160011515815250600b60006005815260200190815260200160002060008201518160000190805190602001906111d99291906114d5565b506020820151816001015560408201518160020160006101000a81548160ff0219169083151502179055509050506060604051908101604052806040805190810160405280600781526020017f6974656d2030370000000000000000000000000000000000000000000000000081525081526020016007815260200160011515815250600b600060068152602001908152602001600020600082015181600001908051906020019061128c9291906114d5565b506020820151816001015560408201518160020160006101000a81548160ff0219169083151502179055509050506060604051908101604052806040805190810160405280600781526020017f6974656d2030380000000000000000000000000000000000000000000000000081525081526020016008815260200160011515815250600b600060078152602001908152602001600020600082015181600001908051906020019061133f9291906114d5565b506020820151816001015560408201518160020160006101000a81548160ff0219169083151502179055509050506060604051908101604052806040805190810160405280600781526020017f6974656d2030390000000000000000000000000000000000000000000000000081525081526020016009815260200160011515815250600b60006008815260200190815260200160002060008201518160000190805190602001906113f29291906114d5565b506020820151816001015560408201518160020160006101000a81548160ff0219169083151502179055509050506060604051908101604052806040805190810160405280600781526020017f6974656d2031300000000000000000000000000000000000000000000000000081525081526020016009815260200160001515815250600b60006009815260200190815260200160002060008201518160000190805190602001906114a59291906114d5565b506020820151816001015560408201518160020160006101000a81548160ff021916908315150217905550905050565b828054600181600116156101000203166002900490600052602060002090601f016020900481019282601f1061151657805160ff1916838001178555611544565b82800160010185558215611544579182015b82811115611543578251825591602001919060010190611528565b5b5090506115519190611555565b5090565b61157791905b8082111561157357600081600090555060010161155b565b5090565b905600a265627a7a72305820ca558e63c52fc85ea36106664f1b9d55e2094618bc3c60567921924e1cbe312b6c6578706572696d656e74616cf50037a165627a7a723058202f64b1a9caed488b78ea9c23081979136824a692ba379f04ff8fc801cfa52eec0029",
  "source": "pragma solidity ^0.4.21;\r\n//pragma experimental ABIEncoderV2;\r\nimport \"./ContractCP.sol\";\r\n\r\n/**\r\n * This contract manages all contracts of Patient & Clinic\r\n */\r\ncontract ContractCPList {\r\n    \r\n    mapping(address => address[]) private _patientContractList;\r\n    mapping(address => address[]) private _clinicContractList;\r\n    \r\n    /**\r\n     * Create a ContractCP and save it to the list of contracts of Patient;\r\n     * @param inClinic address of Clinic account\r\n     * @param inPatient address of Patient account\r\n     * @param inCheckItems list of items that Patient want to check\r\n     */\r\n    function createContract(address inClinic, address inPatient, uint[] inCheckItems) public {\r\n        address pi = new ContractCP(inClinic, inPatient, inCheckItems);\r\n        // Add to Patient contracts list\r\n        address[] storage currentContractListOfPatient = _patientContractList[inPatient];\r\n        currentContractListOfPatient.push(pi);\r\n        // Add to Clinic contracts list\r\n        address[] storage currentContractListOfClinic = _clinicContractList[inClinic];\r\n        currentContractListOfClinic.push(pi);\r\n    }\r\n    \r\n    /**\r\n     * Returns list of contracts of a patient\r\n     * @param inPatient address of patient\r\n     * @return address[] list of contract addresses\r\n     */\r\n    function getPatientContracts(address inPatient) public view returns (address[]) {\r\n        return _patientContractList[inPatient];\r\n    }\r\n    \r\n    /**\r\n     * Returns list of contracts of a clinic\r\n     * @param inClinic address of clinic\r\n     * @return address[] list of contract addresses\r\n     */\r\n    function getClinicContracts(address inClinic) public view returns (address[]) {\r\n        return _clinicContractList[inClinic];\r\n    }\r\n    \r\n}",
  "sourcePath": "F:\\Data\\Blcokchain\\Project\\findclinic\\findclinic\\contracts\\ContractCPList.sol",
  "compiler": {
    "name": "solc",
    "version": "0.4.21+commit.dfe3193c.Emscripten.clang"
  },
  "schemaVersion": "2.0.0",
  "updatedAt": "2018-04-19T22:17:35.737Z"
}